ARM GAS  /tmp/ccpfLaBf.s 			page 1


   1              		.syntax unified
   2              		.cpu cortex-m4
   3              		.fpu softvfp
   4              		.eabi_attribute 20, 1
   5              		.eabi_attribute 21, 1
   6              		.eabi_attribute 23, 3
   7              		.eabi_attribute 24, 1
   8              		.eabi_attribute 25, 1
   9              		.eabi_attribute 26, 1
  10              		.eabi_attribute 30, 2
  11              		.eabi_attribute 34, 1
  12              		.eabi_attribute 18, 4
  13              		.thumb
  14              		.syntax unified
  15              		.file	"board.c"
  16              		.text
  17              	.Ltext0:
  18              		.section	.gnu.lto_.profile.4c04b26da233c93,"",%progbits
  19 0000 789C6361 		.ascii	"x\234ca`d`a`\000\222\011\336\000\001u\000\266"
  19      60646061 
  19      60009209 
  19      DE000175 
  19      00B6
  20              		.text
  21              		.section	.gnu.lto_.icf.4c04b26da233c93,"",%progbits
  22 0000 789C6361 		.ascii	"x\234ca`d\000\001a\006\004`f\230\372c\336\0046\306w"
  22      60640001 
  22      61060460 
  22      6698FA63 
  22      DE0436C6 
  23 0015 FB7E2732 		.ascii	"\373~'2\255\237\371\240\205\211\001\000X\005\010\226"
  23      AD9FF9A0 
  23      85890100 
  23      58050896 
  24              		.text
  25              		.section	.gnu.lto_.jmpfuncs.4c04b26da233c93,"",%progbits
  26 0000 789C6361 		.ascii	"x\234ca`d\000\001^\006\004`\006b\260(\023\020\003\000"
  26      60640001 
  26      5E060460 
  26      0662B028 
  26      13100300 
  27 0014 02410019 		.ascii	"\002A\000\031"
  28              		.text
  29              		.section	.gnu.lto_.inline.4c04b26da233c93,"",%progbits
  30 0000 789C6361 		.ascii	"x\234ca`d\000\001w\006\004`f`8\311p\002(\301\324\303"
  30      60640001 
  30      77060460 
  30      666038C9 
  30      700228C1 
  31 0016 F8E02807 		.ascii	"\370\340(\007\003\333\002y&\2208#\003\253\030P\020\310"
  31      03DB0279 
  31      26903823 
  31      03AB1850 
  31      10C8
  32 0028 828B70C1 		.ascii	"\202\213p\301\010&\006f&T9\006\000[\\\006\262"
  32      08260666 
  32      26543906 
ARM GAS  /tmp/ccpfLaBf.s 			page 2


  32      005B5C06 
  32      B2
  33              		.text
  34              		.section	.gnu.lto_.pureconst.4c04b26da233c93,"",%progbits
  35 0000 789C6361 		.ascii	"x\234ca`d`g```f\220b\224`b\000\000\001\214\000E"
  35      60646067 
  35      60606066 
  35      90629460 
  35      62000001 
  36              		.text
  37              		.section	.gnu.lto_stm32_gpio_init.4c04b26da233c93,"",%progbits
  38 0000 789C9D99 		.ascii	"x\234\235\231\351ST\331\031\207\357{\016\335,\202L\276"
  38      E95354D9 
  38      1987EF7B 
  38      0EDD2C82 
  38      4CBE
  39 0012 A52A5329 		.ascii	"\245*S)\253RS\223I\245d&\037\362u*\311\227|\310R\225"
  39      AB525393 
  39      49A56426 
  39      1FF2752A 
  39      C9977CC8 
  40 0028 AAFC0193 		.ascii	"\252\374\001\223Ieb%\025\2472\177\200\267iZ6\025p\001"
  40      49656225 
  40      15A7327F 
  40      80B7695A 
  40      36157001 
  41 003c 5C109499 		.ascii	"\\\020\224\231aS\026A\245q\034\020EQ\007\004\245e\024"
  41      61531641 
  41      A5711C10 
  41      45510704 
  41      A56514
  42 004f 57445041 		.ascii	"WDPA\241\001\035d\353\234\367\275\347\300\351\216\267"
  42      A1011D64 
  42      EB9CF7BD 
  42      E7C0E98E 
  42      B7
  43 0060 CA7BBAE0 		.ascii	"\312{\272\340B/\374\236\367,\317{o7I\026Xx\253\375\231"
  43      422FFC9E 
  43      F72CCF7B 
  43      6F374916 
  43      5878ABFD 
  44 0075 65FD5AFC 		.ascii	"e\375Z\374\374\211\370\006n\001+\356\267\254@\012\003"
  44      FC89F806 
  44      6E012BEE 
  44      B7AC400A 
  44      03
  45 0086 C05FEC14 		.ascii	"\300_\354\024\260\2661\330\006/\331\012\203\356\334"
  45      B0B631D8 
  45      062FD90A 
  45      83EEDC
  46 0095 F130FBA0 		.ascii	"\3610\373\240\306\026\267\007=\215[\002v\350\307!nY"
  46      C616B707 
  46      3D8D5B02 
  46      76E8C721 
  46      6E59
  47 00a7 31464916 		.ascii	"1FI\026\324\300\007\226x\331h\313\352\276\014\177\016"
  47      D4C00796 
ARM GAS  /tmp/ccpfLaBf.s 			page 3


  47      78D968CB 
  47      EABE0C7F 
  47      0E
  48 00b8 BE6C93F3 		.ascii	"\276l\223\363$\324\202\037qM\177\351\262c\261\240m\227"
  48      24D4821F 
  48      714D7FE9 
  48      B263B1A0 
  48      6D97
  49 00ca 7D54F8FE 		.ascii	"}T\370\376\357\231\025\342\002)\016><\370\361\220\202"
  49      EF9915E2 
  49      02290E3E 
  49      3CF8F190 
  49      82
  50 00db 87543CA4 		.ascii	"\207T<\244\341!\035\017\031x\310\304\203e\315\2108,"
  50      E1211D0F 
  50      1978C8C4 
  50      8365CD88 
  50      382C
  51 00ed 2CCA18FE 		.ascii	",\312\030\376\344\343\320\335\321r\377W\010\010r\254"
  51      E4E3D0DD 
  51      D172FF57 
  51      080872AC 
  52 00fd B134D47D 		.ascii	"\2614\324}-y\236\2058\003\254%\247\242g<\325\271k\317"
  52      2D799E85 
  52      3803AC25 
  52      A7A2673C 
  52      D5B96BCF 
  53 0111 E4D949E2 		.ascii	"\344\331I\342\241\311\373Ka_%T@\210s\250\207w\241\016"
  53      A1C9FB4B 
  53      615F2554 
  53      408873A8 
  53      8777A10E 
  54 0125 DEB5F0B5 		.ascii	"\336\265\360\265\263\245\003\017\322\263\216\3339\001"
  54      B3A5030F 
  54      D2B38EDB 
  54      3901
  55 0133 FB9D104F 		.ascii	"\373\235\020O\202\006\250\204U\032\033\034\203,k\034"
  55      8206A884 
  55      551A1B1C 
  55      832C6B1C 
  56 0143 820B7E07 		.ascii	"\202\013~\007\304\035VSh\254.\005\303\001b\000\307E"
  56      C41D5653 
  56      68AC2E05 
  56      C3016200 
  56      C745
  57 0155 8C28A714 		.ascii	"\214(\247\024\3605^8\215\353\234&\310\022\351\030\323"
  57      F0355E38 
  57      8DEB9C26 
  57      C812E918 
  57      D3
  58 0166 010ECAE7 		.ascii	"\001\016\312\347%\251y=\251\305\251xYV,\223F\247'\027"
  58      25A9793D 
  58      A9C5A978 
  58      59562C93 
  58      46A72717 
  59 017a B953B1BD 		.ascii	"\271S\261\275\032\213e\302\011\323\242[\327QmX\264_"
  59      1A8B65C2 
ARM GAS  /tmp/ccpfLaBf.s 			page 4


  59      09D3A25B 
  59      D7516D58 
  59      B45F
  60 018c 2F3AE5AD 		.ascii	"/:\345\255\222\000sN\256\347\234\242\222\273;\006\357"
  60      9200734E 
  60      AEE79CA2 
  60      92BB3B06 
  60      EF
  61 019d 332726D5 		.ascii	"3'&\325KA\247)\010w\031\264\307\257V\232H2_\235\360"
  61      4B41A729 
  61      087719B4 
  61      C7AF569A 
  61      48325F9D 
  62 01b2 7A6E070E 		.ascii	"zn\007\0164M\037h\272\227\2443\224D>|\023_a\206H2\257"
  62      344D1F68 
  62      BA97A433 
  62      94443E7C 
  62      135F6186 
  63 01c9 F0EC7AEE 		.ascii	"\360\354z\356\267Xa\206^a\346\333/E\347zN\227\250o\024"
  63      B7586186 
  63      5E61E6DB 
  63      2F45E77A 
  63      4E97A86F 
  64 01de 98AC6430 		.ascii	"\230\254d0\247\371\020\355\032\037\240@\321\276\003"
  64      A7F910ED 
  64      1A1FA040 
  64      D1BE03
  65 01ed 8F36E25D 		.ascii	"\2176\342]?l\022w\013\037\327\006\030\377\005\3516="
  65      3F6C1277 
  65      0B1FD706 
  65      18FF05E9 
  65      363D
  66 01ff 782E08EF 		.ascii	"x.\010\357U\333v\266\335\365\362\312\306\375vW\316\246"
  66      55DB76B6 
  66      DDF5F2CA 
  66      C6FD7657 
  66      CEA6
  67 0211 104F86F3 		.ascii	"\020O\206\363\300E#\200n\301>\207ld\\\200\367\304_\314"
  67      C0452380 
  67      6EC13E87 
  67      6C645C80 
  67      F7C45FCC 
  68 0225 8F8CF603 		.ascii	"\217\214\366\003\206%\203m\013A\241G<?\012\331]\261"
  68      8625836D 
  68      0B41A147 
  68      3C3F0AD9 
  68      5DB1
  69 0237 2B6A229E 		.ascii	"+j\"\236\2566M$\361\017\011\260o5T\223\366\177\200\024"
  69      AE364D24 
  69      F10F09B0 
  69      6F355493 
  69      F67F8014 
  70 024b B8F806C0 		.ascii	"\270\370\006\300%\002\2545\204T\012\010.v\316m\334\266"
  70      2502AC35 
  70      84540A08 
  70      2E76CE6D 
  70      DCB6
ARM GAS  /tmp/ccpfLaBf.s 			page 5


  71 025d 6297DB38 		.ascii	"b\227\3338y\251\371\242\177\341\303\227\0174\374K\314"
  71      79A9F9A2 
  71      7FE1C397 
  71      0F34FC4B 
  71      CC
  72 026e 50A0981E 		.ascii	"P\240\230\036N\203\313\242\347\365\312Y\332\025\330"
  72      4E83CBA2 
  72      E7F5CA59 
  72      DA15D8
  73 027d 7D878959 		.ascii	"}\207\211Y\022\317u\225\025\3762\3047\300\025\232*\371"
  73      12CF7595 
  73      15FE32C4 
  73      37C0159A 
  73      2AF9
  74 028f B78DF9BD 		.ascii	"\267\215\371\275m\340D\332\311X\314U\310\302\322-\370"
  74      6DE044DA 
  74      C958CC55 
  74      C8C2D22D 
  74      F8
  75 02a0 0EB6D192 		.ascii	"\016\266\321\222F\207\216\372\342\033\243\335T\312\261"
  75      46878EFA 
  75      E21BA3DD 
  75      54CAB1
  76 02af 409C056A 		.ascii	"@\234\005j\2171\247_\305\365N\350\023!\026\364\323,"
  76      8F31A75F 
  76      C5F54EE8 
  76      132116F4 
  76      D32C
  77 02c1 AC8D2399 		.ascii	"\254\215#\231^\03089V\222\206\025\333Tq:\316\033\\\223"
  77      5E183839 
  77      56928615 
  77      DB54713A 
  77      CE1B5C93 
  78 02d5 15AF2C3C 		.ascii	"\025\257,<,\311tvH\327\215\202t\\\334\001\2528\311\311"
  78      2CC97476 
  78      48D78D82 
  78      745CDC01 
  78      AA38C9C9 
  79 02e9 8441C8C2 		.ascii	"\204A\310\302\3765\025~\235\341t\003\013\256\313\355"
  79      FE35157E 
  79      9DE17403 
  79      0BAECBED 
  80 02f9 D71239EA 		.ascii	"\327\0229\352\223\310\267e\330\037!\341\006\021|\222"
  80      93C8B765 
  80      D81F21E1 
  80      06117C92 
  81 0309 304484B1 		.ascii	"0D\204\261\216\251K\340\020fb\037CD2\242\246\214\233"
  81      8EA94BE0 
  81      1066621F 
  81      434432A2 
  81      A68C9B
  82 031c C4F04BC6 		.ascii	"\304\360K\30601\252\026\303\271~\207\021\262\007\352"
  82      3031AA16 
  82      C3B97E87 
  82      11B207EA 
  83 032c 7DF0BD1A 		.ascii	"}\360\275\032\311MC\312-\242$K\312m\242\2244\237j\335"
  83      C94D43CA 
ARM GAS  /tmp/ccpfLaBf.s 			page 6


  83      2DA2244B 
  83      CA6DA294 
  83      349F6ADD 
  84 0340 E85082CB 		.ascii	"\350P\202\313\034F\324HL\031w\210\221\"\031w\305\216"
  84      1C46D448 
  84      4C197788 
  84      91221977 
  84      C58E
  85 0352 595B8061 		.ascii	"Y[\200a\303\310{\024\231*#\357k\221Q\323\310\007\024"
  85      C3C87B14 
  85      992A23EF 
  85      6B9151D3 
  85      C80714
  86 0365 9926231F 		.ascii	"\231&#\037\322L\254\\lYLrf\002g{T\372Zv\225|\245\015"
  86      D24CAC5C 
  86      6C594C72 
  86      6602677B 
  86      54FA5A76 
  87 037d AD7A07EE 		.ascii	"\255z\007\356pKk$^\332\303#\262\367@\367\322\371T\331"
  87      704B6B24 
  87      5EDAC323 
  87      B2F740F7 
  87      D2F954D9 
  88 0391 1EF2B03D 		.ascii	"\036\362\260=\214\305\343<\266\204\307\024\372\226="
  88      8CC5E33C 
  88      B684C714 
  88      FA963D
  89 03a0 60DCA507 		.ascii	"`\334\245\007T8=`\202\346f\203K\017x\242z\300S\367\036"
  89      54383D60 
  89      82E66683 
  89      4B0F78A2 
  89      7AC053F7 
  90 03b5 7046F400 		.ascii	"pF\364\000Q\021\016\325\275\007<\243\0360IC\315\216"
  90      51110ED5 
  90      BD073CA3 
  90      1E304943 
  90      CD8E
  91 03c7 544C67E8 		.ascii	"TLg\350\2137\246-\336\370\205\334\303I\361\322O)\351"
  91      8B37A62D 
  91      DEF885DC 
  91      C349F1D2 
  91      4F29E9
  92 03da 31049EEB 		.ascii	"1\004\236\353\233\014\015\364\026\352\354\210\027\312"
  92      9B0C0DF4 
  92      16EAEC88 
  92      17CA
  93 03e8 728A9CA6 		.ascii	"r\212\234\246\035\261\334T>*\015\014\332\301\362t\230"
  93      1DB1DC54 
  93      3E2A0D0C 
  93      DAC1F274 
  93      98
  94 03f9 D13D37A1 		.ascii	"\321=7\241D\225\347D\231%\312\255\274\354\247\362\332"
  94      4495E744 
  94      9925CAAD 
  94      BCECA7F2 
  94      DA
  95 040a 65A87EE8 		.ascii	"e\250~\350(\300\234\356\271\011e^yN\224\227D\271\031"
ARM GAS  /tmp/ccpfLaBf.s 			page 7


  95      28C09CEE 
  95      B909655E 
  95      794E9497 
  95      44B919
  96 041d 182B913D 		.ascii	"\030+\221=q\365\036\300+\335s\023\306\017\312sb,\020"
  96      71F51EC0 
  96      2BDD7313 
  96      C60FCA73 
  96      622C10
  97 0430 A3A6AD73 		.ascii	"\243\246\255sU^7\342\"\247\301k]}\023\312\242R\237("
  97      555E37E2 
  97      22A7C16B 
  97      5D7D13CA 
  97      A2529F28 
  98 0444 4B89EA9B 		.ascii	"K\211\352\233D.+\365)r\205\012\357Y*\350\331\340\024"
  98      442E2BF5 
  98      2972850A 
  98      EF592AE8 
  98      D9E014
  99 0457 1EB00379 		.ascii	"\036\260\003yI\260*m\254\220\362?\322\345\177l.\177"
  99      49B02A6D 
  99      AC90F23F 
  99      D2E57F6C 
  99      2E7F
 100 0469 8C3CDDDB 		.ascii	"\214<\335\333\275\177(C\312_\214\362\333,\016\347Q\376"
 100      BD7F2843 
 100      CA5F8CF2 
 100      DB2C0EE7 
 100      51FE
 101 047b 00F3207F 		.ascii	"\000\363 \1776{\263\374\255\216\374A\206\263\223\356"
 101      367BB3FC 
 101      AD8EFC41 
 101      86B393EE 
 102 048b 227F0E93 		.ascii	"\"\177\016\223\362\207\230\253\374\023B~Q\021\016\325"
 102      F28798AB 
 102      FC13427E 
 102      51110ED5 
 103 049b 5DFEED0C 		.ascii	"]\376\355\014\345\317e8\324\341\361\352\370\316-fcm"
 103      E5CF6538 
 103      D4E1F1EA 
 103      F8CE2D66 
 103      636D
 104 04ad F9EAE777 		.ascii	"\371\352\347w\264\246\306\313\237\307\244\374\030\002"
 104      B4A6C6CB 
 104      9FC7A4FC 
 104      1802
 105 04bb F92C417E 		.ascii	"\371,A~o\241\316\236(`R~\212,d\270'.\024\025\224I\371"
 105      6FA1CE9E 
 105      2860527E 
 105      8A2C64B8 
 105      272E1415 
 106 04d2 672ABB72 		.ascii	"g*\273r3a\007\323\3447\241\354dR~\242\354\"J\177\335"
 106      336107D3 
 106      E437A1EC 
 106      64527EA2 
 106      EC224A7F 
 107 04e7 DE7CA94C 		.ascii	"\336|\251L\244j\337\317\241\210i\356\233@\212\231t\237"
ARM GAS  /tmp/ccpfLaBf.s 			page 8


 107      A46ADFCF 
 107      A18869EE 
 107      9B408A99 
 107      749F
 108 04f9 202504F9 		.ascii	" %\004\371jqiFv\230X\214\303n\246\271o\302\330\303\244"
 108      6A716946 
 108      7698588C 
 108      C36EA6B9 
 108      6FC2D8C3 
 109 050e FBC4D8CB 		.ascii	"\373\304\330\313\022\316\361&\221\373\230\024\235\""
 109      12CEF126 
 109      91FB9814 
 109      9D22
 110 051c 4BA9ECB2 		.ascii	"K\251\354\262\332\374=\251\262\235\274\000(c\232\371"
 110      DAFC3DA9 
 110      B29DBC00 
 110      28639AF9 
 111 052c 268C7226 		.ascii	"&\214r&\315'\306~b\014\314\036\231\225mq\246\320\366"
 111      CD27C67E 
 111      620CCC1E 
 111      99956D71 
 111      A6D0F6
 112 053f C1016962 		.ascii	"\301\001ib\253\024?\246\213/\266\265\251\370\007\311"
 112      AB143FA6 
 112      8B2FB6B5 
 112      A9F807C9 
 113 054f D1BC86BD 		.ascii	"\321\274\206\275\325\\\212_\216\342\037\212\307y\024"
 113      D55C8A5F 
 113      8EE21F8A 
 113      C77914
 114 055e BFC28BF8 		.ascii	"\277\302\213\370\207]\304\017;\342W\322\344d\270\210"
 114      875DC40F 
 114      3BE257D2 
 114      E464B888 
 115 056e 5FA5C43F 		.ascii	"_\245\304?\342.\376\234\020_T\204Cu\027\377(\211_M\253"
 115      E22EFE9C 
 115      105F5484 
 115      437517FF 
 115      28895F4D 
 116 0583 77B070F5 		.ascii	"w\260p\365\261__\275C\332\352E\346\276-\362\307\213"
 116      B15F5FBD 
 116      43DAEA45 
 116      E6BE2DF2 
 116      C78B
 117 0595 FFA5121F 		.ascii	"\377\245\022\037C\340\253D\361\275\205:[\342k%>E\326"
 117      43E0AB44 
 117      F1BD853A 
 117      5BE26B25 
 117      3E45D6
 118 05a8 D0963831 		.ascii	"\320\226813\371S%\313r,\023ju\357M u\312{\202\324\023"
 118      33F95325 
 118      CB722C13 
 118      6A75EF4D 
 118      2075CA7B 
 119 05bf 64E44AFB 		.ascii	"d\344J\373P\262:U\0024\350\332\2330\216)\355\211q\234"
 119      50B23A55 
 119      0234E8DA 
ARM GAS  /tmp/ccpfLaBf.s 			page 9


 119      9B308E29 
 119      ED89719C 
 120 05d3 183BBF6C 		.ascii	"\030;\277l-\3629\214\034\200F\335z\023D\223\262\236"
 120      2DF2398C 
 120      1C8046DD 
 120      7A134493 
 120      B29E
 121 05e5 10CD8408 		.ascii	"\020\315\204\0107\366\016\313a\324G\352#\026\2640\255"
 121      37F60ECB 
 121      61D447EA 
 121      2316B430 
 121      AD
 122 05f6 1198504E 		.ascii	"\021\230PN\250F@\224VgE\372\352\226}\353\2244h\323["
 122      A8464094 
 122      566745FA 
 122      EA967DEB 
 122      943468D3 
 123 060b 8109E5A4 		.ascii	"\201\011\345\244j\005D9E\224\310\363\312eP\224ZA9-\345"
 123      6A054439 
 123      4594C8F3 
 123      CA655094 
 123      5A41392D 
 124 0620 0CCB5E70 		.ascii	"\014\313^pP\323\037w\272i/h'mG\232\372&Sd/\250\302^"
 124      50D31F77 
 124      BA692F68 
 124      276D479A 
 124      FA265364 
 125 0638 108EC779 		.ascii	"\020\216\307y\354\005\035^z\301\031\227^\320\351\364"
 125      EC051D5E 
 125      7AC11997 
 125      5ED0E9F4 
 126 0648 826F6876 		.ascii	"\202ohv6\272\364\202\263\252\027|\353\336\013b\242\027"
 126      36BAF482 
 126      B3AA177C 
 126      EBDE0B62 
 126      A217
 127 065a 888A70A8 		.ascii	"\210\212p\250\356\275\240\223zA\027-\337hoA\334%\\X"
 127      EEBDA093 
 127      7A41172D 
 127      DF686F41 
 127      DC255C58 
 128 066e 5BBD73BB 		.ascii	"[\275s\273\236|\235\021\337\012\316\251V\200\031\320"
 128      9E7C9D11 
 128      DF0ACEA9 
 128      568019D0 
 129 067e 9DD80A3C 		.ascii	"\235\330\012<e:;\342\274\352\004\224x\201v\304\335\336"
 129      653A3BE2 
 129      BCEA0494 
 129      788176C4 
 129      DDDE
 130 0690 BA86B5F3 		.ascii	"\272\206\265\363&~\252\330\243\267\002\003\310E\325"
 130      267EAAD8 
 130      A3B70203 
 130      C845D5
 131 069f 09087249 		.ascii	"\011\010rI/\373\246Yb\257\362\236\022/k\211Q\303\304"
 131      2FFBA659 
 131      62AFF29E 
ARM GAS  /tmp/ccpfLaBf.s 			page 10


 131      122F6B89 
 131      51C3C4
 132 06b2 2B4A734A 		.ascii	"+JsJ\274*\022\333t\247\015\022\277SJSb\237\226\0305"
 132      BC2A12DB 
 132      74A70D12 
 132      BF534A53 
 132      629F9618 
 133 06c7 4CEC57FA 		.ascii	"L\354W\372R\3425\231\210\362tJW\333uW;\314]\035 \255"
 133      52E23599 
 133      88F2744A 
 133      57DB7557 
 133      3BCC5D1D 
 134 06dd 066A26F2 		.ascii	"\006j&\362|\322\325Ztu0\036\347\321\325\353^\\\275\341"
 134      7CD2D55A 
 134      7475301E 
 134      E7D1D5EB 
 134      5E5CBDE1 
 135 06f1 E26AC471 		.ascii	"\342j\304qu\210\246\"\323\305\325\210r\365\246\273\253"
 135      7588A622 
 135      D3C5D588 
 135      72F5A6BB 
 135      AB
 136 0702 0D651C2B 		.ascii	"\015e\034+\302\241\272\273:L\256~OK5^Rs7U_\253Am\255"
 136      C2A1BABB 
 136      3A4CAE7E 
 136      4F4B355E 
 136      52733755 
 137 071b 66A3C37D 		.ascii	"f\243\303})\361\262\336R\262b\010\334N\224\325[\250"
 137      29F1B2DE 
 137      52B26208 
 137      DC4E94D5 
 137      5BA8
 138 072d B3014694 		.ascii	"\263\001F\224\255\024y\207l=t\276$;\315\261\265h!\006"
 138      AD147987 
 138      6C3D74BE 
 138      243BCDB1 
 138      B5682106 
 139 0741 705797D5 		.ascii	"pW\227\325\004rO\331J\220\373\004\031\254>\335*Ox\221"
 139      04724FD9 
 139      4A90FB04 
 139      19AC3EDD 
 139      2A4F7891 
 140 0755 8248BD0F 		.ascii	"\202H\275\017\036\350gn\023\312Ce0QF\211r\2744\274\224"
 140      1EE8676E 
 140      13CA4365 
 140      30514689 
 140      72BC34BC 
 141 076a E9503AC5 		.ascii	"\351P:\305\005\373#\375\324m\302\030SN\023\343q\342"
 141      05FB23FD 
 141      D46DC218 
 141      534E13E3 
 141      71E2
 142 077c 05BB49E4 		.ascii	"\005\273I\344\270\222\232\"'X\302;s\223\310'\312j\212"
 142      B8929A22 
 142      2758C23B 
 142      7393C827 
 142      CA6A8A
ARM GAS  /tmp/ccpfLaBf.s 			page 11


 143 078f 7C4A33D1 		.ascii	"|J3\321;\027\255\223\247\376\202\366\217\341\231\364"
 143      3B17AD93 
 143      A7FE82F6 
 143      8FE199F4 
 144 079f 2E22351F 		.ascii	".\"5\037\3205\277n\256\371$\031\271\347e\315C\245y3"
 144      D035BF6E 
 144      AEF92419 
 144      B9E765CD 
 144      43A57933 
 145 07b3 6A3E158F 		.ascii	"j>\025\217\363\250\371s/\232\277p\321|\304\321|\232"
 145      F3A8F973 
 145      2F9ABF70 
 145      D17CC4D1 
 145      7C9A
 146 07c5 E6E61D17 		.ascii	"\346\346\035\027\315g\224\346Qw\315"
 146      CD6794E6 
 146      5177CD
 147 07d0 4F0BCD45 		.ascii	"O\013\315EE8Tw\315gI\3639Z\274\263\273[O\305\275\271"
 147      45385477 
 147      CD6749F3 
 147      395ABCB3 
 147      BB5B4FC5 
 148 07e6 9AD216AF 		.ascii	"\232\322\026\257z\366\330\231\204\313\363y\2459\206"
 148      7AF6D899 
 148      84CBF379 
 148      A53986
 149 07f5 C0CB44CD 		.ascii	"\300\313D\315\275\205:;\342\225\322\234\"\177\240\035"
 149      BD853A3B 
 149      E295D29C 
 149      227FA01D 
 150 0805 B1747BE1 		.ascii	"\261t{\341\206|_noo~\300aA\367\334\204\362ZyN\224E\347"
 150      867C5F6E 
 150      6F6F7EC0 
 150      6141F7DC 
 150      84F25A79 
 151 081d FAFCC8C3 		.ascii	"\372\374\310\303zI\211\324\366\024$\301\222\356\271"
 151      7A4989D4 
 151      F61424C1 
 151      92EEB9
 152 082c 09655979 		.ascii	"\011eYyN\224\025\242T\337\253;)=\237>\303\304\323\232"
 152      4E9415A2 
 152      54DFAB3B 
 152      293D9F3E 
 152      C3C4D39A 
 153 0840 E7268C98 		.ascii	"\347&\214\230\362\234\0306O\360\334$2\300\245\347\024"
 153      F29C1836 
 153      4FF0DC24 
 153      32C0A5E7 
 153      14
 154 0851 99CDB1EC 		.ascii	"\231\315\261\354\321H\337+\331i\253\002\266\270\352"
 154      D148DF2B 
 154      D969AB02 
 154      B6B8EA
 155 0860 0F724D7D 		.ascii	"\017rM}\023J\016\227\352\023%D\224\375;\333\232\324"
 155      134A0E97 
 155      EA132544 
 155      94FD3BDB 
ARM GAS  /tmp/ccpfLaBf.s 			page 12


 155      9AD4
 156 0872 A789D955 		.ascii	"\247\211\331U]\014\266s\307\306\021)\377\244.\377ss"
 156      5D0CB673 
 156      C7C61129 
 156      FFA42EFF 
 156      7373
 157 0884 F973397A 		.ascii	"\371s9z\332\323\3260\244\344oG\371\363\342q\036\345"
 157      DAD3D630 
 157      A4E46F47 
 157      F9F3E271 
 157      1EE5
 158 0896 CFE71EE4 		.ascii	"\317\347\036\344/\340o\226?\352\310_H\263\363#\027\371"
 158      2FE06F96 
 158      3FEAC85F 
 158      48B3F323 
 158      17F9
 159 08a8 777029FF 		.ascii	"wp)\377N\356*\377#!\277\250\010\207\352.\377.\216\362"
 159      4EEE2AFF 
 159      2321BFA8 
 159      0887EA2E 
 159      FF2E8EF2 
 160 08bc 17711CEA 		.ascii	"\027q\034\352\324\322\331\247qo\247\304l\254-_\260q"
 160      D4D2D9A7 
 160      716FA7C4 
 160      6CAC2D5F 
 160      B071
 161 08ce 6822E113 		.ascii	"h\"\341\023\371b.\345\307\020(\341\011\362{\013u\366"
 161      F9622EE5 
 161      C71028E1 
 161      09F27B0B 
 161      75F6
 162 08e0 C46E2EE5 		.ascii	"\304n.\345\247\310=\264'\032g\347\033\245\226\231\260"
 162      A7C83DB4 
 162      271A67E7 
 162      1BA59699 
 162      B0
 163 08f1 976BE29B 		.ascii	"\227k\342\233\020\366q)>\021J\211\260\363\372t\304\247"
 163      10F67129 
 163      3E114A89 
 163      B0F3FA74 
 163      C4A7
 164 0903 FE0B8427 		.ascii	"\376\013\204'\3702\256\211oB)\347R|\242\354\027S\023"
 164      F832AE89 
 164      6F4229E7 
 164      527CA2EC 
 164      175313
 165 0916 F7019C49 		.ascii	"\367\001\234I\344\001.=\247\310\203\211\236\233D\036"
 165      E4012E3D 
 165      A7C88389 
 165      9E9B441E 
 166 0926 529E5364 		.ascii	"R\236Sd\005O8\237\233D\036VRSd\245\214D\245\242\322"
 166      054F389F 
 166      9B441E56 
 166      525364A5 
 166      8C44A5A2 
 167 093b 60DC8E6B 		.ascii	"`\334\216k\006\347\343\235g\370/\260?\321~\306\333\214"
 167      06E7E39D 
ARM GAS  /tmp/ccpfLaBf.s 			page 13


 167      67F82FB0 
 167      3FD17EC6 
 167      DB8C
 168 094d D8A7C5FD 		.ascii	"\330\247\305\375\026\263\254\3677o\316r\276\266~\221"
 168      16B3ACF7 
 168      376FCE72 
 168      BEB67E91 
 169 095d F5CF4FFE 		.ascii	"\365\317O\376\235\365\267\255\237\374\367\357_d\375"
 169      9DF5B7AD 
 169      9FFCF7EF 
 169      5F64FD
 170 096c EECF7FF8 		.ascii	"\356\317\177\370\353\037\177\373\033\347\356\346O-\337"
 170      EB1F7FFB 
 170      1BE7EEE6 
 170      4F2DDF
 171 097b 679F6FD9 		.ascii	"g\237o\331\372\271\377\323\255\377\371\307\226\317\376"
 171      FAB9FFD3 
 171      ADFFF9C7 
 171      96CFFE
 172 098a 0732A252 		.ascii	"\0072\242R["
 172      5B
 173              		.text
 174              		.section	.gnu.lto___early_init.4c04b26da233c93,"",%progbits
 175 0000 789C6361 		.ascii	"x\234ca`d\000\201\253@\254\011\304\322@\314\310\314"
 175      60640081 
 175      AB40AC09 
 175      C4D240CC 
 175      C8CC
 176 0012 C0C834E1 		.ascii	"\300\3104\341\034\003C#\007\023##\210\321\300\301\310"
 176      1C034323 
 176      07132323 
 176      88D1C0C1 
 176      C8
 177 0023 50CFC458 		.ascii	"P\317\304X\317\370\225\351/\023\343\241\366g;\2314\227"
 177      CFF895E9 
 177      2F13E3A1 
 177      F6673B99 
 177      3497
 178 0035 3700C183 		.ascii	"7\000\301\203\243\257\014\033V\034`lef`\370\317\004"
 178      A3AF0C1B 
 178      561C606C 
 178      656660F8 
 178      CF04
 179 0047 36898171 		.ascii	"6\211\201q9\243&\003P\331\243\215\377\246\362\262\265"
 179      39A32603 
 179      50D9A38D 
 179      FFA6F2B2 
 179      B5
 180 0058 80942940 		.ascii	"\200\224)@$\031W0\262\201\254[\037t\240\341\377\377"
 180      24195730 
 180      B281AC5B 
 180      1F74A0E1 
 180      FFFF
 181 006a E68686CF 		.ascii	"\346\206\206\317\006\353\324Y\030\030>\000%A\326|db"
 181      06EBD459 
 181      18183E00 
 181      2541D67C 
ARM GAS  /tmp/ccpfLaBf.s 			page 14


 181      6462
 182 007c 02D1CC2F 		.ascii	"\002\321\314/\030\233\017\334<\307\010R\0162h\347\316"
 182      189B0FDC 
 182      3CC70852 
 182      0E3268E7 
 182      CE
 183 008d 37B7D9EB 		.ascii	"7\267\331\353\3776t44\010\26423\376g\002\232\301\270"
 183      FF367434 
 183      3408B432 
 183      33FE6702 
 183      9AC1B8
 184 00a0 92B19EA1 		.ascii	"\222\261\236\241\225\231\211\001\244\366\026\037N\245"
 184      95998901 
 184      A4F6161F 
 184      4EA5
 185 00ae 40931957 		.ascii	"@\223\031WA\225\276bl:p\327\017\254\024\004>\000\315"
 185      4195BE62 
 185      6C3A70D7 
 185      0FAC1404 
 185      3E00CD
 186 00c1 01DA0654 		.ascii	"\001\332\006T\241\256\247\247\017A\371\305\372\031\211"
 186      A1AEA7A7 
 186      0F41F9C5 
 186      FA1989
 187 00d0 39FA49F9 		.ascii	"9\372I\371\211E)\305\372\316\376>\241\276N\216\020\256"
 187      894529C5 
 187      FACEFE3E 
 187      A1BE4E8E 
 187      10AE
 188 00e2 5E320300 		.ascii	"^2\003\000\000\332Z\037"
 188      00DA5A1F 
 189              		.text
 190              		.section	.gnu.lto_boardInit.4c04b26da233c93,"",%progbits
 191 0000 789C6361 		.ascii	"x\234ca`d\000\201j \326\004bi fdf`d\232p\216\201\241"
 191      60640081 
 191      6A20D604 
 191      62692066 
 191      64666064 
 192 0019 91838991 		.ascii	"\221\203\211\221\021\304h\340`d\250gb\254g\374\312\364"
 192      11C468E0 
 192      6064A867 
 192      62AC67FC 
 192      CAF4
 193 002b 9789F150 		.ascii	"\227\211\361P\373\263\235L\232\313\033\200\340A\353"
 193      FBB39D4C 
 193      9ACB1B80 
 193      E041EB
 194 003a 32A38615 		.ascii	"2\243\206\025\007\030[\231\031\030\3763\201Mb`\\\316"
 194      07185B99 
 194      1918FE33 
 194      814D6260 
 194      5CCE
 195 004c A8C90054 		.ascii	"\250\311\000T\366h\343\277\251\274l- e\012\020I\306"
 195      F668E3BF 
 195      A9BC6C2D 
 195      20650A10 
 195      49C6
ARM GAS  /tmp/ccpfLaBf.s 			page 15


 196 005e 158C6C20 		.ascii	"\025\214l \353\326\007\035h\370\377\277\271\241\341"
 196      EBD6071D 
 196      68F8FFBF 
 196      B9A1E1
 197 006d AEC12C4D 		.ascii	"\256\301,M\240\304\007 \006Y\363\221\211\011D3\277b"
 197      A0C40720 
 197      0659F391 
 197      89094433 
 197      BF62
 198 007f 64022905 		.ascii	"d\002)\005\233\366\201\211\021$\006T\241\256\247\247"
 198      9BF68189 
 198      11240654 
 198      A1AEA7A7 
 199 008f 0F41F9C5 		.ascii	"\017A\371\305\372\031\2119\372I\371\211E)\305\372\316"
 199      FA198939 
 199      FA49F989 
 199      4529C5FA 
 199      CE
 200 00a0 FE3EA1BE 		.ascii	"\376>\241\276N\216\020\256^2\003\000\256\3268="
 200      4E8E10AE 
 200      5E320300 
 200      AED6383D 
 201              		.text
 202              		.section	.gnu.lto_.symbol_nodes.4c04b26da233c93,"",%progbits
 203 0000 789C55C8 		.ascii	"x\234U\310K\015\205\000\014\005\321\271-Bx\272\020\323"
 203      4B0D8500 
 203      0C05D1B9 
 203      2D4278BA 
 203      10D3
 204 0012 4AC002B8 		.ascii	"J\300\002\270\340\255\331\360\011\032PBhHX0\233IN\203"
 204      E0ADD9F0 
 204      091A5042 
 204      68485830 
 204      9B494E83 
 205 0026 E8A86CB1 		.ascii	"\350\250l\261\200\376\200\332\224Cz\331j\241\327\376"
 205      80FE80DA 
 205      94437AD9 
 205      6AA1D7FE 
 206 0036 F92BD92C 		.ascii	"\371+\331,\354#\332-\374\021\310l\301\005\343y\311\345"
 206      EC23DA2D 
 206      FC11C86C 
 206      C105E379 
 206      C9E5
 207 0048 CC756E56 		.ascii	"\314unVo\027\363"
 207      6F17F3
 208              		.text
 209              		.section	.gnu.lto_.refs.4c04b26da233c93,"",%progbits
 210 0000 789C6361 		.ascii	"x\234ca`\004B \000\000\0009\000\007"
 210      60044220 
 210      00000039 
 210      0007
 211              		.text
 212              		.section	.gnu.lto_.decls.4c04b26da233c93,"",%progbits
 213 0000 789CCD59 		.ascii	"x\234\315YkPTG\026\236\276=3\014\303\000\026\270[\371"
 213      6B505447 
 213      169EBE3D 
 213      330CC300 
ARM GAS  /tmp/ccpfLaBf.s 			page 16


 213      16B85BF9 
 214 0014 61B65229 		.ascii	"a\266R)\326P[\245#h\254\375\261?\242\200bb\"5\230l%"
 214      D6505BA5 
 214      2368ACFD 
 214      B13FA280 
 214      62622235 
 215 002b 7F088131 		.ascii	"\177\010\2011R\313\303\2051\245\273\373\343\362P\036"
 215      52CBC385 
 215      31A5BBFB 
 215      E3F2501E 
 216 003b 46E5E19B 		.ascii	"F\345\341\233\207\212DAP\020E@\021G\324\021E\024%\242"
 216      878A4441 
 216      50104540 
 216      1147D411 
 216      451425A2 
 217 004f 08C82882 		.ascii	"\010\310(\202\370\346\241\362PtOw\337\231{\3472l\231"
 217      F8E6A1F2 
 217      50744F77 
 217      DF997BE7 
 217      326C99
 218 0062 DAFDB153 		.ascii	"\332\375\261S\234\351>\267\277\373\235\323\247\317\351"
 218      9CE93EB7 
 218      BFFB9DD3 
 218      A7CFE9
 219 0071 DB97512A 		.ascii	"\333\227Q*\220\202|v~\250P\270)\025\212\277\200\372"
 219      90827C76 
 219      7EA850B8 
 219      29158ABF 
 219      80FA
 220 0083 0E3ED055 		.ascii	"\016>\320U|\243\020?D?\004R\016r\004\344\250b\362\207"
 220      7CA3103F 
 220      443F0452 
 220      0E7204E4 
 220      A862F287 
 221 0097 8CBB0BF7 		.ascii	"\214\273\013\367}\002\362!p\315\000\251\207\276\027"
 221      7D02F221 
 221      70CD00A9 
 221      87BE17
 222 00a6 C8749065 		.ascii	"\310t\220e\240\257\000I\004\341A\222@\276Bl|\032\264"
 222      A0AF0049 
 222      04E14192 
 222      40BE426C 
 222      7C1AB4
 223 00b9 2E20D341 		.ascii	". \323A\022@\226\200,\002\011\004\011\000\011\002\371"
 223      12409680 
 223      2C020904 
 223      09000902 
 223      F9
 224 00ca 1C6421C8 		.ascii	"\034d!\310j\020\023\310\277@\376\001\262\006\344'\220"
 224      6A1013C8 
 224      BF40FE01 
 224      B206E427 
 224      90
 225 00db B5209CE0 		.ascii	"\265 \234\340K*\364\311\354\322\221\243\237d\016X\360"
 225      4B2AF4C9 
 225      ECD291A3 
 225      9F640E58 
ARM GAS  /tmp/ccpfLaBf.s 			page 17


 225      F0
 226 00ec 3303C6CA 		.ascii	"3\003\306\312\204\353X\030;4\305\374\310\274\221$.H"
 226      84EB5818 
 226      3B34C5FC 
 226      C8BC9124 
 226      2E48
 227 00fe B826FF4C 		.ascii	"\270&\377Lp\350T\353\353+\312\016\324\216\300\0274\215"
 227      70E854EB 
 227      EB2BCA0E 
 227      D48EC017 
 227      348D
 228 0110 A111FB46 		.ascii	"\241\021\373FT\024L\250\012\035N!\370j\273\204l@A\347"
 228      54144CA8 
 228      0A1D4E21 
 228      F86ABB84 
 228      6C4041E7 
 229 0124 6C5D859D 		.ascii	"l]\205\235\214\376\011\367\3235\243\037J\"\262#\341"
 229      8CFE09F7 
 229      D335A31F 
 229      4A22B223 
 229      E1
 230 0135 26A6DBFC 		.ascii	"&\246\333\374F\202\316\211\006\020Sm7H\370\230\273\002"
 230      4682CE89 
 230      0610536D 
 230      3748F898 
 230      BB02
 231 0147 9DE8B37D 		.ascii	"\235\350\263}N\3106\351\347on\326`\314!\322\357\036"
 231      4EC836E9 
 231      E76F6ED6 
 231      60CC21D2 
 231      EF1E
 232 0159 2B5E34BB 		.ascii	"+^4\273\214\207O&\317s\177\022#s-\245\"\017\277\340"
 232      8C874F26 
 232      CF737F12 
 232      23732DA5 
 232      220FBFE0 
 233 016d 90971629 		.ascii	"\220\227\026)A\035l\336\325\343\001\352t-\372\010\324"
 233      411D6CDE 
 233      D5E301EA 
 233      742DFA08 
 233      D4
 234 017e 898BB9BB 		.ascii	"\211\213\271\273\270\017\266\321\373\222\371\217\224"
 234      B80FB6D1 
 234      FB92F98F 
 234      94
 235 018b E89BDFA3 		.ascii	"\350\233\337\243R4\003\035D3\300P\031\372\000\276\177"
 235      5234031D 
 235      4433C050 
 235      19FA00BE 
 235      7F
 236 019c 5032A6F2 		.ascii	"P2\246\362W\231M\232\217\367\360\346\012\336:\322\377"
 236      57994D9A 
 236      8FF7F0E6 
 236      0ADE3AD2 
 236      FF
 237 01ad BBFC4A9E 		.ascii	"\273\374J\236O\207\373\224\004\206\212\021F%h6q\017"
 237      4F87FB94 
ARM GAS  /tmp/ccpfLaBf.s 			page 18


 237      04868A11 
 237      46256836 
 237      710F
 238 01bf BAA43980 		.ascii	"\272\2449\200:\300\357C\350cb\365\351\346+\2368\200"
 238      3AC0EF43 
 238      E86362F5 
 238      E9E62B9E 
 238      3880
 239 01d1 7A9ABA6B 		.ascii	"z\232\272kb\273\033\320\354\251\340\31576\341\235\274"
 239      62BB1BD0 
 239      ECA9E0CD 
 239      3736E19D 
 239      BC
 240 01e2 39055838 		.ascii	"9\005X8\312rXd9,e)\247,\227\373\272\376\211C(I\337\335"
 240      CA725864 
 240      392C6529 
 240      A72C97FB 
 240      BAFE8943 
 241 01fa BC6F81A3 		.ascii	"\274o\201\243\0028*\256\353\370\314D\236\377\2142T\210"
 241      02382AAE 
 241      EBF8CC44 
 241      9EFF8C32 
 241      5488
 242 020c 0C155286 		.ascii	"\014\025R\206#\224\201\357?\331\351\211\277\243\024"
 242      239481EF 
 242      3FD9E989 
 242      BFA314
 243 021b C7CB8F0E 		.ascii	"\307\313\217\016\273\003\207\225\347\255\325\251a\365"
 243      BB038795 
 243      E7ADD5A9 
 243      61F5
 244 0229 15F7F934 		.ascii	"\025\367\3714/:gT)\222TR\022\350\034\245\004\303\347"
 244      2F3A6754 
 244      29925452 
 244      12E81CA5 
 244      04C3E7
 245 023c 8A873D59 		.ascii	"\212\207=Y43\021\350\365o\037_r\303\205\2102v5\226\224"
 245      343311E8 
 245      F56F1F5F 
 245      72C38588 
 245      32763596 
 246 0251 92507FA2 		.ascii	"\222P\177\242Ed%=I\314\236\324\216\271\263K\004q}\363"
 246      4564253D 
 246      49CC9ED4 
 246      8EB9B34B 
 246      04717DF3 
 247 0265 50910B2E 		.ascii	"P\221\013.\245p\316\262\361h\245\033\362\325\356'\321"
 247      A570CEB2 
 247      F168A51B 
 247      F2D5EE27 
 247      D1
 248 0276 B7763505 		.ascii	"\267v5\005f\245\2228\234@ZT#:\360\211\026\276\323x>"
 248      66A59238 
 248      9C405A54 
 248      233AF089 
 248      16BED378 
 249 028b 892C9057 		.ascii	"\211,\220W\243\207\302\276>\250\026\371\022b\002D\325"
ARM GAS  /tmp/ccpfLaBf.s 			page 19


 249      A387C2BE 
 249      3EA816F9 
 249      12620244 
 249      D5
 250 029c 70F1385C 		.ascii	"p\3618\\\004#%EY\205j\234G\363\202\333y\354\340\210"
 250      04232545 
 250      59856A9C 
 250      47F382DB 
 250      79ECE088 
 251 02b0 D66E2437 		.ascii	"\326n$7g\036\344\3104t\012l\234\024m\200\311)\215\324"
 251      671EE4C8 
 251      34740A6C 
 251      9C146D80 
 251      C9298DD4 
 252 02c4 3937D272 		.ascii	"97\322r \255\005k\341\226\344\367\276\245\254\371B\247"
 252      20AD056B 
 252      E196E4F7 
 252      BEA5ACF9 
 252      42A7
 253 02d6 90896924 		.ascii	"\220\211i$v\373[w\015\2521\217id\366\354hL\342p\032"
 253      76FB5B77 
 253      0DAA318F 
 253      6964F6EC 
 253      684CE270 
 254 02eb 538EF75D 		.ascii	"S\216\367]\264h\031\222'\310\242\032\353\033\204s\330"
 254      B4681992 
 254      27C8A21A 
 254      EB1B8473 
 254      D8
 255 02fc A0D9F2F3 		.ascii	"\240\331\362\363S\204\013\230\222v7\265U@\216\022}\327"
 255      53840B98 
 255      927637B5 
 255      55408E12 
 255      7DD7
 256 030e C9179754 		.ascii	"\311\027\227TL\327\200Z\375\254\264\332\235e\273\231"
 256      4CD7805A 
 256      FDACB4DA 
 256      9D65BB99 
 257 031e 0CBF6B18 		.ascii	"\014\277k\030\271\345\216\213\330\275U\371m\005nd\012"
 257      B9E58E8B 
 257      D8BD55F9 
 257      6D056E64 
 257      0A
 258 032f BC300572 		.ascii	"\2740\005r\227\230\374\027IP\220~\006\232C\275\317m"
 258      9798FC17 
 258      4950907E 
 258      069A43BD 
 258      CF6D
 259 0341 7F5BE1E9 		.ascii	"\177[\341\351\225I\321f\3763\023\215\341\005@[(\372"
 259      9549D166 
 259      FE33138D 
 259      E105405B 
 259      28FA
 260 0353 12F2B2DD 		.ascii	"\022\362\262\335C\015=l\337\347\312\374\030 \372\366"
 260      430D3D6C 
 260      DFE7CAFC 
 260      1820FAF6 
ARM GAS  /tmp/ccpfLaBf.s 			page 20


 261 0363 DA7B031E 		.ascii	"\332{\003\036\37003\234u\366\345\260\033\256dJg\341"
 261      F830339C 
 261      75F6E5B0 
 261      1BAE644A 
 261      67E1
 262 0375 965F940C 		.ascii	"\226_\224\014\331O\364\3747oR\224\270\232\015&\235l"
 262      D94FF4FC 
 262      376F5294 
 262      B89A0D26 
 262      9D6C
 263 0387 CF12D2CD 		.ascii	"\317\022\322\315J\363')\247H\215\317\260\301\327\317"
 263      4AF32729 
 263      A7488DCF 
 263      B0C1D7CF 
 264 0397 0E0CA871 		.ascii	"\016\014\250q\023S\252\357n=-\030\274E\364\263\303y"
 264      1353AAEF 
 264      6E3D2D18 
 264      BC45F4B3 
 264      C379
 265 03a9 833A7C83 		.ascii	"\203:|\203\015\256+\372\365g\027\334\315\224\326\276"
 265      0DAE2BFA 
 265      F56717DC 
 265      CD94D6BE 
 266 03b9 BD293A86 		.ascii	"\275):\206l!\372p\307F\213\016?d\203\347\032{Z5x\230"
 266      6C21FA70 
 266      C7468B0E 
 266      3F6483E7 
 266      1A7B5A35 
 267 03cf 291BCE57 		.ascii	")\033\316WY\204\005k$zb\177E*\306\023\202A!\264^Bh\007"
 267      5984056B 
 267      247A627F 
 267      452AC613 
 267      824121B4 
 268 03e7 5BCE66B8 		.ascii	"[\316f\270\342T%\035lN\317\336\312\341\315L)\356\313"
 268      E254251D 
 268      6C4ECFDE 
 268      CAE1CD4C 
 268      29EECB
 269 03fa DB2418FC 		.ascii	"\333$\030\3743\011M\356@\276\016ogcu\373\326\225h\360"
 269      33094DEE 
 269      40BE0E6F 
 269      676375FB 
 269      D69568F0 
 270 040e 5EA69CAC 		.ascii	"^\246\234\254\256\263\010\2137\007\324\224+\033;u\270"
 270      AEB3088B 
 270      3707D494 
 270      2B1B3B75 
 270      B8
 271 041f 848D1DEE 		.ascii	"\204\215\035\356O5\273\340#L\311\035\356z(L\326\227"
 271      4F35BBE0 
 271      234CC91D 
 271      EE7A284C 
 271      D697
 272 0431 90348F95 		.ascii	"\2204\217\225y\340Z6f\333\340\274\330\006W\327Q\245"
 272      79E05A36 
 272      66DBE0BC 
 272      D80657D7 
ARM GAS  /tmp/ccpfLaBf.s 			page 21


 272      51A5
 273 0443 C767D9D0 		.ascii	"\307g\331\320\336\376\332\034O|\231)\317Rz\255n\014"
 273      DEFEDA1C 
 273      4F7C9929 
 273      CF527AAD 
 273      6E0C
 274 0455 F701A877 		.ascii	"\367\001\250w\273\036dx\340\033ll\375\351\255\247\\"
 274      BB1E6478 
 274      E01B6C6C 
 274      FDE9ADA7 
 274      5C
 275 0466 713753AE 		.ascii	"q7S\256\017\\\316\027\200\323H\204\254w\020\356gC\217"
 275      0F5CCE17 
 275      80D34884 
 275      AC7710EE 
 275      67438F
 276 0479 33CCED1C 		.ascii	"3\314\355\034\036dJI\355\306\273*<\316\224\236\352\224"
 276      1E644A49 
 276      EDC6BB2A 
 276      3CCE949E 
 276      EA94
 277 048b 574AFC96 		.ascii	"WJ\374\226)\245o\012Z\\q\262\212*-'\254\275\036x\003"
 277      29A56F0A 
 277      5A5C71B2 
 277      8A2A2D27 
 277      ACBD1E78 
 278 04a0 532E266D 		.ascii	"S.&m< \204f\007I\364g\333*\033\324B\276\272\202\376"
 278      3C208466 
 278      0749F467 
 278      DB2A1BD4 
 278      42BEBA82 
 279 04b5 68434191 		.ascii	"hCA\221\022o\242`\237\376m\233\267\251\221\317\324\037"
 279      126FA260 
 279      9FFE6D9B 
 279      B7A991CF 
 279      D41F
 280 04c7 5F1F6FD6 		.ascii	"_\037o\326)\244\305\336\375h\345\216}\227x~O\003\"\351"
 280      29A4C5DE 
 280      FD68E58E 
 280      7D97787E 
 280      4F0322E9 
 281 04db 897AA1E0 		.ascii	"\211z\241\340s8o{\322\242\3734s\375\340KQ\310\247$\363"
 281      73386F7B 
 281      D2A2FB34 
 281      73FDE04B 
 281      51C8A724 
 282 04f0 E6EB2BC8 		.ascii	"\346\353+\310n\214Q=\244\366u\001m\257\352\0269:[\202"
 282      6E8C513D 
 282      A4F67501 
 282      6DAFEA16 
 282      393A5B82 
 283 0504 7E2C473F 		.ascii	"~,G?\224\242\341c\356\\\221H\321\304\223F\271'\347\345"
 283      94A2E163 
 283      EE5C9148 
 283      D1C49346 
 283      B927E7E5 
 284 0518 DC7724DC 		.ascii	"\334w$\334\347\344\334\015r\3566\011\367U9\367\0259"
ARM GAS  /tmp/ccpfLaBf.s 			page 22


 284      E7E4DC0D 
 284      72EE3609 
 284      F75539F7 
 284      1539
 285 052a F76884C8 		.ascii	"\367h\204\310=(\347\326\023p)\022\321\267$\2364\313"
 285      3D28E7D6 
 285      13702912 
 285      D1B7249E 
 285      34CB
 286 053c D14D72EE 		.ascii	"\321Mr\356L\011\372\251\034\375\004\311\311\207$\360"
 286      4C09FAA9 
 286      1CFD04C9 
 286      C98724F0 
 287 054c 3372F869 		.ascii	"3r\370i9y\201\004}O\216\276;\211\374\230\004\336%\207"
 287      39798104 
 287      7D4F8EBE 
 287      3B89FC98 
 287      04DE2587 
 288 0560 774C8A8A 		.ascii	"wL\212\212\004\375R\216>\346@\016\217\011\363\026\001"
 288      04FD528E 
 288      3EE6400E 
 288      8F09F316 
 288      01
 289 0571 4E76C147 		.ascii	"Nv\301G\316\027_\352\313+\011{\225sv?\221\274RB\336"
 289      CE175FEA 
 289      CB2B097B 
 289      9573763F 
 289      91BC5242 
 290 0586 2D47DF99 		.ascii	"-G\337\231D\376F\262\240\317\345p\313$x\236\304\227"
 290      44FE46B2 
 290      A0CFE570 
 290      CB24789E 
 290      C497
 291 0598 1EE76194 		.ascii	"\036\347a\224\304\245B\202\266:\367E\202\276-A_v\236"
 291      C4A54282 
 291      B63AF745 
 291      82BE2D41 
 291      5F769E
 292 05ab 2D52575E 		.ascii	"-RW^H\340f\347\353/\205\327I\3407\345\360\266I\360m"
 292      48E066E7 
 292      EB2F85D7 
 292      49E037E5 
 292      F0B649F0 
 293 05c0 1278BF1C 		.ascii	"\022x\277\034\336'w}\207\004\375\3009ZJ>.\011\372\200"
 293      DE27777D 
 293      8704FDC0 
 293      395A4A3E 
 293      2E09FA80 
 294 05d4 F3A04BC8 		.ascii	"\363\240K\310\217K\310;\235\347\242\224\374\255\204"
 294      8F4BC83B 
 294      9DE7A294 
 294      FCAD84
 295 05e3 FC99F332 		.ascii	"\374\231\3632\242\344\364Tc\036\356\011\206\363\037"
 295      A2E4F454 
 295      631EEE09 
 295      86F31F
 296 05f2 22288570 		.ascii	"\"(\205p\244Q\330s\351Z_pv2\3378\207&\323\257r\256V"
ARM GAS  /tmp/ccpfLaBf.s 			page 23


 296      A451D873 
 296      E95A5F70 
 296      7632DF38 
 296      8726D3AF 
 297 0609 89E92CE1 		.ascii	"\211\351,\341\364\314#\223\002\275\000\3040\035$x E"
 297      F4CC2393 
 297      02BD00C4 
 297      301D2478 
 297      2045
 298 061b 599C2FDA 		.ascii	"Y\234/\332\306\371\2407\310\007m\202v=H&\310[\320GA"
 298      C6F9A037 
 298      C8076D82 
 298      763D4826 
 298      C85BD047 
 299 0630 92A1FF33 		.ascii	"\222\241\3773\310F\220W\240\247B\313\203\244\201\254"
 299      C8469057 
 299      A0A742CB 
 299      83A481AC 
 300 0640 034904D9 		.ascii	"\003I\004\331\014\262\023d\013\310\006\220\355 \331"
 300      0CB21364 
 300      0BC80690 
 300      ED20D9
 301 064f 202380DF 		.ascii	" #\200\337\012\355kh'@\322\241?\006\3558\310\016\350"
 301      0AED6B68 
 301      2740D2A1 
 301      3F06ED38 
 301      C80EE8
 302 0662 BF833603 		.ascii	"\277\2036\003\332\024\220$\316G\230\036\211\324\011"
 302      DA149024 
 302      CE47981E 
 302      89D409
 303 0671 49606F39 		.ascii	"I`o9O\011\3112\374*A_s\276\301;T\255d\031\206\234\356"
 303      4F09C932 
 303      FC2A415F 
 303      73BEC13B 
 303      54AD6419 
 304 0688 9412EE7A 		.ascii	"\224\022\356z\011\367\015\347q\226\240\007$\350\263"
 304      09F70DE7 
 304      7196A007 
 304      24E8B3
 305 0697 CE3778FB 		.ascii	"\3167x\373v\003K\\#\331\341o\313w\370v\221\034\236\231"
 305      76034B5C 
 305      23D9E16F 
 305      CB77F876 
 305      911C9E99 
 306 06ab 2FCBCABA 		.ascii	"/\313\312\272\334\360%\372\314\344\206\036\234\315\367"
 306      DCF025FA 
 306      CCE4861E 
 306      9CCDF7
 307 06ba 40BEDE2C 		.ascii	"@\276\336,Q^\367}\300\363\032\224\0077\357\342\354\247"
 307      515EF77D 
 307      C0F31A94 
 307      0737EFE2 
 307      ECA7
 308 06cc 5F923653 		.ascii	"_\2226S\254>\312\205E\377\177M\000\230k\345DA\203F\227"
 308      AC3ECA85 
 308      45FF7F4D 
ARM GAS  /tmp/ccpfLaBf.s 			page 24


 308      00986BE5 
 308      44418346 
 309 06e1 211EDCE9 		.ascii	"!\036\334\351\334\3043l>\247\243//\320\002\272\342\335"
 309      DCC4336C 
 309      3EA7A32F 
 309      2FD002BA 
 309      E2DD
 310 06f3 16AB3B6E 		.ascii	"\026\253;ncG\217{I\307\032\335q\007S6nihP\342\273L\331"
 310      63478F7B 
 310      49C71ADD 
 310      71075336 
 310      6E696850 
 311 070b B7332B55 		.ascii	"\2673+U\205\373\230R\222\235Y\241\305\375*\207\243\320"
 311      85FB9852 
 311      929D59A1 
 311      C5FD2A87 
 311      A3D0
 312 071d 7476143A 		.ascii	"tv\024:\377n\304,\234N9Pw\034\2749\356\212\0371\350"
 312      FF6EC42C 
 312      9C4E3950 
 312      771CBC39 
 312      EE8A1F31 
 313 0732 2FE3AF07 		.ascii	"/\343\257\007\310\331q&y\027\302\2227\241\231\354M\350"
 313      C8D97126 
 313      7917C292 
 313      37A199EC 
 313      4DE8
 314 0744 74D3C5FD 		.ascii	"t\323\305\375:<\300V\251\310\234\264\016!\255/}\003"
 314      3A3CC056 
 314      A9C89CB4 
 314      0E21AD2F 
 314      7D03
 315 0756 81370A6D 		.ascii	"\2017\012m1\274N\354\343f\240\"\016\326\340 \304}\246"
 315      31BC4EEC 
 315      E366A022 
 315      0ED6E020 
 315      C47DA6
 316 0769 F03A7100 		.ascii	"\360:q\000.\356\207\213\266w\246Y\265\344u\246\204\323"
 316      2EEE878B 
 316      B677A659 
 316      B5E475A6 
 316      84D3
 317 077b A2627141 		.ascii	"\242bqAg\012\207\360\372\254\216>-~\315l\224\014\\."
 317      670A87F0 
 317      FAAC8E3E 
 317      2D7ECD6C 
 317      940C5C2E 
 318 078f F39CD2C6 		.ascii	"\363\234\322\306\241)m\344\346\314\244\257Le`\243T\264"
 318      A1296DE4 
 318      E6CCA4AF 
 318      4C6560A3 
 318      54B4
 319 07a1 01269991 		.ascii	"\001&\231\221\244\321\302:\015NQ\023#\312C[\332w\303"
 319      A4D1C23A 
 319      0D4E5113 
 319      23CA435B 
 319      DA77C3
ARM GAS  /tmp/ccpfLaBf.s 			page 25


 320 07b4 11CDDBC7 		.ascii	"\021\315\333\307\227n>\326#C\337\347\016\301\013f\206"
 320      976E3ED6 
 320      2343DFE7 
 320      0EC10B66 
 320      86
 321 07c5 8EDE7F18 		.ascii	"\216\336\177\030\356\257\200\005\262\233\025"
 321      EEAF8005 
 321      B29B15
 322 07d0 6B284B78 		.ascii	"k(Kx\261\340Q\274B\262\200\025B\356U\202\177\345\260"
 322      B1E051BC 
 322      42B28015 
 322      42EE5582 
 322      7FE5B0
 323 07e3 F647ECC5 		.ascii	"\366G\354\305O\366\266\361\365:\276\345{J\375\213Sj"
 323      4FF6B6F1 
 323      F53ABEE5 
 323      7B4AFD8B 
 323      536A
 324 07f5 D0ECBBE4 		.ascii	"\320\354\273\344\210\205#\311_\341\270I\202\323\205"
 324      888523C9 
 324      5FE1B849 
 324      82D385
 325 0804 8596A31A 		.ascii	"\205\226\243\0324\035\316\217\331\302\273\020\255\001"
 325      341DCE8F 
 325      D9C2BB10 
 325      AD01
 326 0812 D189A3DC 		.ascii	"\321\211\243\334t\352\304qp\242\012\2348&:\001\274\023"
 326      74EAC471 
 326      70A20A9C 
 326      38263A01 
 326      BC13
 327 0824 160CB599 		.ascii	"\026\014\265\231\304\314\027\202\033\004\356t\227 ."
 327      C4CC1782 
 327      1B04EE74 
 327      97202E
 328 0833 BFB4CC10 		.ascii	"\277\264\314\020\237\355{\247F\013;\373z\017\3423`\034"
 328      9FED7BA7 
 328      460B3BFB 
 328      7A0FE233 
 328      601C
 329 0845 7D46CF87 		.ascii	"}F\317\207r\333<\247\203\277\211S\373\253pp\226\274"
 329      72DB3CA7 
 329      83BF8953 
 329      FBAB7070 
 329      96BC
 330 0857 509CBD51 		.ascii	"P\234\275Q\245\303\247\350R\241\336\246\362$\015>\303"
 330      A5C3A7E8 
 330      52A1DEA6 
 330      F2240D3E 
 330      C3
 331 0868 9482E6C3 		.ascii	"\224\202\346\303M*|\236)'K\017_\347p\023S\312j\0076"
 331      4D2A7C9E 
 331      29274B0F 
 331      5FE77013 
 331      53CA6A07 
 332 087d 20DCCA94 		.ascii	" \334\312\224\301\324r\023\276\315\372\233[vwh\204\243"
 332      C1D47213 
ARM GAS  /tmp/ccpfLaBf.s 			page 26


 332      BECDFA9B 
 332      5B767768 
 332      84A3
 333 088f 3AC9FED1 		.ascii	":\311\376\321\275\367\2639l\245\203\272\272\243\217"
 333      BDF7B339 
 333      6CA583BA 
 333      BAA38F
 334 089e 77699178 		.ascii	"wi\221x.\367\361f\273^\267m\366d\333\253\205\3317M\361"
 334      2EF7F166 
 334      BB5EB76D 
 334      F664DBAB 
 334      85D9374D 
 335 08b3 60033804 		.ascii	"`\0038\004\365\235\205c\360j\230\321\0369\374\241|O"
 335      F59D8563 
 335      F06A98D1 
 335      1E39FCA1 
 335      7C4F
 336 08c5 BD29653F 		.ascii	"\275)e?%\207\313\367\353\001\213\216\317\014\247\330"
 336      2587CBF7 
 336      EB018B8E 
 336      CF0CA7D8 
 337 08d5 1AE79E48 		.ascii	"\032\347\236H\037\005\235\"\372\204\034=\371\210\225"
 337      1F059D22 
 337      FA841C3D 
 337      F98895
 338 08e4 7DC18E2E 		.ascii	"}\301\216.\220\243'\035<n\213\324'\235SK\017\330\"\363"
 338      90A3271D 
 338      3C6E8BD4 
 338      279D534B 
 338      0FD822F3 
 339 08f8 6EE70161 		.ascii	"n\347\001a~\260\374i\005j\310\237&\371\301\2000\265"
 339      7EB0FC69 
 339      056AC89F 
 339      26F9C180 
 339      30B5
 340 090a 4BA355E7 		.ascii	"K\243U\3474Z\322)m\021\015\237v>%'\247\210z\250F\366"
 340      345AD229 
 340      6D110D9F 
 340      763E2527 
 340      A7887AA8 
 341 0920 96D52414 		.ascii	"\226\325$\024r#\324P\003\244\345E\020\013\3109\0203"
 341      7223D450 
 341      03A4E545 
 341      100BC839 
 341      1033
 342 0932 C8599033 		.ascii	"\310Y\2203 \027@\316\203\\\022\323\326\334<zL\205{i"
 342      201740CE 
 342      835C12D3 
 342      D6DC3C7A 
 342      4C857B69 
 343 0946 667157EB 		.ascii	"fqW\353\333W\332\237g\333/ 2\275+\300}Y\334\232\232"
 343      DB57DA9F 
 343      67DB2F20 
 343      32BD2BC0 
 343      7D59DC9A 
 344 095b 263FCF6C 		.ascii	"&?\317l~\240f0\377_\270\322R\231w\302\335\341ys\305"
 344      7EA06630 
ARM GAS  /tmp/ccpfLaBf.s 			page 27


 344      FF5FB8D2 
 344      529977C2 
 344      DDE17973 
 345 0970 E1797395 		.ascii	"\341ys\225\323\331\274\270J\0379\235\351\353\013\324"
 345      D3D9BCB8 
 345      4A1F399D 
 345      E9EB0BD4 
 346 0980 788895CC 		.ascii	"x\210\225\314\275\023\235\211\034\036a\312\363\234\363"
 346      BD139D89 
 346      1C1E61CA 
 346      F39CF3
 347 098f CD1C7ECD 		.ascii	"\315\034~\315\224\276[\311;\3258\321\205*\231\023\355"
 347      94BE5BC9 
 347      3BD538D1 
 347      852A9913 
 347      ED
 348 09a0 BC1AA733 		.ascii	"\274\032\2473e\343\363\321\275J\234\311\224\232SO\375"
 348      65E3F3D1 
 348      BD4A9CC9 
 348      949A534F 
 348      FD
 349 09b1 D9F36606 		.ascii	"\331\363f\006h'\272\006\315\302\323\310J^\236\333\223"
 349      6827BA06 
 349      CDC2D3C8 
 349      4A5E9EDB 
 349      93
 350 09c2 47DADCF1 		.ascii	"G\332\334\3616\012u=<\266\341\276\016*\320\233\226\237"
 350      360A753D 
 350      3CB6E1BE 
 350      0E2AD09B 
 350      969F
 351 09d4 0FDB8E47 		.ascii	"\017\333\216G^|\236c?\013^\203\210uLY~d\257:n\344\323"
 351      5E7C9E63 
 351      3F0B5E83 
 351      88754C59 
 351      7E64AF3A 
 352 09eb D514DB2A 		.ascii	"\325\024\333*\307J\362\322!\3207!\320md\323\245p\022"
 352      C74AF2D2 
 352      21D03721 
 352      D06D64D3 
 352      A57012
 353 09fe E53B10E5 		.ascii	"\345;\020\345N\210b7\310m\020+H;\310]\220.\207\335\274"
 353      4E886237 
 353      C86D102B 
 353      483BC85D 
 353      902E87DD 
 354 0a13 D26EEE86 		.ascii	"\322n\356\206\334\234|\027\255\267Co\311\241\222]\201"
 354      DC9C7C17 
 354      ADB7436F 
 354      C9A1925D 
 354      81
 355 0a24 25C91123 		.ascii	"%\311\021#\311\221\016gg\343\252^$n\306\277:5*}\347"
 355      C9910E67 
 355      67E3AA5E 
 355      246EC6BF 
 355      3A352A7D 
 356 0a39 ABB15BBD 		.ascii	"\253\261[\275\356<\036Rp\235\035\334\342<\320\014L\376"
ARM GAS  /tmp/ccpfLaBf.s 			page 28


 356      EE3C1E52 
 356      709D1DDC 
 356      E23CD00C 
 356      4CFE
 357 0a4b 55D5B0F3 		.ascii	"U\325\260\363\255\013\316\245\353\306e\356>\224\357"
 357      AD0BCEA5 
 357      EBC665EE 
 357      3E94EF
 358 0a5a 6A4FF06B 		.ascii	"jO\360k\356<\207\356\303\275\367\304\364\356\230\234"
 358      EE3C87EE 
 358      C3BDF7C4 
 358      F4EE989C 
 359 0a6a DEB6A8A3 		.ascii	"\336\266\250\243\036\010\366o\011<X\037\357\311^\347"
 359      1E08F66F 
 359      093C581F 
 359      EFC95EE7 
 360 0a7a EE2DD099 		.ascii	"\356-\320\231\247\244S\274\017\327\213\224\234sj\207"
 360      A7A453BC 
 360      0FD78B94 
 360      9C736A87 
 361 0a8a F2E87528 		.ascii	"\362\350u(\217>\3418\326\307\216cu)O\205\377T\231I\376"
 361      8F3EE138 
 361      D6C78E63 
 361      75294F85 
 361      FF549949 
 362 0a9f 0E175716 		.ascii	"\016\027W\026h\230^L\364\207\023\226\307*\\\314R\277"
 362      68985E4C 
 362      F4871396 
 362      C72A5CCC 
 362      52BF
 363 0ab1 75A42555 		.ascii	"u\244%U\213\313\231\222Q\225\263\317\023\037g\312\246"
 363      8BCB9992 
 363      5195B3CF 
 363      131F67CA 
 363      A6
 364 0ac2 CD478F68 		.ascii	"\315G\217h\361)\246T5\327\334Q\341sL\351\034jKu\303"
 364      F129A654 
 364      35D7DC51 
 364      E1734CE9 
 364      1C6A4B75 
 365 0ad7 4D4C297F 		.ascii	"ML)\177\263\345\200\032_g\212\255t\274\204\322\031{"
 365      B3E5801A 
 365      5F678AAD 
 365      74BC84D2 
 365      197B
 366 0ae9 B2E386F0 		.ascii	"\262\343\206\3600\343=\310\177\376\326mNw\301\355\024"
 366      30E33DC8 
 366      7FFED66D 
 366      4E77C1ED 
 366      14
 367 0afa ACED7934 		.ascii	"\254\355y4<\250\243\0173o\3720c\217\375\356^\304\216"
 367      3CA8A30F 
 367      336FFA30 
 367      638FFDEE 
 367      5EC48E
 368 0b0d E464799E 		.ascii	"\344dy\236\303\362\214@k\217\234C\302\002z\\E\262\201"
 368      C3F28C40 
ARM GAS  /tmp/ccpfLaBf.s 			page 29


 368      6B8F9C43 
 368      C2027A5C 
 368      45B281
 369 0b20 409FCAA1 		.ascii	"@\237\312\241\016\357\320\004\373\302\216}&\307:\376"
 369      0EEFD004 
 369      FBC28E7D 
 369      26C73AFE 
 370 0b30 6381802B 		.ascii	"c\201\200+\027\221]\231\200\037\312\301\375\234\363"
 370      17915D99 
 370      801FCAC1 
 370      FD9CF3
 371 0b3f 1A1D04C0 		.ascii	"\032\035\004\300\000\035\033\021R\3455\254\3630,\345"
 371      001D1B11 
 371      52E535AC 
 371      F3302CE5 
 372 0b4f 4B9017E4 		.ascii	"K\220\027\344\204\0172\0162JN\362\344$\356p\340\311"
 372      840F320E 
 372      324A4EF2 
 372      E424EE70 
 372      E0C9
 373 0b61 B39B7C24 		.ascii	"\263\233|$7yz\222\1775v\360\220\034\374\200\223\203"
 373      37797A92 
 373      7F3576F0 
 373      901CFC80 
 373      9383
 374 0b73 B7D9C18F 		.ascii	"\267\331\301\217\345\340&yYw\320\262\036\231T\3260\224"
 374      E5E02679 
 374      5977D0B2 
 374      1E9954D6 
 374      3094
 375 0b85 6599212E 		.ascii	"e\231!.\315\0239S\233c\365YZoN(\261\225U_\353\301\201"
 375      CD133953 
 375      9B63F559 
 375      5A6F4E28 
 375      B195555F 
 376 0b9c 034AE4ED 		.ascii	"\003J\344\355\3534^\350\035\204\351\267\206\2149\333"
 376      EB345EE8 
 376      1D84E9B7 
 376      868C39DB 
 377 0bac 6DA10FAA 		.ascii	"m\241\017\252\267p\363\204X\311#\264\222\311\277\204"
 377      B770F384 
 377      58C923B4 
 377      92C9BF84 
 378 0bbc C7F65CF1 		.ascii	"\307\366\\\361p\254AgF\025\357e\221\034\347r\237\335"
 378      70AC4167 
 378      4615EF65 
 378      911CE772 
 378      9FDD
 379 0bce 7071A843 		.ascii	"pq\250C\036K\3530\021\263:\204\226\034\361\322\036="
 379      1E4BEB30 
 379      11B33A84 
 379      961CF1D2 
 379      1E3D
 380 0be0 F474BE03 		.ascii	"\364t\276\003(\336\277\374Q\022\366&\225d\266\236\347"
 380      28DEBFFC 
 380      5112F626 
 380      9564B69E 
ARM GAS  /tmp/ccpfLaBf.s 			page 30


 380      E7
 381 0bf1 F0335666 		.ascii	"\3603Vfc\017z\016\270)9V\361\344w4R\325\274%GK\257\221"
 381      630F7A0E 
 381      B8293956 
 381      F1E47734 
 381      52D5BC25 
 382 0c09 87650AA6 		.ascii	"\207e\012\246\027\267\277\333?\200\247\374\031n=&?\303"
 382      17B7BFDB 
 382      3F80A7FC 
 382      196E3D26 
 382      3FC3
 383 0c1b ADC3C2EF 		.ascii	"\255\303\302\357p\271\245\005\235\356\354w8\363\351"
 383      70B9A505 
 383      9DEEEC77 
 383      38F3E9
 384 0c2a 4B1EEC07 		.ascii	"K\036\354\007\264D\216\300P2\266G\027\272\012\373\317"
 384      B4448EC0 
 384      5032B647 
 384      17BA0AFB 
 384      CF
 385 0c3b 5FA998FC 		.ascii	"_\251\230\374zu>?\361\224\033\036e\316\361\017\036o"
 385      7A753E3F 
 385      F1941B1E 
 385      65CEF10F 
 385      1E6F
 386 0c4d D5FD711F 		.ascii	"\325\375q\037\337\002Lc\353\377\000\031\243\244aJc\024"
 386      DF024C63 
 386      EBFF0019 
 386      A3A4614A 
 386      6314
 387 0c5f 92322157 		.ascii	"\2222!W\226s\012\224\216\377H~v\350-\177\240s\010.\371"
 387      96730A94 
 387      8EFF487E 
 387      76E82D7F 
 387      A073082E 
 388 0c74 C94CF436 		.ascii	"\311L\3646C\010.i=\023L1s\375\303~\\\025\025\027\026"
 388      43082E69 
 388      3D134C31 
 388      73FDC37E 
 388      5C151517 
 389 0c89 151B65D2 		.ascii	"\025\033e\322,\376\352\353\217\002\374\374\024\237\314"
 389      2CFEEAEB 
 389      8F02FCFC 
 389      149FCC
 390 0c98 9EAD677F 		.ascii	"\236\255g\177q\011\372\225\341\321\372\037\342\302\343"
 390      7109FA95 
 390      E1D1FA1F 
 390      E2C2E3
 391 0ca7 2313F401 		.ascii	"#\023\364\001\313\226~\375\345\302\005L\235\035\241"
 391      CB967EFD 
 391      E5C2054C 
 391      9D1DA1
 392 0cb6 D0858519 		.ascii	"\320\205\205\031\303\343\243\327\322\273]\351\325%\320"
 392      C3E3A3D7 
 392      D2BB5DE9 
 392      D525D0
 393 0cc5 9BC67823 		.ascii	"\233\306x#\242\343\"\376F\207\346\313\371V\305\305\233"
ARM GAS  /tmp/ccpfLaBf.s 			page 31


 393      A2E322FE 
 393      4687E6CB 
 393      F956C5C5 
 393      9B
 394 0cd6 12F4A1CB 		.ascii	"\022\364\241\313\277\234\353\317\276\027\315[\263\206"
 394      BF9CEBCF 
 394      BE17CD5B 
 394      B386
 395 0ce4 8C844547 		.ascii	"\214\204EGG\206\231\326\2562\372\315^\251\320\004|\261"
 395      478699D6 
 395      AE32FACD 
 395      5EA9D004 
 395      7CB1
 396 0cf6 78C1F2A0 		.ascii	"x\301\362\240\257\014\332\260\260\325Q\261&\3404\031"
 396      AF0CDAB0 
 396      B0D551B1 
 396      26E03419 
 397 0d06 F52BE362 		.ascii	"\365+\343b\214\372\310\360\330(c\264>(\346\007cd\244"
 397      8CFAC8F0 
 397      D82863B4 
 397      3E28E607 
 397      6364A4
 398 0d19 3172417C 		.ascii	"1rA|\214\376\307\210\210Y\341\3611\263b\343b\215\263"
 398      8CFEC788 
 398      8859E1F1 
 398      31B362E3 
 398      628DB3
 399 0d2c 8CE13F44 		.ascii	"\214\341?D\315\3724l\336,\3779~\363\377>W\3570\240\217"
 399      CDFA346C 
 399      DE2CFF39 
 399      7EF3FF3E 
 399      57EF30A0 
 400 0d41 8A8D885E 		.ascii	"\212\215\210^\035i\324\307\204G\254\214\2125\352\303"
 400      1D69D4C7 
 400      8447AC8C 
 400      8A35EAC3 
 401 0d51 228D2BC2 		.ascii	"\"\215+\302WG\233\250\345\004b\331f\356\273\377\245"
 401      57479BA8 
 401      E50462D9 
 401      66EEBBFF 
 401      A5
 402 0d62 B984B509 		.ascii	"\271\204\265\011\372\260\004S$p\203\015\227\300\200"
 402      FAB00453 
 402      2470830D 
 402      97C080
 403 0d71 2F02162D 		.ascii	"/\002\026-6hC\226.\015]\260\304\326]\342\037J\272\252"
 403      36684396 
 403      2E0D5DB0 
 403      C4D65DE2 
 403      1F4ABAAA 
 404 0d85 D0D080C5 		.ascii	"\320\320\200\305\006WCPh\220\341\233\240\300\3718 \324"
 404      06574350 
 404      6890E19B 
 404      A0C0F938 
 404      20D4
 405 0d97 A05C1818 		.ascii	"\240\\\030\030 ^\372\324uA\310B\377\245!\020\037\322"
 405      205EFAD4 
ARM GAS  /tmp/ccpfLaBf.s 			page 32


 405      7541C842 
 405      FFA52110 
 405      1FD2
 406 0da9 F3633DDB 		.ascii	"\363c=\333\350<\327\005\301\013\347\012\243\301v\\\260"
 406      E83CD705 
 406      C10BE70A 
 406      A3C1765C 
 406      B0
 407 0dba 1C37D785 		.ascii	"\0347\327\205\260\300\025\322\372IG\374]\010\003\035"
 407      B0C015D2 
 407      FA4947FC 
 407      5D08031D 
 408 0dca 091610C1 		.ascii	"\011\026\020\301\216\010?\015\271\327\020\272\334@:"
 408      8E083F0D 
 408      B9D710BA 
 408      DC403A
 409 0dd9 7EA4631F 		.ascii	"~\244c\037\233\243!w\263\261`\033(\230\201p\300\022"
 409      9BA32177 
 409      B3B1601B 
 409      28988170 
 409      C012
 410 0deb 83924CD2 		.ascii	"\203\222L\322\005\346KZ.\300\240\021\242\341\357/\315"
 410      05E64B5A 
 410      2EC0A011 
 410      A2E1EF2F 
 410      CD
 411 0dfc 9588B898 		.ascii	"\225\210\270\230\230\270X\275q\215\011\322D\222)4\301"
 411      98B858BD 
 411      718D09D2 
 411      44922934 
 411      C1
 412 0e0d 56CC9B37 		.ascii	"V\314\2337\177\315\032\210\244\233!  l9,]\240q\205r"
 412      7FCD1A88 
 412      A49B2120 
 412      206C392C 
 412      5DA07185 
 413 0e22 C122C352 		.ascii	"\301\"\303R\325\322e\001_@\270B\015\006\364W\024\254"
 413      D5D26501 
 413      5F40B842 
 413      0D06F457 
 413      14AC
 414 0e34 8A888634 		.ascii	"\212\210\2064\025\222\310o~\230Ic\353\340\004\243i\336"
 414      1592C86F 
 414      7E984963 
 414      EBE004A3 
 414      69DE
 415 0e46 7F4ACEA5 		.ascii	"\177J\316\245K\003\365\213C\226,\373\311_/\026\013\230"
 415      4B03F58B 
 415      43962CFB 
 415      C95F2F16 
 415      0B98
 416 0e58 C4CB020D 		.ascii	"\304\313\002\015xI\240A\025\362uH\240\301eYhHPP\240"
 416      7849A041 
 416      15F27548 
 416      A0C16559 
 416      68485050 
 417 0e6d 41BD6CF9 		.ascii	"A\275l\371\267!A\006\325\227\313\002\203\014\304\223"
ARM GAS  /tmp/ccpfLaBf.s 			page 33


 417      B7214106 
 417      D597CB02 
 417      830CC493 
 418 0e7d 609DA4C4 		.ascii	"`\235\244\304L\312\360\025\361\3218.2^\265j\365\252"
 418      4CCAF015 
 418      F1D1382E 
 418      325EB56A 
 418      F5AA
 419 0e8f C87897B8 		.ascii	"\310x\227\270\204UFcd\274:\216\244]\274*&.\322\030O"
 419      84554663 
 419      64BC3A8E 
 419      A45DBC2A 
 419      262ED218 
 420 0ea4 302B7514 		.ascii	"0+u\024\017\276\255^\025fR\207,\016\0147\205\253C\026"
 420      0FBEAD5E 
 420      15665287 
 420      2C0E0C37 
 420      85AB4316 
 421 0eb8 B1268835 		.ascii	"\261&\2105\201\254\011`\315B\326,`M0i\334)ID\\\354\212"
 421      81AC0960 
 421      CD42D62C 
 421      604D3069 
 421      DC294944 
 422 0ecf A81FC34C 		.ascii	"\250\037\303L\256\366*\367\246=[\306\263\361\177\003"
 422      AEF62AF7 
 422      A63D5BC6 
 422      B3F17F03 
 423 0edf 494EBBBF 		.ascii	"IN\273\277"
 424              		.text
 425              		.section	.gnu.lto_.symtab.4c04b26da233c93,"",%progbits
 426 0000 5F5F6561 		.ascii	"__early_init\000"
 426      726C795F 
 426      696E6974 
 426      00
 427 000d 00       		.ascii	"\000"
 428 000e 00       		.ascii	"\000"
 429 000f 00       		.ascii	"\000"
 430 0010 00000000 		.ascii	"\000\000\000\000\000\000\000\000"
 430      00000000 
 431 0018 AF000000 		.ascii	"\257\000\000\000"
 432 001c 626F6172 		.ascii	"boardInit\000"
 432      64496E69 
 432      7400
 433 0026 00       		.ascii	"\000"
 434 0027 00       		.ascii	"\000"
 435 0028 00       		.ascii	"\000"
 436 0029 00000000 		.ascii	"\000\000\000\000\000\000\000\000"
 436      00000000 
 437 0031 B1000000 		.ascii	"\261\000\000\000"
 438 0035 73746D33 		.ascii	"stm32_clock_init\000"
 438      325F636C 
 438      6F636B5F 
 438      696E6974 
 438      00
 439 0046 00       		.ascii	"\000"
 440 0047 02       		.ascii	"\002"
 441 0048 00       		.ascii	"\000"
ARM GAS  /tmp/ccpfLaBf.s 			page 34


 442 0049 00000000 		.ascii	"\000\000\000\000\000\000\000\000"
 442      00000000 
 443 0051 B3000000 		.ascii	"\263\000\000\000"
 444              		.text
 445              		.section	.gnu.lto_.opts,"",%progbits
 446 0000 272D666D 		.ascii	"'-fmath-errno' '-fsigned-zeros' '-ftrapping-math' '"
 446      6174682D 
 446      6572726E 
 446      6F272027 
 446      2D667369 
 447 0033 2D666E6F 		.ascii	"-fno-trapv' '-fno-openmp' '-fno-openacc' '-mcpu=cor"
 447      2D747261 
 447      70762720 
 447      272D666E 
 447      6F2D6F70 
 448 0066 7465782D 		.ascii	"tex-m4' '-mthumb' '-ggdb' '-O2' '-fomit-frame-point"
 448      6D342720 
 448      272D6D74 
 448      68756D62 
 448      2720272D 
 449 0099 65722720 		.ascii	"er' '-falign-functions=16' '-ffunction-sections' '-"
 449      272D6661 
 449      6C69676E 
 449      2D66756E 
 449      6374696F 
 450 00cc 66646174 		.ascii	"fdata-sections' '-fno-common' '-flto'\000"
 450      612D7365 
 450      6374696F 
 450      6E732720 
 450      272D666E 
 451              		.text
 452              		.comm	__gnu_lto_v1,1,1
 453              		.comm	__gnu_lto_slim,1,1
 454              		.ident	"GCC: (GNU Tools for ARM Embedded Processors) 5.4.1 20160919 (release) [ARM/embedded-5-bran
ARM GAS  /tmp/ccpfLaBf.s 			page 35


DEFINED SYMBOLS
                            *ABS*:00000000 board.c
                            *COM*:00000001 __gnu_lto_v1
                            *COM*:00000001 __gnu_lto_slim

NO UNDEFINED SYMBOLS
