
build/ch.elf:     file format elf32-littlearm


Disassembly of section .vectors:

08000000 <_vectors>:
 8000000:	20000400 	.word	0x20000400
 8000004:	080002b9 	.word	0x080002b9
 8000008:	080002bb 	.word	0x080002bb
 800000c:	080002bb 	.word	0x080002bb
 8000010:	080002bb 	.word	0x080002bb
 8000014:	080002bb 	.word	0x080002bb
 8000018:	080002bb 	.word	0x080002bb
 800001c:	080002bb 	.word	0x080002bb
 8000020:	080002bb 	.word	0x080002bb
 8000024:	080002bb 	.word	0x080002bb
 8000028:	080002bb 	.word	0x080002bb
 800002c:	08000f61 	.word	0x08000f61
 8000030:	080002bb 	.word	0x080002bb
 8000034:	080002bb 	.word	0x080002bb
 8000038:	080002bb 	.word	0x080002bb
 800003c:	080002bb 	.word	0x080002bb
 8000040:	080002bb 	.word	0x080002bb
 8000044:	080002bb 	.word	0x080002bb
 8000048:	080002bb 	.word	0x080002bb
 800004c:	080002bb 	.word	0x080002bb
 8000050:	080002bb 	.word	0x080002bb
 8000054:	080002bb 	.word	0x080002bb
 8000058:	080002bb 	.word	0x080002bb
 800005c:	080002bb 	.word	0x080002bb
 8000060:	080002bb 	.word	0x080002bb
 8000064:	080002bb 	.word	0x080002bb
 8000068:	080002bb 	.word	0x080002bb
 800006c:	080002bb 	.word	0x080002bb
 8000070:	080002bb 	.word	0x080002bb
 8000074:	080002bb 	.word	0x080002bb
 8000078:	080002bb 	.word	0x080002bb
 800007c:	080002bb 	.word	0x080002bb
 8000080:	080002bb 	.word	0x080002bb
 8000084:	080002bb 	.word	0x080002bb
 8000088:	080002bb 	.word	0x080002bb
 800008c:	080002bb 	.word	0x080002bb
 8000090:	080002bb 	.word	0x080002bb
 8000094:	080002bb 	.word	0x080002bb
 8000098:	080002bb 	.word	0x080002bb
 800009c:	080002bb 	.word	0x080002bb
 80000a0:	080002bb 	.word	0x080002bb
 80000a4:	080002bb 	.word	0x080002bb
 80000a8:	080002bb 	.word	0x080002bb
 80000ac:	080002bb 	.word	0x080002bb
 80000b0:	080014c1 	.word	0x080014c1
 80000b4:	080002bb 	.word	0x080002bb
 80000b8:	080002bb 	.word	0x080002bb
 80000bc:	080002bb 	.word	0x080002bb
 80000c0:	080002bb 	.word	0x080002bb
 80000c4:	080002bb 	.word	0x080002bb
 80000c8:	080002bb 	.word	0x080002bb
 80000cc:	080002bb 	.word	0x080002bb
 80000d0:	080002bb 	.word	0x080002bb
 80000d4:	080002bb 	.word	0x080002bb
 80000d8:	080002bb 	.word	0x080002bb
 80000dc:	080002bb 	.word	0x080002bb
 80000e0:	080002bb 	.word	0x080002bb
 80000e4:	080002bb 	.word	0x080002bb
 80000e8:	080002bb 	.word	0x080002bb
 80000ec:	080002bb 	.word	0x080002bb
 80000f0:	080002bb 	.word	0x080002bb
 80000f4:	080002bb 	.word	0x080002bb
 80000f8:	080002bb 	.word	0x080002bb
 80000fc:	080002bb 	.word	0x080002bb
 8000100:	080002bb 	.word	0x080002bb
 8000104:	080002bb 	.word	0x080002bb
 8000108:	080002bb 	.word	0x080002bb
 800010c:	080002bb 	.word	0x080002bb
 8000110:	08001301 	.word	0x08001301
 8000114:	080002bb 	.word	0x080002bb
 8000118:	080002bb 	.word	0x080002bb
 800011c:	080002bb 	.word	0x080002bb
 8000120:	080002bb 	.word	0x080002bb
 8000124:	080002bb 	.word	0x080002bb
 8000128:	080002bb 	.word	0x080002bb
 800012c:	080002bb 	.word	0x080002bb
 8000130:	080002bb 	.word	0x080002bb
 8000134:	080002bb 	.word	0x080002bb
 8000138:	080002bb 	.word	0x080002bb
 800013c:	080002bb 	.word	0x080002bb
 8000140:	080002bb 	.word	0x080002bb
 8000144:	080002bb 	.word	0x080002bb
 8000148:	080002bb 	.word	0x080002bb
 800014c:	080002bb 	.word	0x080002bb
 8000150:	080002bb 	.word	0x080002bb
 8000154:	080002bb 	.word	0x080002bb
 8000158:	080002bb 	.word	0x080002bb
 800015c:	080002bb 	.word	0x080002bb
 8000160:	080002bb 	.word	0x080002bb
 8000164:	080002bb 	.word	0x080002bb
 8000168:	080002bb 	.word	0x080002bb
 800016c:	080002bb 	.word	0x080002bb
 8000170:	080002bb 	.word	0x080002bb
 8000174:	080002bb 	.word	0x080002bb
 8000178:	080002bb 	.word	0x080002bb
 800017c:	080002bb 	.word	0x080002bb
 8000180:	080002bb 	.word	0x080002bb
 8000184:	080002bb 	.word	0x080002bb
 8000188:	080002bb 	.word	0x080002bb
 800018c:	080002bb 	.word	0x080002bb
 8000190:	080002bb 	.word	0x080002bb
 8000194:	080002bb 	.word	0x080002bb
 8000198:	080002bb 	.word	0x080002bb
 800019c:	080002bb 	.word	0x080002bb
 80001a0:	080002bb 	.word	0x080002bb
 80001a4:	080002bb 	.word	0x080002bb
 80001a8:	080002bb 	.word	0x080002bb
 80001ac:	080002bb 	.word	0x080002bb
 80001b0:	080002bb 	.word	0x080002bb
 80001b4:	080002bb 	.word	0x080002bb
 80001b8:	080002bb 	.word	0x080002bb
 80001bc:	080002bb 	.word	0x080002bb
 80001c0:	080002bb 	.word	0x080002bb
 80001c4:	080002bb 	.word	0x080002bb
 80001c8:	080002bb 	.word	0x080002bb
 80001cc:	080002bb 	.word	0x080002bb
 80001d0:	080002bb 	.word	0x080002bb
 80001d4:	080002bb 	.word	0x080002bb
 80001d8:	080002bb 	.word	0x080002bb
 80001dc:	080002bb 	.word	0x080002bb

Disassembly of section .text:

080001e0 <_crt0_entry>:
                .align  2
                .thumb_func
                .global _crt0_entry
_crt0_entry:
                /* Interrupts are globally masked initially.*/
                cpsid   i
 80001e0:	b672      	cpsid	i

#if CRT0_FORCE_MSP_INIT == TRUE
                /* MSP stack pointers initialization.*/
                ldr     r0, =__main_stack_end__
 80001e2:	4827      	ldr	r0, [pc, #156]	; (8000280 <endfiniloop+0x4>)
                msr     MSP, r0
 80001e4:	f380 8808 	msr	MSP, r0
#endif

                /* PSP stack pointers initialization.*/
                ldr     r0, =__process_stack_end__
 80001e8:	4826      	ldr	r0, [pc, #152]	; (8000284 <endfiniloop+0x8>)
                msr     PSP, r0
 80001ea:	f380 8809 	msr	PSP, r0

#if CRT0_VTOR_INIT == TRUE
                ldr     r0, =_vectors
 80001ee:	4826      	ldr	r0, [pc, #152]	; (8000288 <endfiniloop+0xc>)
                movw    r1, #SCB_VTOR & 0xFFFF
 80001f0:	f64e 5108 	movw	r1, #60680	; 0xed08
                movt    r1, #SCB_VTOR >> 16
 80001f4:	f2ce 0100 	movt	r1, #57344	; 0xe000
                str     r0, [r1]
 80001f8:	6008      	str	r0, [r1, #0]

                /* Enforcing FPCA bit in the CONTROL register.*/
                movs    r0, #CRT0_CONTROL_INIT | CONTROL_FPCA

#else
                movs    r0, #CRT0_CONTROL_INIT
 80001fa:	2002      	movs	r0, #2
#endif

                /* CONTROL register initialization as configured.*/
                msr     CONTROL, r0
 80001fc:	f380 8814 	msr	CONTROL, r0
                isb
 8000200:	f3bf 8f6f 	isb	sy

#if CRT0_INIT_CORE == TRUE
                /* Core initialization.*/
                bl      __core_init
 8000204:	f001 f9fc 	bl	8001600 <__core_init>
#endif

                /* Early initialization.*/
                bl      __early_init
 8000208:	f000 ff02 	bl	8001010 <__early_init>

#if CRT0_INIT_STACKS == TRUE
                ldr     r0, =CRT0_STACKS_FILL_PATTERN
 800020c:	f04f 3055 	mov.w	r0, #1431655765	; 0x55555555
                /* Main Stack initialization. Note, it assumes that the
                   stack size is a multiple of 4 so the linker file must
                   ensure this.*/
                ldr     r1, =__main_stack_base__
 8000210:	491e      	ldr	r1, [pc, #120]	; (800028c <endfiniloop+0x10>)
                ldr     r2, =__main_stack_end__
 8000212:	4a1b      	ldr	r2, [pc, #108]	; (8000280 <endfiniloop+0x4>)

08000214 <msloop>:
msloop:
                cmp     r1, r2
 8000214:	4291      	cmp	r1, r2
                itt     lo
 8000216:	bf3c      	itt	cc
                strlo   r0, [r1], #4
 8000218:	f841 0b04 	strcc.w	r0, [r1], #4
                blo     msloop
 800021c:	e7fa      	bcc.n	8000214 <msloop>

                /* Process Stack initialization. Note, it assumes that the
                   stack size is a multiple of 4 so the linker file must
                   ensure this.*/
                ldr     r1, =__process_stack_base__
 800021e:	491c      	ldr	r1, [pc, #112]	; (8000290 <endfiniloop+0x14>)
                ldr     r2, =__process_stack_end__
 8000220:	4a18      	ldr	r2, [pc, #96]	; (8000284 <endfiniloop+0x8>)

08000222 <psloop>:
psloop:
                cmp     r1, r2
 8000222:	4291      	cmp	r1, r2
                itt     lo
 8000224:	bf3c      	itt	cc
                strlo   r0, [r1], #4
 8000226:	f841 0b04 	strcc.w	r0, [r1], #4
                blo     psloop
 800022a:	e7fa      	bcc.n	8000222 <psloop>
#endif

#if CRT0_INIT_DATA == TRUE
                /* Data initialization. Note, it assumes that the DATA size
                  is a multiple of 4 so the linker file must ensure this.*/
                ldr     r1, =_textdata_start
 800022c:	4919      	ldr	r1, [pc, #100]	; (8000294 <endfiniloop+0x18>)
                ldr     r2, =_data_start
 800022e:	4a1a      	ldr	r2, [pc, #104]	; (8000298 <endfiniloop+0x1c>)
                ldr     r3, =_data_end
 8000230:	4b1a      	ldr	r3, [pc, #104]	; (800029c <endfiniloop+0x20>)

08000232 <dloop>:
dloop:
                cmp     r2, r3
 8000232:	429a      	cmp	r2, r3
                ittt    lo
 8000234:	bf3e      	ittt	cc
                ldrlo   r0, [r1], #4
 8000236:	f851 0b04 	ldrcc.w	r0, [r1], #4
                strlo   r0, [r2], #4
 800023a:	f842 0b04 	strcc.w	r0, [r2], #4
                blo     dloop
 800023e:	e7f8      	bcc.n	8000232 <dloop>
#endif

#if CRT0_INIT_BSS == TRUE
                /* BSS initialization. Note, it assumes that the DATA size
                  is a multiple of 4 so the linker file must ensure this.*/
                movs    r0, #0
 8000240:	2000      	movs	r0, #0
                ldr     r1, =_bss_start
 8000242:	4917      	ldr	r1, [pc, #92]	; (80002a0 <endfiniloop+0x24>)
                ldr     r2, =_bss_end
 8000244:	4a17      	ldr	r2, [pc, #92]	; (80002a4 <endfiniloop+0x28>)

08000246 <bloop>:
bloop:
                cmp     r1, r2
 8000246:	4291      	cmp	r1, r2
                itt     lo
 8000248:	bf3c      	itt	cc
                strlo   r0, [r1], #4
 800024a:	f841 0b04 	strcc.w	r0, [r1], #4
                blo     bloop
 800024e:	e7fa      	bcc.n	8000246 <bloop>
#endif

#if CRT0_INIT_RAM_AREAS == TRUE
                /* RAM areas initialization.*/
                bl      __init_ram_areas
 8000250:	f001 f98e 	bl	8001570 <__init_ram_areas>
#endif

                /* Late initialization..*/
                bl      __late_init
 8000254:	f001 f9cc 	bl	80015f0 <__late_init>

#if CRT0_CALL_CONSTRUCTORS == TRUE
                /* Constructors invocation.*/
                ldr     r4, =__init_array_start
 8000258:	4c13      	ldr	r4, [pc, #76]	; (80002a8 <endfiniloop+0x2c>)
                ldr     r5, =__init_array_end
 800025a:	4d14      	ldr	r5, [pc, #80]	; (80002ac <endfiniloop+0x30>)

0800025c <initloop>:
initloop:
                cmp     r4, r5
 800025c:	42ac      	cmp	r4, r5
                bge     endinitloop
 800025e:	da03      	bge.n	8000268 <endinitloop>
                ldr     r1, [r4], #4
 8000260:	f854 1b04 	ldr.w	r1, [r4], #4
                blx     r1
 8000264:	4788      	blx	r1
                b       initloop
 8000266:	e7f9      	b.n	800025c <initloop>

08000268 <endinitloop>:
endinitloop:
#endif

                /* Main program invocation, r0 contains the returned value.*/
                bl      main
 8000268:	f000 fc52 	bl	8000b10 <main>

#if CRT0_CALL_DESTRUCTORS == TRUE
                /* Destructors invocation.*/
                ldr     r4, =__fini_array_start
 800026c:	4c10      	ldr	r4, [pc, #64]	; (80002b0 <endfiniloop+0x34>)
                ldr     r5, =__fini_array_end
 800026e:	4d11      	ldr	r5, [pc, #68]	; (80002b4 <endfiniloop+0x38>)

08000270 <finiloop>:
finiloop:
                cmp     r4, r5
 8000270:	42ac      	cmp	r4, r5
                bge     endfiniloop
 8000272:	da03      	bge.n	800027c <endfiniloop>
                ldr     r1, [r4], #4
 8000274:	f854 1b04 	ldr.w	r1, [r4], #4
                blx     r1
 8000278:	4788      	blx	r1
                b       finiloop
 800027a:	e7f9      	b.n	8000270 <finiloop>

0800027c <endfiniloop>:
endfiniloop:
#endif

                /* Branching to the defined exit handler.*/
                b       __default_exit
 800027c:	f001 b9b0 	b.w	80015e0 <__default_exit>
                /* Interrupts are globally masked initially.*/
                cpsid   i

#if CRT0_FORCE_MSP_INIT == TRUE
                /* MSP stack pointers initialization.*/
                ldr     r0, =__main_stack_end__
 8000280:	20000400 	.word	0x20000400
                msr     MSP, r0
#endif

                /* PSP stack pointers initialization.*/
                ldr     r0, =__process_stack_end__
 8000284:	20000800 	.word	0x20000800
                msr     PSP, r0

#if CRT0_VTOR_INIT == TRUE
                ldr     r0, =_vectors
 8000288:	08000000 	.word	0x08000000
#if CRT0_INIT_STACKS == TRUE
                ldr     r0, =CRT0_STACKS_FILL_PATTERN
                /* Main Stack initialization. Note, it assumes that the
                   stack size is a multiple of 4 so the linker file must
                   ensure this.*/
                ldr     r1, =__main_stack_base__
 800028c:	20000000 	.word	0x20000000
                blo     msloop

                /* Process Stack initialization. Note, it assumes that the
                   stack size is a multiple of 4 so the linker file must
                   ensure this.*/
                ldr     r1, =__process_stack_base__
 8000290:	20000400 	.word	0x20000400
#endif

#if CRT0_INIT_DATA == TRUE
                /* Data initialization. Note, it assumes that the DATA size
                  is a multiple of 4 so the linker file must ensure this.*/
                ldr     r1, =_textdata_start
 8000294:	080016cc 	.word	0x080016cc
                ldr     r2, =_data_start
 8000298:	20000800 	.word	0x20000800
                ldr     r3, =_data_end
 800029c:	20000800 	.word	0x20000800

#if CRT0_INIT_BSS == TRUE
                /* BSS initialization. Note, it assumes that the DATA size
                  is a multiple of 4 so the linker file must ensure this.*/
                movs    r0, #0
                ldr     r1, =_bss_start
 80002a0:	20000800 	.word	0x20000800
                ldr     r2, =_bss_end
 80002a4:	20000a3c 	.word	0x20000a3c
                /* Late initialization..*/
                bl      __late_init

#if CRT0_CALL_CONSTRUCTORS == TRUE
                /* Constructors invocation.*/
                ldr     r4, =__init_array_start
 80002a8:	080001e0 	.word	0x080001e0
                ldr     r5, =__init_array_end
 80002ac:	080001e0 	.word	0x080001e0
                /* Main program invocation, r0 contains the returned value.*/
                bl      main

#if CRT0_CALL_DESTRUCTORS == TRUE
                /* Destructors invocation.*/
                ldr     r4, =__fini_array_start
 80002b0:	080001e0 	.word	0x080001e0
                ldr     r5, =__fini_array_end
 80002b4:	080001e0 	.word	0x080001e0

080002b8 <Reset_Handler>:

        .align      2
        .thumb_func
        .weak       Reset_Handler
Reset_Handler:
         b          _crt0_entry
 80002b8:	e792      	b.n	80001e0 <_crt0_entry>

080002ba <BusFault_Handler>:
        .thumb_func
Vector3F8:
        .thumb_func
Vector3FC:
#endif
        bl          _unhandled_exception
 80002ba:	f000 f800 	bl	80002be <_unhandled_exception>

080002be <_unhandled_exception>:

        .thumb_func
        .weak       _unhandled_exception
_unhandled_exception:
.stay:
        b           .stay
 80002be:	e7fe      	b.n	80002be <_unhandled_exception>

080002c0 <_port_switch>:
 * Performs a context switch between two threads.
 *--------------------------------------------------------------------------*/
                .thumb_func
                .globl  _port_switch
_port_switch:
                push    {r4, r5, r6, r7, r8, r9, r10, r11, lr}
 80002c0:	e92d 4ff0 	stmdb	sp!, {r4, r5, r6, r7, r8, r9, sl, fp, lr}
#if CORTEX_USE_FPU
                vpush   {s16-s31}
#endif

                str     sp, [r1, #CONTEXT_OFFSET]
 80002c4:	f8c1 d00c 	str.w	sp, [r1, #12]
#if (CORTEX_SIMPLIFIED_PRIORITY == FALSE) &&                                \
    ((CORTEX_MODEL == 3) || (CORTEX_MODEL == 4))
                /* Workaround for ARM errata 752419, only applied if
                   condition exists for it to be triggered.*/
                ldr     r3, [r0, #CONTEXT_OFFSET]
 80002c8:	68c3      	ldr	r3, [r0, #12]
                mov     sp, r3
 80002ca:	469d      	mov	sp, r3
#endif

#if CORTEX_USE_FPU
                vpop    {s16-s31}
#endif
                pop     {r4, r5, r6, r7, r8, r9, r10, r11, pc}
 80002cc:	e8bd 8ff0 	ldmia.w	sp!, {r4, r5, r6, r7, r8, r9, sl, fp, pc}

080002d0 <_port_thread_start>:
                bl      _stats_stop_measure_crit_thd
#endif
#if CORTEX_SIMPLIFIED_PRIORITY
                cpsie   i
#else
                movs    r3, #0              /* CORTEX_BASEPRI_DISABLED */
 80002d0:	2300      	movs	r3, #0
                msr     BASEPRI, r3
 80002d2:	f383 8811 	msr	BASEPRI, r3
#endif
                mov     r0, r5
 80002d6:	4628      	mov	r0, r5
                blx     r4
 80002d8:	47a0      	blx	r4
#if defined(_CHIBIOS_RT_CONF_)
                movs    r0, #0              /* MSG_OK */
 80002da:	2000      	movs	r0, #0
                bl      chThdExit
 80002dc:	f000 fe50 	bl	8000f80 <chThdExit>

080002e0 <_port_switch_from_isr>:
                bl      _stats_start_measure_crit_thd
#endif
#if CH_DBG_SYSTEM_STATE_CHECK
                bl      _dbg_check_lock
#endif
                bl      chSchDoReschedule
 80002e0:	f000 fe76 	bl	8000fd0 <chSchDoReschedule>

080002e4 <_port_exit_from_isr>:
                movt    r3, #:upper16:SCB_ICSR
                mov     r2, ICSR_PENDSVSET
                str     r2, [r3, #0]
                cpsie   i
#else /* !CORTEX_SIMPLIFIED_PRIORITY */
                svc     #0
 80002e4:	df00      	svc	0
#endif /* !CORTEX_SIMPLIFIED_PRIORITY */
.L1:            b       .L1
 80002e6:	e7fe      	b.n	80002e6 <_port_exit_from_isr+0x2>

080002e8 <memcpy>:
 80002e8:	4684      	mov	ip, r0
 80002ea:	ea41 0300 	orr.w	r3, r1, r0
 80002ee:	f013 0303 	ands.w	r3, r3, #3
 80002f2:	d16d      	bne.n	80003d0 <memcpy+0xe8>
 80002f4:	3a40      	subs	r2, #64	; 0x40
 80002f6:	d341      	bcc.n	800037c <memcpy+0x94>
 80002f8:	f851 3b04 	ldr.w	r3, [r1], #4
 80002fc:	f840 3b04 	str.w	r3, [r0], #4
 8000300:	f851 3b04 	ldr.w	r3, [r1], #4
 8000304:	f840 3b04 	str.w	r3, [r0], #4
 8000308:	f851 3b04 	ldr.w	r3, [r1], #4
 800030c:	f840 3b04 	str.w	r3, [r0], #4
 8000310:	f851 3b04 	ldr.w	r3, [r1], #4
 8000314:	f840 3b04 	str.w	r3, [r0], #4
 8000318:	f851 3b04 	ldr.w	r3, [r1], #4
 800031c:	f840 3b04 	str.w	r3, [r0], #4
 8000320:	f851 3b04 	ldr.w	r3, [r1], #4
 8000324:	f840 3b04 	str.w	r3, [r0], #4
 8000328:	f851 3b04 	ldr.w	r3, [r1], #4
 800032c:	f840 3b04 	str.w	r3, [r0], #4
 8000330:	f851 3b04 	ldr.w	r3, [r1], #4
 8000334:	f840 3b04 	str.w	r3, [r0], #4
 8000338:	f851 3b04 	ldr.w	r3, [r1], #4
 800033c:	f840 3b04 	str.w	r3, [r0], #4
 8000340:	f851 3b04 	ldr.w	r3, [r1], #4
 8000344:	f840 3b04 	str.w	r3, [r0], #4
 8000348:	f851 3b04 	ldr.w	r3, [r1], #4
 800034c:	f840 3b04 	str.w	r3, [r0], #4
 8000350:	f851 3b04 	ldr.w	r3, [r1], #4
 8000354:	f840 3b04 	str.w	r3, [r0], #4
 8000358:	f851 3b04 	ldr.w	r3, [r1], #4
 800035c:	f840 3b04 	str.w	r3, [r0], #4
 8000360:	f851 3b04 	ldr.w	r3, [r1], #4
 8000364:	f840 3b04 	str.w	r3, [r0], #4
 8000368:	f851 3b04 	ldr.w	r3, [r1], #4
 800036c:	f840 3b04 	str.w	r3, [r0], #4
 8000370:	f851 3b04 	ldr.w	r3, [r1], #4
 8000374:	f840 3b04 	str.w	r3, [r0], #4
 8000378:	3a40      	subs	r2, #64	; 0x40
 800037a:	d2bd      	bcs.n	80002f8 <memcpy+0x10>
 800037c:	3230      	adds	r2, #48	; 0x30
 800037e:	d311      	bcc.n	80003a4 <memcpy+0xbc>
 8000380:	f851 3b04 	ldr.w	r3, [r1], #4
 8000384:	f840 3b04 	str.w	r3, [r0], #4
 8000388:	f851 3b04 	ldr.w	r3, [r1], #4
 800038c:	f840 3b04 	str.w	r3, [r0], #4
 8000390:	f851 3b04 	ldr.w	r3, [r1], #4
 8000394:	f840 3b04 	str.w	r3, [r0], #4
 8000398:	f851 3b04 	ldr.w	r3, [r1], #4
 800039c:	f840 3b04 	str.w	r3, [r0], #4
 80003a0:	3a10      	subs	r2, #16
 80003a2:	d2ed      	bcs.n	8000380 <memcpy+0x98>
 80003a4:	320c      	adds	r2, #12
 80003a6:	d305      	bcc.n	80003b4 <memcpy+0xcc>
 80003a8:	f851 3b04 	ldr.w	r3, [r1], #4
 80003ac:	f840 3b04 	str.w	r3, [r0], #4
 80003b0:	3a04      	subs	r2, #4
 80003b2:	d2f9      	bcs.n	80003a8 <memcpy+0xc0>
 80003b4:	3204      	adds	r2, #4
 80003b6:	d008      	beq.n	80003ca <memcpy+0xe2>
 80003b8:	07d2      	lsls	r2, r2, #31
 80003ba:	bf1c      	itt	ne
 80003bc:	f811 3b01 	ldrbne.w	r3, [r1], #1
 80003c0:	f800 3b01 	strbne.w	r3, [r0], #1
 80003c4:	d301      	bcc.n	80003ca <memcpy+0xe2>
 80003c6:	880b      	ldrh	r3, [r1, #0]
 80003c8:	8003      	strh	r3, [r0, #0]
 80003ca:	4660      	mov	r0, ip
 80003cc:	4770      	bx	lr
 80003ce:	bf00      	nop
 80003d0:	2a08      	cmp	r2, #8
 80003d2:	d313      	bcc.n	80003fc <memcpy+0x114>
 80003d4:	078b      	lsls	r3, r1, #30
 80003d6:	d08d      	beq.n	80002f4 <memcpy+0xc>
 80003d8:	f010 0303 	ands.w	r3, r0, #3
 80003dc:	d08a      	beq.n	80002f4 <memcpy+0xc>
 80003de:	f1c3 0304 	rsb	r3, r3, #4
 80003e2:	1ad2      	subs	r2, r2, r3
 80003e4:	07db      	lsls	r3, r3, #31
 80003e6:	bf1c      	itt	ne
 80003e8:	f811 3b01 	ldrbne.w	r3, [r1], #1
 80003ec:	f800 3b01 	strbne.w	r3, [r0], #1
 80003f0:	d380      	bcc.n	80002f4 <memcpy+0xc>
 80003f2:	f831 3b02 	ldrh.w	r3, [r1], #2
 80003f6:	f820 3b02 	strh.w	r3, [r0], #2
 80003fa:	e77b      	b.n	80002f4 <memcpy+0xc>
 80003fc:	3a04      	subs	r2, #4
 80003fe:	d3d9      	bcc.n	80003b4 <memcpy+0xcc>
 8000400:	3a01      	subs	r2, #1
 8000402:	f811 3b01 	ldrb.w	r3, [r1], #1
 8000406:	f800 3b01 	strb.w	r3, [r0], #1
 800040a:	d2f9      	bcs.n	8000400 <memcpy+0x118>
 800040c:	780b      	ldrb	r3, [r1, #0]
 800040e:	7003      	strb	r3, [r0, #0]
 8000410:	784b      	ldrb	r3, [r1, #1]
 8000412:	7043      	strb	r3, [r0, #1]
 8000414:	788b      	ldrb	r3, [r1, #2]
 8000416:	7083      	strb	r3, [r0, #2]
 8000418:	4660      	mov	r0, ip
 800041a:	4770      	bx	lr
 800041c:	0000      	movs	r0, r0
	...

08000420 <chTMStartMeasurementX.constprop.2>:
 *
 * @return              The realtime counter value.
 */
static inline rtcnt_t port_rt_get_counter_value(void) {

  return DWT->CYCCNT;
 8000420:	4b01      	ldr	r3, [pc, #4]	; (8000428 <chTMStartMeasurementX.constprop.2+0x8>)
 8000422:	685b      	ldr	r3, [r3, #4]
 *
 * @xclass
 */
NOINLINE void chTMStartMeasurementX(time_measurement_t *tmp) {

  tmp->last = chSysGetRealtimeCounterX();
 8000424:	6083      	str	r3, [r0, #8]
 8000426:	4770      	bx	lr
 8000428:	e0001000 	.word	0xe0001000
 800042c:	00000000 	.word	0x00000000

08000430 <chCoreAllocAlignedWithOffset>:
 *
 * @api
 */
void *chCoreAllocAlignedWithOffset(size_t size,
                                   unsigned align,
                                   size_t offset) {
 8000430:	b4f0      	push	{r4, r5, r6, r7}
  \details Assigns the given value to the Base Priority register.
  \param [in]    basePri  Base Priority value to set
 */
__STATIC_FORCEINLINE void __set_BASEPRI(uint32_t basePri)
{
  __ASM volatile ("MSR basepri, %0" : : "r" (basePri) : "memory");
 8000432:	2320      	movs	r3, #32
 8000434:	f383 8811 	msr	BASEPRI, r3

  chDbgCheckClassI();
  chDbgCheck(MEM_IS_VALID_ALIGNMENT(align));

  size = MEM_ALIGN_NEXT(size, align);
  p = (uint8_t *)MEM_ALIGN_NEXT(ch_memcore.nextmem + offset, align);
 8000438:	4e0d      	ldr	r6, [pc, #52]	; (8000470 <chCoreAllocAlignedWithOffset+0x40>)
 800043a:	6837      	ldr	r7, [r6, #0]
  next = p + size;

  /* Considering also the case where there is numeric overflow.*/
  if ((next > ch_memcore.endmem) || (next < ch_memcore.nextmem)) {
 800043c:	6874      	ldr	r4, [r6, #4]
 800043e:	1e4d      	subs	r5, r1, #1

  chDbgCheckClassI();
  chDbgCheck(MEM_IS_VALID_ALIGNMENT(align));

  size = MEM_ALIGN_NEXT(size, align);
  p = (uint8_t *)MEM_ALIGN_NEXT(ch_memcore.nextmem + offset, align);
 8000440:	443a      	add	r2, r7
  next = p + size;
 8000442:	1943      	adds	r3, r0, r5
  uint8_t *p, *next;

  chDbgCheckClassI();
  chDbgCheck(MEM_IS_VALID_ALIGNMENT(align));

  size = MEM_ALIGN_NEXT(size, align);
 8000444:	4249      	negs	r1, r1
  p = (uint8_t *)MEM_ALIGN_NEXT(ch_memcore.nextmem + offset, align);
 8000446:	1950      	adds	r0, r2, r5
  next = p + size;
 8000448:	400b      	ands	r3, r1

  chDbgCheckClassI();
  chDbgCheck(MEM_IS_VALID_ALIGNMENT(align));

  size = MEM_ALIGN_NEXT(size, align);
  p = (uint8_t *)MEM_ALIGN_NEXT(ch_memcore.nextmem + offset, align);
 800044a:	4008      	ands	r0, r1
  next = p + size;
 800044c:	4403      	add	r3, r0

  /* Considering also the case where there is numeric overflow.*/
  if ((next > ch_memcore.endmem) || (next < ch_memcore.nextmem)) {
 800044e:	42a3      	cmp	r3, r4
 8000450:	d807      	bhi.n	8000462 <chCoreAllocAlignedWithOffset+0x32>
 8000452:	429f      	cmp	r7, r3
 8000454:	d805      	bhi.n	8000462 <chCoreAllocAlignedWithOffset+0x32>
    return NULL;
  }

  ch_memcore.nextmem = next;
 8000456:	6033      	str	r3, [r6, #0]
 8000458:	2300      	movs	r3, #0
 800045a:	f383 8811 	msr	BASEPRI, r3
  chSysLock();
  p = chCoreAllocAlignedWithOffsetI(size, align, offset);
  chSysUnlock();

  return p;
}
 800045e:	bcf0      	pop	{r4, r5, r6, r7}
 8000460:	4770      	bx	lr
  p = (uint8_t *)MEM_ALIGN_NEXT(ch_memcore.nextmem + offset, align);
  next = p + size;

  /* Considering also the case where there is numeric overflow.*/
  if ((next > ch_memcore.endmem) || (next < ch_memcore.nextmem)) {
    return NULL;
 8000462:	2000      	movs	r0, #0
 8000464:	2300      	movs	r3, #0
 8000466:	f383 8811 	msr	BASEPRI, r3
  chSysLock();
  p = chCoreAllocAlignedWithOffsetI(size, align, offset);
  chSysUnlock();

  return p;
}
 800046a:	bcf0      	pop	{r4, r5, r6, r7}
 800046c:	4770      	bx	lr
 800046e:	bf00      	nop
 8000470:	200008f4 	.word	0x200008f4
	...

08000480 <notify4>:

#if STM32_SERIAL_USE_UART4 || defined(__DOXYGEN__)
static void notify4(io_queue_t *qp) {

  (void)qp;
  UART4->CR1 |= USART_CR1_TXEIE | USART_CR1_TCIE;
 8000480:	4a02      	ldr	r2, [pc, #8]	; (800048c <notify4+0xc>)
 8000482:	68d3      	ldr	r3, [r2, #12]
 8000484:	f043 03c0 	orr.w	r3, r3, #192	; 0xc0
 8000488:	60d3      	str	r3, [r2, #12]
 800048a:	4770      	bx	lr
 800048c:	40004c00 	.word	0x40004c00

08000490 <_port_irq_epilogue>:
 8000490:	2320      	movs	r3, #32
 8000492:	f383 8811 	msr	BASEPRI, r3
 * @brief   Exception exit redirection to _port_switch_from_isr().
 */
void _port_irq_epilogue(void) {

  port_lock_from_isr();
  if ((SCB->ICSR & SCB_ICSR_RETTOBASE_Msk) != 0U) {
 8000496:	4b0f      	ldr	r3, [pc, #60]	; (80004d4 <_port_irq_epilogue+0x44>)
 8000498:	685b      	ldr	r3, [r3, #4]
 800049a:	f413 6300 	ands.w	r3, r3, #2048	; 0x800
 800049e:	d102      	bne.n	80004a6 <_port_irq_epilogue+0x16>
 80004a0:	f383 8811 	msr	BASEPRI, r3
 80004a4:	4770      	bx	lr
 */
__STATIC_FORCEINLINE uint32_t __get_PSP(void)
{
  uint32_t result;

  __ASM volatile ("MRS %0, psp"  : "=r" (result) );
 80004a6:	f3ef 8309 	mrs	r3, PSP
    /* Adding an artificial exception return context, there is no need to
       populate it fully.*/
    ctxp--;

    /* Setting up a fake XPSR register value.*/
    ctxp->xpsr = (regarm_t)0x01000000;
 80004aa:	f04f 7280 	mov.w	r2, #16777216	; 0x1000000
 80004ae:	f843 2c04 	str.w	r2, [r3, #-4]
  \details Assigns the given value to the Process Stack Pointer (PSP).
  \param [in]    topOfProcStack  Process Stack Pointer value to set
 */
__STATIC_FORCEINLINE void __set_PSP(uint32_t topOfProcStack)
{
  __ASM volatile ("MSR psp, %0" : : "r" (topOfProcStack) : );
 80004b2:	f1a3 0220 	sub.w	r2, r3, #32
 80004b6:	f382 8809 	msr	PSP, r2
 * @retval false        if preemption is not required.
 *
 * @special
 */
bool chSchIsPreemptionRequired(void) {
  tprio_t p1 = firstprio(&ch.rlist.queue);
 80004ba:	4a07      	ldr	r2, [pc, #28]	; (80004d8 <_port_irq_epilogue+0x48>)
 80004bc:	6811      	ldr	r1, [r2, #0]
  tprio_t p2 = currp->prio;
 80004be:	6992      	ldr	r2, [r2, #24]
    /* Writing back the modified PSP value.*/
    __set_PSP((uint32_t)ctxp);

    /* The exit sequence is different depending on if a preemption is
       required or not.*/
    if (chSchIsPreemptionRequired()) {
 80004c0:	6889      	ldr	r1, [r1, #8]
 80004c2:	6892      	ldr	r2, [r2, #8]
 80004c4:	4291      	cmp	r1, r2
      /* Preemption is required we need to enforce a context switch.*/
      ctxp->pc = (regarm_t)_port_switch_from_isr;
 80004c6:	bf8c      	ite	hi
 80004c8:	4a04      	ldrhi	r2, [pc, #16]	; (80004dc <_port_irq_epilogue+0x4c>)
    }
    else {
      /* Preemption not required, we just need to exit the exception
         atomically.*/
      ctxp->pc = (regarm_t)_port_exit_from_isr;
 80004ca:	4a05      	ldrls	r2, [pc, #20]	; (80004e0 <_port_irq_epilogue+0x50>)
 80004cc:	f843 2c08 	str.w	r2, [r3, #-8]
 80004d0:	4770      	bx	lr
 80004d2:	bf00      	nop
 80004d4:	e000ed00 	.word	0xe000ed00
 80004d8:	2000087c 	.word	0x2000087c
 80004dc:	080002e1 	.word	0x080002e1
 80004e0:	080002e4 	.word	0x080002e4
	...

080004f0 <chCoreAllocAlignedI>:
 * @return              A pointer to the allocated memory block.
 * @retval NULL         allocation failed, core memory exhausted.
 *
 * @iclass
 */
static inline void *chCoreAllocAlignedI(size_t size, unsigned align) {
 80004f0:	b470      	push	{r4, r5, r6}

  chDbgCheckClassI();
  chDbgCheck(MEM_IS_VALID_ALIGNMENT(align));

  size = MEM_ALIGN_NEXT(size, align);
  p = (uint8_t *)MEM_ALIGN_NEXT(ch_memcore.nextmem + offset, align);
 80004f2:	4d0b      	ldr	r5, [pc, #44]	; (8000520 <chCoreAllocAlignedI+0x30>)
 80004f4:	682e      	ldr	r6, [r5, #0]
  next = p + size;

  /* Considering also the case where there is numeric overflow.*/
  if ((next > ch_memcore.endmem) || (next < ch_memcore.nextmem)) {
 80004f6:	686b      	ldr	r3, [r5, #4]
  chDbgCheckClassI();
  chDbgCheck(MEM_IS_VALID_ALIGNMENT(align));

  size = MEM_ALIGN_NEXT(size, align);
  p = (uint8_t *)MEM_ALIGN_NEXT(ch_memcore.nextmem + offset, align);
  next = p + size;
 80004f8:	1e4c      	subs	r4, r1, #1

  chDbgCheckClassI();
  chDbgCheck(MEM_IS_VALID_ALIGNMENT(align));

  size = MEM_ALIGN_NEXT(size, align);
  p = (uint8_t *)MEM_ALIGN_NEXT(ch_memcore.nextmem + offset, align);
 80004fa:	1e72      	subs	r2, r6, #1
 80004fc:	440a      	add	r2, r1
  next = p + size;
 80004fe:	4404      	add	r4, r0
  uint8_t *p, *next;

  chDbgCheckClassI();
  chDbgCheck(MEM_IS_VALID_ALIGNMENT(align));

  size = MEM_ALIGN_NEXT(size, align);
 8000500:	4249      	negs	r1, r1
  p = (uint8_t *)MEM_ALIGN_NEXT(ch_memcore.nextmem + offset, align);
 8000502:	ea02 0001 	and.w	r0, r2, r1
  next = p + size;
 8000506:	4021      	ands	r1, r4
 8000508:	4401      	add	r1, r0

  /* Considering also the case where there is numeric overflow.*/
  if ((next > ch_memcore.endmem) || (next < ch_memcore.nextmem)) {
 800050a:	4299      	cmp	r1, r3
 800050c:	d804      	bhi.n	8000518 <chCoreAllocAlignedI+0x28>
 800050e:	428e      	cmp	r6, r1
 8000510:	d802      	bhi.n	8000518 <chCoreAllocAlignedI+0x28>
    return NULL;
  }

  ch_memcore.nextmem = next;
 8000512:	6029      	str	r1, [r5, #0]

  return chCoreAllocAlignedWithOffsetI(size, align, 0U);
}
 8000514:	bc70      	pop	{r4, r5, r6}
 8000516:	4770      	bx	lr
  p = (uint8_t *)MEM_ALIGN_NEXT(ch_memcore.nextmem + offset, align);
  next = p + size;

  /* Considering also the case where there is numeric overflow.*/
  if ((next > ch_memcore.endmem) || (next < ch_memcore.nextmem)) {
    return NULL;
 8000518:	2000      	movs	r0, #0
 800051a:	bc70      	pop	{r4, r5, r6}
 800051c:	4770      	bx	lr
 800051e:	bf00      	nop
 8000520:	200008f4 	.word	0x200008f4
	...

08000530 <chTMStopMeasurementX>:
 8000530:	4b0e      	ldr	r3, [pc, #56]	; (800056c <chTMStopMeasurementX+0x3c>)
 *
 * @xclass
 */
NOINLINE void chTMStopMeasurementX(time_measurement_t *tmp) {

  tm_stop(tmp, chSysGetRealtimeCounterX(), ch.tm.offset);
 8000532:	490f      	ldr	r1, [pc, #60]	; (8000570 <chTMStopMeasurementX+0x40>)
 8000534:	685a      	ldr	r2, [r3, #4]
static inline void tm_stop(time_measurement_t *tmp,
                           rtcnt_t now,
                           rtcnt_t offset) {

  tmp->n++;
  tmp->last = (now - tmp->last) - offset;
 8000536:	6883      	ldr	r3, [r0, #8]
 *
 * @param[in,out] tmp   pointer to a @p time_measurement_t structure
 *
 * @xclass
 */
NOINLINE void chTMStopMeasurementX(time_measurement_t *tmp) {
 8000538:	b4f0      	push	{r4, r5, r6, r7}

  tm_stop(tmp, chSysGetRealtimeCounterX(), ch.tm.offset);
 800053a:	6f4f      	ldr	r7, [r1, #116]	; 0x74
                           rtcnt_t offset) {

  tmp->n++;
  tmp->last = (now - tmp->last) - offset;
  tmp->cumulative += (rttime_t)tmp->last;
  if (tmp->last > tmp->worst) {
 800053c:	6841      	ldr	r1, [r0, #4]

static inline void tm_stop(time_measurement_t *tmp,
                           rtcnt_t now,
                           rtcnt_t offset) {

  tmp->n++;
 800053e:	68c6      	ldr	r6, [r0, #12]
  tmp->last = (now - tmp->last) - offset;
  tmp->cumulative += (rttime_t)tmp->last;
 8000540:	e9d0 4504 	ldrd	r4, r5, [r0, #16]
static inline void tm_stop(time_measurement_t *tmp,
                           rtcnt_t now,
                           rtcnt_t offset) {

  tmp->n++;
  tmp->last = (now - tmp->last) - offset;
 8000544:	1ad3      	subs	r3, r2, r3
 8000546:	1bdb      	subs	r3, r3, r7
  tmp->cumulative += (rttime_t)tmp->last;
 8000548:	18e4      	adds	r4, r4, r3
  if (tmp->last > tmp->worst) {
    tmp->worst = tmp->last;
  }
  if (tmp->last < tmp->best) {
 800054a:	6802      	ldr	r2, [r0, #0]
static inline void tm_stop(time_measurement_t *tmp,
                           rtcnt_t now,
                           rtcnt_t offset) {

  tmp->n++;
  tmp->last = (now - tmp->last) - offset;
 800054c:	6083      	str	r3, [r0, #8]
  tmp->cumulative += (rttime_t)tmp->last;
 800054e:	f145 0500 	adc.w	r5, r5, #0
  if (tmp->last > tmp->worst) {
 8000552:	428b      	cmp	r3, r1

static inline void tm_stop(time_measurement_t *tmp,
                           rtcnt_t now,
                           rtcnt_t offset) {

  tmp->n++;
 8000554:	f106 0601 	add.w	r6, r6, #1
  tmp->last = (now - tmp->last) - offset;
  tmp->cumulative += (rttime_t)tmp->last;
  if (tmp->last > tmp->worst) {
    tmp->worst = tmp->last;
 8000558:	bf88      	it	hi
 800055a:	6043      	strhi	r3, [r0, #4]
  }
  if (tmp->last < tmp->best) {
 800055c:	4293      	cmp	r3, r2

static inline void tm_stop(time_measurement_t *tmp,
                           rtcnt_t now,
                           rtcnt_t offset) {

  tmp->n++;
 800055e:	60c6      	str	r6, [r0, #12]
  tmp->last = (now - tmp->last) - offset;
  tmp->cumulative += (rttime_t)tmp->last;
 8000560:	e9c0 4504 	strd	r4, r5, [r0, #16]
  if (tmp->last > tmp->worst) {
    tmp->worst = tmp->last;
  }
  if (tmp->last < tmp->best) {
    tmp->best = tmp->last;
 8000564:	bf38      	it	cc
 8000566:	6003      	strcc	r3, [r0, #0]
 * @xclass
 */
NOINLINE void chTMStopMeasurementX(time_measurement_t *tmp) {

  tm_stop(tmp, chSysGetRealtimeCounterX(), ch.tm.offset);
}
 8000568:	bcf0      	pop	{r4, r5, r6, r7}
 800056a:	4770      	bx	lr
 800056c:	e0001000 	.word	0xe0001000
 8000570:	2000087c 	.word	0x2000087c
	...

08000580 <wakeup>:
}

/*
 * Timeout wakeup callback.
 */
static void wakeup(void *p) {
 8000580:	b410      	push	{r4}
  \details Assigns the given value to the Base Priority register.
  \param [in]    basePri  Base Priority value to set
 */
__STATIC_FORCEINLINE void __set_BASEPRI(uint32_t basePri)
{
  __ASM volatile ("MSR basepri, %0" : : "r" (basePri) : "memory");
 8000582:	2320      	movs	r3, #32
 8000584:	f383 8811 	msr	BASEPRI, r3
  thread_t *tp = (thread_t *)p;

  chSysLockFromISR();
  switch (tp->state) {
 8000588:	f890 3020 	ldrb.w	r3, [r0, #32]
 800058c:	2b07      	cmp	r3, #7
 800058e:	d80e      	bhi.n	80005ae <wakeup+0x2e>
 8000590:	e8df f003 	tbb	[pc, r3]
 8000594:	230d0d27 	.word	0x230d0d27
 8000598:	080d0408 	.word	0x080d0408
  case CH_STATE_SUSPENDED:
    *tp->u.wttrp = NULL;
    break;
#if CH_CFG_USE_SEMAPHORES == TRUE
  case CH_STATE_WTSEM:
    chSemFastSignalI(tp->u.wtsemp);
 800059c:	6a42      	ldr	r2, [r0, #36]	; 0x24
 */
static inline void chSemFastSignalI(semaphore_t *sp) {

  chDbgCheckClassI();

  sp->cnt++;
 800059e:	6893      	ldr	r3, [r2, #8]
 80005a0:	3301      	adds	r3, #1
 80005a2:	6093      	str	r3, [r2, #8]
  return tp;
}

static inline thread_t *queue_dequeue(thread_t *tp) {

  tp->queue.prev->queue.next = tp->queue.next;
 80005a4:	e890 000c 	ldmia.w	r0, {r2, r3}
 80005a8:	601a      	str	r2, [r3, #0]
  tp->queue.next->queue.prev = tp->queue.prev;
 80005aa:	6802      	ldr	r2, [r0, #0]
 80005ac:	6053      	str	r3, [r2, #4]
    break;
  default:
    /* Any other state, nothing to do.*/
    break;
  }
  tp->u.rdymsg = MSG_TIMEOUT;
 80005ae:	f04f 34ff 	mov.w	r4, #4294967295
  chDbgCheck(tp != NULL);
  chDbgAssert((tp->state != CH_STATE_READY) &&
              (tp->state != CH_STATE_FINAL),
              "invalid state");

  tp->state = CH_STATE_READY;
 80005b2:	2200      	movs	r2, #0
 80005b4:	6881      	ldr	r1, [r0, #8]
  cp = (thread_t *)&ch.rlist.queue;
 80005b6:	4b0d      	ldr	r3, [pc, #52]	; (80005ec <wakeup+0x6c>)
    break;
  default:
    /* Any other state, nothing to do.*/
    break;
  }
  tp->u.rdymsg = MSG_TIMEOUT;
 80005b8:	6244      	str	r4, [r0, #36]	; 0x24
  chDbgCheck(tp != NULL);
  chDbgAssert((tp->state != CH_STATE_READY) &&
              (tp->state != CH_STATE_FINAL),
              "invalid state");

  tp->state = CH_STATE_READY;
 80005ba:	f880 2020 	strb.w	r2, [r0, #32]
  cp = (thread_t *)&ch.rlist.queue;
  do {
    cp = cp->queue.next;
 80005be:	681b      	ldr	r3, [r3, #0]
  } while (cp->prio >= tp->prio);
 80005c0:	689a      	ldr	r2, [r3, #8]
 80005c2:	428a      	cmp	r2, r1
 80005c4:	d2fb      	bcs.n	80005be <wakeup+0x3e>
  /* Insertion on prev.*/
  tp->queue.next             = cp;
  tp->queue.prev             = cp->queue.prev;
 80005c6:	685a      	ldr	r2, [r3, #4]
 80005c8:	6042      	str	r2, [r0, #4]
  cp = (thread_t *)&ch.rlist.queue;
  do {
    cp = cp->queue.next;
  } while (cp->prio >= tp->prio);
  /* Insertion on prev.*/
  tp->queue.next             = cp;
 80005ca:	6003      	str	r3, [r0, #0]
 80005cc:	2100      	movs	r1, #0
  tp->queue.prev             = cp->queue.prev;
  tp->queue.prev->queue.next = tp;
 80005ce:	6010      	str	r0, [r2, #0]
  cp->queue.prev             = tp;
 80005d0:	6058      	str	r0, [r3, #4]
 80005d2:	f381 8811 	msr	BASEPRI, r1
    break;
  }
  tp->u.rdymsg = MSG_TIMEOUT;
  (void) chSchReadyI(tp);
  chSysUnlockFromISR();
}
 80005d6:	bc10      	pop	{r4}
 80005d8:	4770      	bx	lr
    /* Handling the special case where the thread has been made ready by
       another thread with higher priority.*/
    chSysUnlockFromISR();
    return;
  case CH_STATE_SUSPENDED:
    *tp->u.wttrp = NULL;
 80005da:	6a43      	ldr	r3, [r0, #36]	; 0x24
 80005dc:	2200      	movs	r2, #0
 80005de:	601a      	str	r2, [r3, #0]
 80005e0:	e7e5      	b.n	80005ae <wakeup+0x2e>
 80005e2:	2300      	movs	r3, #0
 80005e4:	f383 8811 	msr	BASEPRI, r3
    break;
  }
  tp->u.rdymsg = MSG_TIMEOUT;
  (void) chSchReadyI(tp);
  chSysUnlockFromISR();
}
 80005e8:	bc10      	pop	{r4}
 80005ea:	4770      	bx	lr
 80005ec:	2000087c 	.word	0x2000087c

080005f0 <chSchReadyI>:
  chDbgCheck(tp != NULL);
  chDbgAssert((tp->state != CH_STATE_READY) &&
              (tp->state != CH_STATE_FINAL),
              "invalid state");

  tp->state = CH_STATE_READY;
 80005f0:	2200      	movs	r2, #0
 80005f2:	6881      	ldr	r1, [r0, #8]
  cp = (thread_t *)&ch.rlist.queue;
 80005f4:	4b08      	ldr	r3, [pc, #32]	; (8000618 <chSchReadyI+0x28>)
 * @param[in] tp        the thread to be made ready
 * @return              The thread pointer.
 *
 * @iclass
 */
thread_t *chSchReadyI(thread_t *tp) {
 80005f6:	b410      	push	{r4}
 80005f8:	4604      	mov	r4, r0
  chDbgCheck(tp != NULL);
  chDbgAssert((tp->state != CH_STATE_READY) &&
              (tp->state != CH_STATE_FINAL),
              "invalid state");

  tp->state = CH_STATE_READY;
 80005fa:	f880 2020 	strb.w	r2, [r0, #32]
  cp = (thread_t *)&ch.rlist.queue;
  do {
    cp = cp->queue.next;
 80005fe:	681b      	ldr	r3, [r3, #0]
  } while (cp->prio >= tp->prio);
 8000600:	689a      	ldr	r2, [r3, #8]
 8000602:	428a      	cmp	r2, r1
 8000604:	d2fb      	bcs.n	80005fe <chSchReadyI+0xe>
  /* Insertion on prev.*/
  tp->queue.next             = cp;
  tp->queue.prev             = cp->queue.prev;
 8000606:	685a      	ldr	r2, [r3, #4]
 8000608:	6062      	str	r2, [r4, #4]
  cp = (thread_t *)&ch.rlist.queue;
  do {
    cp = cp->queue.next;
  } while (cp->prio >= tp->prio);
  /* Insertion on prev.*/
  tp->queue.next             = cp;
 800060a:	6023      	str	r3, [r4, #0]
  tp->queue.prev             = cp->queue.prev;
  tp->queue.prev->queue.next = tp;
  cp->queue.prev             = tp;

  return tp;
}
 800060c:	4620      	mov	r0, r4
    cp = cp->queue.next;
  } while (cp->prio >= tp->prio);
  /* Insertion on prev.*/
  tp->queue.next             = cp;
  tp->queue.prev             = cp->queue.prev;
  tp->queue.prev->queue.next = tp;
 800060e:	6014      	str	r4, [r2, #0]
  cp->queue.prev             = tp;
 8000610:	605c      	str	r4, [r3, #4]

  return tp;
}
 8000612:	bc10      	pop	{r4}
 8000614:	4770      	bx	lr
 8000616:	bf00      	nop
 8000618:	2000087c 	.word	0x2000087c
 800061c:	00000000 	.word	0x00000000

08000620 <chEvtBroadcastFlagsI.constprop.12>:
 * @param[in] esp       pointer to the @p event_source_t structure
 * @param[in] flags     the flags set to be added to the listener flags mask
 *
 * @iclass
 */
void chEvtBroadcastFlagsI(event_source_t *esp, eventflags_t flags) {
 8000620:	b5f8      	push	{r3, r4, r5, r6, r7, lr}
  event_listener_t *elp;

  chDbgCheckClassI();
  chDbgCheck(esp != NULL);

  elp = esp->next;
 8000622:	4f17      	ldr	r7, [pc, #92]	; (8000680 <chEvtBroadcastFlagsI.constprop.12+0x60>)
 8000624:	f857 4f04 	ldr.w	r4, [r7, #4]!
  /*lint -save -e9087 -e740 [11.3, 1.3] Cast required by list handling.*/
  while (elp != (event_listener_t *)esp) {
 8000628:	42bc      	cmp	r4, r7
 800062a:	d021      	beq.n	8000670 <chEvtBroadcastFlagsI.constprop.12+0x50>
 800062c:	4605      	mov	r5, r0
  /* Test on the AND/OR conditions wait states.*/
  if (((tp->state == CH_STATE_WTOREVT) &&
       ((tp->epending & tp->u.ewmask) != (eventmask_t)0)) ||
      ((tp->state == CH_STATE_WTANDEVT) &&
       ((tp->epending & tp->u.ewmask) == tp->u.ewmask))) {
    tp->u.rdymsg = MSG_OK;
 800062e:	2600      	movs	r6, #0
 8000630:	e002      	b.n	8000638 <chEvtBroadcastFlagsI.constprop.12+0x18>
       source does not emit any flag.*/
    if ((flags == (eventflags_t)0) ||
        ((flags & elp->wflags) != (eventflags_t)0)) {
      chEvtSignalI(elp->listener, elp->events);
    }
    elp = elp->next;
 8000632:	6824      	ldr	r4, [r4, #0]
  chDbgCheckClassI();
  chDbgCheck(esp != NULL);

  elp = esp->next;
  /*lint -save -e9087 -e740 [11.3, 1.3] Cast required by list handling.*/
  while (elp != (event_listener_t *)esp) {
 8000634:	42bc      	cmp	r4, r7
 8000636:	d01b      	beq.n	8000670 <chEvtBroadcastFlagsI.constprop.12+0x50>
  /*lint -restore*/
    elp->flags |= flags;
 8000638:	68e3      	ldr	r3, [r4, #12]
 800063a:	432b      	orrs	r3, r5
 800063c:	60e3      	str	r3, [r4, #12]
    /* When flags == 0 the thread will always be signaled because the
       source does not emit any flag.*/
    if ((flags == (eventflags_t)0) ||
 800063e:	b115      	cbz	r5, 8000646 <chEvtBroadcastFlagsI.constprop.12+0x26>
 8000640:	6923      	ldr	r3, [r4, #16]
 8000642:	421d      	tst	r5, r3
 8000644:	d0f5      	beq.n	8000632 <chEvtBroadcastFlagsI.constprop.12+0x12>
        ((flags & elp->wflags) != (eventflags_t)0)) {
      chEvtSignalI(elp->listener, elp->events);
 8000646:	6860      	ldr	r0, [r4, #4]
void chEvtSignalI(thread_t *tp, eventmask_t events) {

  chDbgCheckClassI();
  chDbgCheck(tp != NULL);

  tp->epending |= events;
 8000648:	68a1      	ldr	r1, [r4, #8]
 800064a:	6b43      	ldr	r3, [r0, #52]	; 0x34
  /* Test on the AND/OR conditions wait states.*/
  if (((tp->state == CH_STATE_WTOREVT) &&
 800064c:	f890 2020 	ldrb.w	r2, [r0, #32]
void chEvtSignalI(thread_t *tp, eventmask_t events) {

  chDbgCheckClassI();
  chDbgCheck(tp != NULL);

  tp->epending |= events;
 8000650:	430b      	orrs	r3, r1
  /* Test on the AND/OR conditions wait states.*/
  if (((tp->state == CH_STATE_WTOREVT) &&
 8000652:	2a0a      	cmp	r2, #10
void chEvtSignalI(thread_t *tp, eventmask_t events) {

  chDbgCheckClassI();
  chDbgCheck(tp != NULL);

  tp->epending |= events;
 8000654:	6343      	str	r3, [r0, #52]	; 0x34
  /* Test on the AND/OR conditions wait states.*/
  if (((tp->state == CH_STATE_WTOREVT) &&
 8000656:	d00c      	beq.n	8000672 <chEvtBroadcastFlagsI.constprop.12+0x52>
       ((tp->epending & tp->u.ewmask) != (eventmask_t)0)) ||
 8000658:	2a0b      	cmp	r2, #11
 800065a:	d1ea      	bne.n	8000632 <chEvtBroadcastFlagsI.constprop.12+0x12>
      ((tp->state == CH_STATE_WTANDEVT) &&
       ((tp->epending & tp->u.ewmask) == tp->u.ewmask))) {
 800065c:	6a42      	ldr	r2, [r0, #36]	; 0x24

  tp->epending |= events;
  /* Test on the AND/OR conditions wait states.*/
  if (((tp->state == CH_STATE_WTOREVT) &&
       ((tp->epending & tp->u.ewmask) != (eventmask_t)0)) ||
      ((tp->state == CH_STATE_WTANDEVT) &&
 800065e:	ea32 0303 	bics.w	r3, r2, r3
 8000662:	d1e6      	bne.n	8000632 <chEvtBroadcastFlagsI.constprop.12+0x12>
       ((tp->epending & tp->u.ewmask) == tp->u.ewmask))) {
    tp->u.rdymsg = MSG_OK;
 8000664:	6246      	str	r6, [r0, #36]	; 0x24
    (void) chSchReadyI(tp);
 8000666:	f7ff ffc3 	bl	80005f0 <chSchReadyI>
       source does not emit any flag.*/
    if ((flags == (eventflags_t)0) ||
        ((flags & elp->wflags) != (eventflags_t)0)) {
      chEvtSignalI(elp->listener, elp->events);
    }
    elp = elp->next;
 800066a:	6824      	ldr	r4, [r4, #0]
  chDbgCheckClassI();
  chDbgCheck(esp != NULL);

  elp = esp->next;
  /*lint -save -e9087 -e740 [11.3, 1.3] Cast required by list handling.*/
  while (elp != (event_listener_t *)esp) {
 800066c:	42bc      	cmp	r4, r7
 800066e:	d1e3      	bne.n	8000638 <chEvtBroadcastFlagsI.constprop.12+0x18>
 8000670:	bdf8      	pop	{r3, r4, r5, r6, r7, pc}
  chDbgCheckClassI();
  chDbgCheck(tp != NULL);

  tp->epending |= events;
  /* Test on the AND/OR conditions wait states.*/
  if (((tp->state == CH_STATE_WTOREVT) &&
 8000672:	6a42      	ldr	r2, [r0, #36]	; 0x24
 8000674:	4213      	tst	r3, r2
 8000676:	d0dc      	beq.n	8000632 <chEvtBroadcastFlagsI.constprop.12+0x12>
       ((tp->epending & tp->u.ewmask) != (eventmask_t)0)) ||
      ((tp->state == CH_STATE_WTANDEVT) &&
       ((tp->epending & tp->u.ewmask) == tp->u.ewmask))) {
    tp->u.rdymsg = MSG_OK;
 8000678:	6246      	str	r6, [r0, #36]	; 0x24
    (void) chSchReadyI(tp);
 800067a:	f7ff ffb9 	bl	80005f0 <chSchReadyI>
 800067e:	e7f4      	b.n	800066a <chEvtBroadcastFlagsI.constprop.12+0x4a>
 8000680:	20000800 	.word	0x20000800
	...

08000690 <_idle_thread>:
 *          that this thread is executed only if there are no other ready
 *          threads in the system.
 *
 * @param[in] p         the thread parameter, unused in this scenario
 */
static void _idle_thread(void *p) {
 8000690:	e7fe      	b.n	8000690 <_idle_thread>
 8000692:	bf00      	nop
	...

080006a0 <_ctl>:
#else
    break;
#endif
  }
  return MSG_OK;
}
 80006a0:	2000      	movs	r0, #0
 80006a2:	4770      	bx	lr
	...

080006b0 <chSchGoSleepS>:
 * @param[in] newstate  the new thread state
 *
 * @sclass
 */
void chSchGoSleepS(tstate_t newstate) {
  thread_t *otp = currp;
 80006b0:	4b08      	ldr	r3, [pc, #32]	; (80006d4 <chSchGoSleepS+0x24>)
 80006b2:	6999      	ldr	r1, [r3, #24]
  tp->queue.prev->queue.next = tp;
  tqp->prev                  = tp;
}

static inline thread_t *queue_fifo_remove(threads_queue_t *tqp) {
  thread_t *tp = tqp->next;
 80006b4:	681a      	ldr	r2, [r3, #0]
 *
 * @param[in] newstate  the new thread state
 *
 * @sclass
 */
void chSchGoSleepS(tstate_t newstate) {
 80006b6:	b410      	push	{r4}
  thread_t *otp = currp;

  chDbgCheckClassS();

  /* New state.*/
  otp->state = newstate;
 80006b8:	f881 0020 	strb.w	r0, [r1, #32]

  tqp->next             = tp->queue.next;
 80006bc:	6810      	ldr	r0, [r2, #0]
 80006be:	6018      	str	r0, [r3, #0]
  otp->ticks = (tslices_t)CH_CFG_TIME_QUANTUM;
#endif

  /* Next thread in ready list becomes current.*/
  currp = queue_fifo_remove(&ch.rlist.queue);
  currp->state = CH_STATE_CURRENT;
 80006c0:	2401      	movs	r4, #1
  tqp->next->queue.prev = (thread_t *)tqp;
 80006c2:	6043      	str	r3, [r0, #4]
 80006c4:	f882 4020 	strb.w	r4, [r2, #32]
  if (currp->prio == IDLEPRIO) {
    CH_CFG_IDLE_ENTER_HOOK();
  }

  /* Swap operation as tail call.*/
  chSysSwitch(currp, otp);
 80006c8:	4610      	mov	r0, r2
}
 80006ca:	bc10      	pop	{r4}
     time quantum when it will wakeup.*/
  otp->ticks = (tslices_t)CH_CFG_TIME_QUANTUM;
#endif

  /* Next thread in ready list becomes current.*/
  currp = queue_fifo_remove(&ch.rlist.queue);
 80006cc:	619a      	str	r2, [r3, #24]
  if (currp->prio == IDLEPRIO) {
    CH_CFG_IDLE_ENTER_HOOK();
  }

  /* Swap operation as tail call.*/
  chSysSwitch(currp, otp);
 80006ce:	f7ff bdf7 	b.w	80002c0 <_port_switch>
 80006d2:	bf00      	nop
 80006d4:	2000087c 	.word	0x2000087c
	...

080006e0 <chSchGoSleepTimeoutS>:
 * @return              The wakeup message.
 * @retval MSG_TIMEOUT  if a timeout occurs.
 *
 * @sclass
 */
msg_t chSchGoSleepTimeoutS(tstate_t newstate, sysinterval_t timeout) {
 80006e0:	b5f0      	push	{r4, r5, r6, r7, lr}

  chDbgCheckClassS();

  if (TIME_INFINITE != timeout) {
 80006e2:	1c4b      	adds	r3, r1, #1
 * @return              The wakeup message.
 * @retval MSG_TIMEOUT  if a timeout occurs.
 *
 * @sclass
 */
msg_t chSchGoSleepTimeoutS(tstate_t newstate, sysinterval_t timeout) {
 80006e4:	b087      	sub	sp, #28

  chDbgCheckClassS();

  if (TIME_INFINITE != timeout) {
 80006e6:	d04d      	beq.n	8000784 <chSchGoSleepTimeoutS+0xa4>
    virtual_timer_t vt;

    chVTDoSetI(&vt, timeout, wakeup, currp);
 80006e8:	4c42      	ldr	r4, [pc, #264]	; (80007f4 <chSchGoSleepTimeoutS+0x114>)
    if (delay < (sysinterval_t)CH_CFG_ST_TIMEDELTA) {
      delay = (sysinterval_t)CH_CFG_ST_TIMEDELTA;
    }

    /* Special case where the timers list is empty.*/
    if (&ch.vtlist == (virtual_timers_list_t *)ch.vtlist.next) {
 80006ea:	4625      	mov	r5, r4
  sysinterval_t delta;

  chDbgCheckClassI();
  chDbgCheck((vtp != NULL) && (vtfunc != NULL) && (delay != TIME_IMMEDIATE));

  vtp->par = par;
 80006ec:	69a3      	ldr	r3, [r4, #24]
 80006ee:	9305      	str	r3, [sp, #20]
    if (delay < (sysinterval_t)CH_CFG_ST_TIMEDELTA) {
      delay = (sysinterval_t)CH_CFG_ST_TIMEDELTA;
    }

    /* Special case where the timers list is empty.*/
    if (&ch.vtlist == (virtual_timers_list_t *)ch.vtlist.next) {
 80006f0:	f855 3f1c 	ldr.w	r3, [r5, #28]!
    systime_t now = chVTGetSystemTimeX();

    /* If the requested delay is lower than the minimum safe delta then it
       is raised to the minimum safe value.*/
    if (delay < (sysinterval_t)CH_CFG_ST_TIMEDELTA) {
      delay = (sysinterval_t)CH_CFG_ST_TIMEDELTA;
 80006f4:	2901      	cmp	r1, #1
 *
 * @notapi
 */
static inline systime_t st_lld_get_counter(void) {

  return (systime_t)STM32_ST_TIM->CNT;
 80006f6:	f04f 4e80 	mov.w	lr, #1073741824	; 0x40000000
 80006fa:	4607      	mov	r7, r0
 80006fc:	bf98      	it	ls
 80006fe:	2102      	movls	r1, #2

  chDbgCheckClassI();
  chDbgCheck((vtp != NULL) && (vtfunc != NULL) && (delay != TIME_IMMEDIATE));

  vtp->par = par;
  vtp->func = vtfunc;
 8000700:	483d      	ldr	r0, [pc, #244]	; (80007f8 <chSchGoSleepTimeoutS+0x118>)
 8000702:	f8de 2024 	ldr.w	r2, [lr, #36]	; 0x24
 8000706:	9004      	str	r0, [sp, #16]
    if (delay < (sysinterval_t)CH_CFG_ST_TIMEDELTA) {
      delay = (sysinterval_t)CH_CFG_ST_TIMEDELTA;
    }

    /* Special case where the timers list is empty.*/
    if (&ch.vtlist == (virtual_timers_list_t *)ch.vtlist.next) {
 8000708:	42ab      	cmp	r3, r5
 800070a:	d05d      	beq.n	80007c8 <chSchGoSleepTimeoutS+0xe8>
    /* Pointer to the first element in the delta list, which is non-empty.*/
    p = ch.vtlist.next;

    /* Delay as delta from 'lasttime'. Note, it can overflow and the value
       becomes lower than 'now'.*/
    delta = chTimeDiffX(ch.vtlist.lasttime, now) + delay;
 800070c:	6aa0      	ldr	r0, [r4, #40]	; 0x28
 */
static inline sysinterval_t chTimeDiffX(systime_t start, systime_t end) {

  /*lint -save -e9033 [10.8] This cast is required by the operation, it is
    known that the destination type can be wider.*/
  return (sysinterval_t)((systime_t)(end - start));
 800070e:	1a12      	subs	r2, r2, r0

    if (delta < chTimeDiffX(ch.vtlist.lasttime, now)) {
 8000710:	1889      	adds	r1, r1, r2
      /* Scenario where a very large delay excedeed the numeric range, it
         requires a special handling. We need to skip the first element and
         adjust the delta to wrap back in the previous numeric range.*/
      delta -= p->delta;
 8000712:	689a      	ldr	r2, [r3, #8]

    /* Delay as delta from 'lasttime'. Note, it can overflow and the value
       becomes lower than 'now'.*/
    delta = chTimeDiffX(ch.vtlist.lasttime, now) + delay;

    if (delta < chTimeDiffX(ch.vtlist.lasttime, now)) {
 8000714:	d232      	bcs.n	800077c <chSchGoSleepTimeoutS+0x9c>
         requires a special handling. We need to skip the first element and
         adjust the delta to wrap back in the previous numeric range.*/
      delta -= p->delta;
      p = p->next;
    }
    else if (delta < p->delta) {
 8000716:	4291      	cmp	r1, r2

#if CH_CFG_ST_RESOLUTION != CH_CFG_INTERVALS_SIZE
  chDbgCheck(interval <= (sysinterval_t)((systime_t)-1));
#endif

  return systime + (systime_t)interval;
 8000718:	bf3c      	itt	cc
 800071a:	1840      	addcc	r0, r0, r1
 *
 * @notapi
 */
static inline void st_lld_set_alarm(systime_t time) {

  STM32_ST_TIM->CCR[0] = (uint32_t)time;
 800071c:	f8ce 0034 	strcc.w	r0, [lr, #52]	; 0x34
  p = ch.vtlist.next;
#endif /* CH_CFG_ST_TIMEDELTA == 0 */

  /* The delta list is scanned in order to find the correct position for
     this timer. */
  while (p->delta < delta) {
 8000720:	4291      	cmp	r1, r2
 8000722:	d904      	bls.n	800072e <chSchGoSleepTimeoutS+0x4e>
    /* Debug assert if the timer is already in the list.*/
    chDbgAssert(p != vtp, "timer already armed");

    delta -= p->delta;
    p = p->next;
 8000724:	681b      	ldr	r3, [r3, #0]
     this timer. */
  while (p->delta < delta) {
    /* Debug assert if the timer is already in the list.*/
    chDbgAssert(p != vtp, "timer already armed");

    delta -= p->delta;
 8000726:	1a89      	subs	r1, r1, r2
  p = ch.vtlist.next;
#endif /* CH_CFG_ST_TIMEDELTA == 0 */

  /* The delta list is scanned in order to find the correct position for
     this timer. */
  while (p->delta < delta) {
 8000728:	689a      	ldr	r2, [r3, #8]
 800072a:	428a      	cmp	r2, r1
 800072c:	d3fa      	bcc.n	8000724 <chSchGoSleepTimeoutS+0x44>
    p = p->next;
  }

  /* The timer is inserted in the delta list.*/
  vtp->next = p;
  vtp->prev = vtp->next->prev;
 800072e:	685a      	ldr	r2, [r3, #4]
 8000730:	9202      	str	r2, [sp, #8]
  vtp->prev->next = vtp;
 8000732:	ae01      	add	r6, sp, #4
    delta -= p->delta;
    p = p->next;
  }

  /* The timer is inserted in the delta list.*/
  vtp->next = p;
 8000734:	9301      	str	r3, [sp, #4]
  vtp->prev = vtp->next->prev;
  vtp->prev->next = vtp;
 8000736:	6016      	str	r6, [r2, #0]
  p->prev = vtp;
 8000738:	605e      	str	r6, [r3, #4]
  vtp->delta = delta;
 800073a:	9103      	str	r1, [sp, #12]

  /* Calculate new delta for the following entry.*/
  p->delta -= delta;
 800073c:	689a      	ldr	r2, [r3, #8]
 800073e:	1a51      	subs	r1, r2, r1

  /* Special case when the timer is in last position in the list, the
     value in the header must be restored.*/
  ch.vtlist.delta = (sysinterval_t)-1;
 8000740:	f04f 32ff 	mov.w	r2, #4294967295
  vtp->prev->next = vtp;
  p->prev = vtp;
  vtp->delta = delta;

  /* Calculate new delta for the following entry.*/
  p->delta -= delta;
 8000744:	6099      	str	r1, [r3, #8]

  /* Special case when the timer is in last position in the list, the
     value in the header must be restored.*/
  ch.vtlist.delta = (sysinterval_t)-1;
 8000746:	6262      	str	r2, [r4, #36]	; 0x24
    chSchGoSleepS(newstate);
 8000748:	4638      	mov	r0, r7
 800074a:	f7ff ffb1 	bl	80006b0 <chSchGoSleepS>
    if (chVTIsArmedI(&vt)) {
 800074e:	9b04      	ldr	r3, [sp, #16]
 8000750:	b183      	cbz	r3, 8000774 <chSchGoSleepTimeoutS+0x94>
#else /* CH_CFG_ST_TIMEDELTA > 0 */
  sysinterval_t nowdelta, delta;

  /* If the timer is not the first of the list then it is simply unlinked
     else the operation is more complex.*/
  if (ch.vtlist.next != vtp) {
 8000752:	69e3      	ldr	r3, [r4, #28]
 8000754:	4a27      	ldr	r2, [pc, #156]	; (80007f4 <chSchGoSleepTimeoutS+0x114>)
 8000756:	42b3      	cmp	r3, r6
 8000758:	d01b      	beq.n	8000792 <chSchGoSleepTimeoutS+0xb2>
    /* Removing the element from the delta list.*/
    vtp->prev->next = vtp->next;
 800075a:	9a02      	ldr	r2, [sp, #8]
 800075c:	9b01      	ldr	r3, [sp, #4]
 800075e:	6013      	str	r3, [r2, #0]
    vtp->next->prev = vtp->prev;
 8000760:	9b01      	ldr	r3, [sp, #4]
    vtp->func = NULL;
 8000762:	2100      	movs	r1, #0

    /* Adding delta to the next element, if it is not the last one.*/
    if (&ch.vtlist != (virtual_timers_list_t *)vtp->next)
 8000764:	42ab      	cmp	r3, r5
  /* If the timer is not the first of the list then it is simply unlinked
     else the operation is more complex.*/
  if (ch.vtlist.next != vtp) {
    /* Removing the element from the delta list.*/
    vtp->prev->next = vtp->next;
    vtp->next->prev = vtp->prev;
 8000766:	605a      	str	r2, [r3, #4]
    vtp->func = NULL;
 8000768:	9104      	str	r1, [sp, #16]

    /* Adding delta to the next element, if it is not the last one.*/
    if (&ch.vtlist != (virtual_timers_list_t *)vtp->next)
 800076a:	d003      	beq.n	8000774 <chSchGoSleepTimeoutS+0x94>
      vtp->next->delta += vtp->delta;
 800076c:	6899      	ldr	r1, [r3, #8]
 800076e:	9a03      	ldr	r2, [sp, #12]
 8000770:	440a      	add	r2, r1
 8000772:	609a      	str	r2, [r3, #8]
  }
  else {
    chSchGoSleepS(newstate);
  }

  return currp->u.rdymsg;
 8000774:	69a3      	ldr	r3, [r4, #24]
}
 8000776:	6a58      	ldr	r0, [r3, #36]	; 0x24
 8000778:	b007      	add	sp, #28
 800077a:	bdf0      	pop	{r4, r5, r6, r7, pc}
    if (delta < chTimeDiffX(ch.vtlist.lasttime, now)) {
      /* Scenario where a very large delay excedeed the numeric range, it
         requires a special handling. We need to skip the first element and
         adjust the delta to wrap back in the previous numeric range.*/
      delta -= p->delta;
      p = p->next;
 800077c:	681b      	ldr	r3, [r3, #0]

    if (delta < chTimeDiffX(ch.vtlist.lasttime, now)) {
      /* Scenario where a very large delay excedeed the numeric range, it
         requires a special handling. We need to skip the first element and
         adjust the delta to wrap back in the previous numeric range.*/
      delta -= p->delta;
 800077e:	1a89      	subs	r1, r1, r2
 8000780:	689a      	ldr	r2, [r3, #8]
 8000782:	e7cd      	b.n	8000720 <chSchGoSleepTimeoutS+0x40>
 8000784:	4c1b      	ldr	r4, [pc, #108]	; (80007f4 <chSchGoSleepTimeoutS+0x114>)
    if (chVTIsArmedI(&vt)) {
      chVTDoResetI(&vt);
    }
  }
  else {
    chSchGoSleepS(newstate);
 8000786:	f7ff ff93 	bl	80006b0 <chSchGoSleepS>
  }

  return currp->u.rdymsg;
 800078a:	69a3      	ldr	r3, [r4, #24]
}
 800078c:	6a58      	ldr	r0, [r3, #36]	; 0x24
 800078e:	b007      	add	sp, #28
 8000790:	bdf0      	pop	{r4, r5, r6, r7, pc}

    return;
  }

  /* Removing the first timer from the list.*/
  ch.vtlist.next = vtp->next;
 8000792:	9901      	ldr	r1, [sp, #4]
 8000794:	61d1      	str	r1, [r2, #28]
  ch.vtlist.next->prev = (virtual_timer_t *)&ch.vtlist;
  vtp->func = NULL;
 8000796:	2300      	movs	r3, #0

  /* If the list become empty then the alarm timer is stopped and done.*/
  if (&ch.vtlist == (virtual_timers_list_t *)ch.vtlist.next) {
 8000798:	42a9      	cmp	r1, r5
    return;
  }

  /* Removing the first timer from the list.*/
  ch.vtlist.next = vtp->next;
  ch.vtlist.next->prev = (virtual_timer_t *)&ch.vtlist;
 800079a:	604d      	str	r5, [r1, #4]
  vtp->func = NULL;
 800079c:	9304      	str	r3, [sp, #16]

  /* If the list become empty then the alarm timer is stopped and done.*/
  if (&ch.vtlist == (virtual_timers_list_t *)ch.vtlist.next) {
 800079e:	d024      	beq.n	80007ea <chSchGoSleepTimeoutS+0x10a>

    return;
  }

  /* The delta of the removed timer is added to the new first timer.*/
  ch.vtlist.next->delta += vtp->delta;
 80007a0:	688d      	ldr	r5, [r1, #8]
 80007a2:	9b03      	ldr	r3, [sp, #12]
/*  if (ch.vtlist.next->delta == 0) {
    return;
  }*/

  /* Distance in ticks between the last alarm event and current time.*/
  nowdelta = chTimeDiffX(ch.vtlist.lasttime, chVTGetSystemTimeX());
 80007a4:	6a90      	ldr	r0, [r2, #40]	; 0x28

    return;
  }

  /* The delta of the removed timer is added to the new first timer.*/
  ch.vtlist.next->delta += vtp->delta;
 80007a6:	442b      	add	r3, r5
 *
 * @notapi
 */
static inline systime_t st_lld_get_counter(void) {

  return (systime_t)STM32_ST_TIM->CNT;
 80007a8:	f04f 4280 	mov.w	r2, #1073741824	; 0x40000000
 80007ac:	608b      	str	r3, [r1, #8]
 80007ae:	6a52      	ldr	r2, [r2, #36]	; 0x24
 */
static inline sysinterval_t chTimeDiffX(systime_t start, systime_t end) {

  /*lint -save -e9033 [10.8] This cast is required by the operation, it is
    known that the destination type can be wider.*/
  return (sysinterval_t)((systime_t)(end - start));
 80007b0:	1a12      	subs	r2, r2, r0
  /* Distance in ticks between the last alarm event and current time.*/
  nowdelta = chTimeDiffX(ch.vtlist.lasttime, chVTGetSystemTimeX());

  /* If the current time surpassed the time of the next element in list
     then the event interrupt is already pending, just return.*/
  if (nowdelta >= ch.vtlist.next->delta) {
 80007b2:	4293      	cmp	r3, r2
 80007b4:	d9de      	bls.n	8000774 <chSchGoSleepTimeoutS+0x94>
  /* Distance from the next scheduled event and now.*/
  delta = ch.vtlist.next->delta - nowdelta;

  /* Making sure to not schedule an event closer than CH_CFG_ST_TIMEDELTA
     ticks from now.*/
  if (delta < (sysinterval_t)CH_CFG_ST_TIMEDELTA) {
 80007b6:	1a99      	subs	r1, r3, r2
 80007b8:	2901      	cmp	r1, #1
    delta = nowdelta + (sysinterval_t)CH_CFG_ST_TIMEDELTA;
 80007ba:	bf98      	it	ls
 80007bc:	1c93      	addls	r3, r2, #2
 *
 * @notapi
 */
static inline void st_lld_set_alarm(systime_t time) {

  STM32_ST_TIM->CCR[0] = (uint32_t)time;
 80007be:	f04f 4280 	mov.w	r2, #1073741824	; 0x40000000

#if CH_CFG_ST_RESOLUTION != CH_CFG_INTERVALS_SIZE
  chDbgCheck(interval <= (sysinterval_t)((systime_t)-1));
#endif

  return systime + (systime_t)interval;
 80007c2:	4403      	add	r3, r0
 80007c4:	6353      	str	r3, [r2, #52]	; 0x34
 80007c6:	e7d5      	b.n	8000774 <chSchGoSleepTimeoutS+0x94>
    /* Special case where the timers list is empty.*/
    if (&ch.vtlist == (virtual_timers_list_t *)ch.vtlist.next) {

      /* The delta list is empty, the current time becomes the new
         delta list base time, the timer is inserted.*/
      ch.vtlist.lasttime = now;
 80007c8:	62a2      	str	r2, [r4, #40]	; 0x28
 80007ca:	1850      	adds	r0, r2, r1
      ch.vtlist.next = vtp;
 80007cc:	ae01      	add	r6, sp, #4
 * @notapi
 */
static inline void st_lld_start_alarm(systime_t time) {

  STM32_ST_TIM->CCR[0] = (uint32_t)time;
  STM32_ST_TIM->SR     = 0;
 80007ce:	2200      	movs	r2, #0
  STM32_ST_TIM->DIER   = STM32_TIM_DIER_CC1IE;
 80007d0:	2302      	movs	r3, #2
      ch.vtlist.prev = vtp;
      vtp->next = (virtual_timer_t *)&ch.vtlist;
 80007d2:	9501      	str	r5, [sp, #4]
      vtp->prev = (virtual_timer_t *)&ch.vtlist;
 80007d4:	9502      	str	r5, [sp, #8]
      vtp->delta = delay;
 80007d6:	9103      	str	r1, [sp, #12]
    if (&ch.vtlist == (virtual_timers_list_t *)ch.vtlist.next) {

      /* The delta list is empty, the current time becomes the new
         delta list base time, the timer is inserted.*/
      ch.vtlist.lasttime = now;
      ch.vtlist.next = vtp;
 80007d8:	61e6      	str	r6, [r4, #28]
      ch.vtlist.prev = vtp;
 80007da:	6226      	str	r6, [r4, #32]
 *
 * @notapi
 */
static inline void st_lld_start_alarm(systime_t time) {

  STM32_ST_TIM->CCR[0] = (uint32_t)time;
 80007dc:	f8ce 0034 	str.w	r0, [lr, #52]	; 0x34
  STM32_ST_TIM->SR     = 0;
 80007e0:	f8ce 2010 	str.w	r2, [lr, #16]
  STM32_ST_TIM->DIER   = STM32_TIM_DIER_CC1IE;
 80007e4:	f8ce 300c 	str.w	r3, [lr, #12]
 80007e8:	e7ae      	b.n	8000748 <chSchGoSleepTimeoutS+0x68>
 *
 * @notapi
 */
static inline void st_lld_stop_alarm(void) {

  STM32_ST_TIM->DIER = 0;
 80007ea:	f04f 4280 	mov.w	r2, #1073741824	; 0x40000000
 80007ee:	60d3      	str	r3, [r2, #12]
 80007f0:	e7c0      	b.n	8000774 <chSchGoSleepTimeoutS+0x94>
 80007f2:	bf00      	nop
 80007f4:	2000087c 	.word	0x2000087c
 80007f8:	08000581 	.word	0x08000581
 80007fc:	00000000 	.word	0x00000000

08000800 <chThdEnqueueTimeoutS>:
 *
 * @sclass
 */
msg_t chThdEnqueueTimeoutS(threads_queue_t *tqp, sysinterval_t timeout) {

  if (TIME_IMMEDIATE == timeout) {
 8000800:	b161      	cbz	r1, 800081c <chThdEnqueueTimeoutS+0x1c>
    return MSG_TIMEOUT;
  }

  queue_insert(currp, tqp);
 8000802:	4b08      	ldr	r3, [pc, #32]	; (8000824 <chThdEnqueueTimeoutS+0x24>)
 *                      invoked with @p TIME_IMMEDIATE as timeout
 *                      specification.
 *
 * @sclass
 */
msg_t chThdEnqueueTimeoutS(threads_queue_t *tqp, sysinterval_t timeout) {
 8000804:	b410      	push	{r4}
 8000806:	4602      	mov	r2, r0
}

static inline void queue_insert(thread_t *tp, threads_queue_t *tqp) {

  tp->queue.next             = (thread_t *)tqp;
  tp->queue.prev             = tqp->prev;
 8000808:	6844      	ldr	r4, [r0, #4]

  if (TIME_IMMEDIATE == timeout) {
    return MSG_TIMEOUT;
  }

  queue_insert(currp, tqp);
 800080a:	699b      	ldr	r3, [r3, #24]

  return chSchGoSleepTimeoutS(CH_STATE_QUEUED, timeout);
 800080c:	2004      	movs	r0, #4
 800080e:	e883 0014 	stmia.w	r3, {r2, r4}
  tp->queue.prev->queue.next = tp;
 8000812:	6023      	str	r3, [r4, #0]
  tqp->prev                  = tp;
 8000814:	6053      	str	r3, [r2, #4]
}
 8000816:	bc10      	pop	{r4}
    return MSG_TIMEOUT;
  }

  queue_insert(currp, tqp);

  return chSchGoSleepTimeoutS(CH_STATE_QUEUED, timeout);
 8000818:	f7ff bf62 	b.w	80006e0 <chSchGoSleepTimeoutS>
}
 800081c:	f04f 30ff 	mov.w	r0, #4294967295
 8000820:	4770      	bx	lr
 8000822:	bf00      	nop
 8000824:	2000087c 	.word	0x2000087c
	...

08000830 <oqPutTimeout>:
 * @retval MSG_TIMEOUT  if the specified time expired.
 * @retval MSG_RESET    if the queue has been reset.
 *
 * @api
 */
msg_t oqPutTimeout(output_queue_t *oqp, uint8_t b, sysinterval_t timeout) {
 8000830:	b5f8      	push	{r3, r4, r5, r6, r7, lr}
 8000832:	4604      	mov	r4, r0
 8000834:	460f      	mov	r7, r1
 8000836:	4616      	mov	r6, r2
 8000838:	2320      	movs	r3, #32
 800083a:	f383 8811 	msr	BASEPRI, r3
 800083e:	e003      	b.n	8000848 <oqPutTimeout+0x18>
 * @sclass
 */
static inline msg_t osalThreadEnqueueTimeoutS(threads_queue_t *tqp,
                                              sysinterval_t timeout) {

  return chThdEnqueueTimeoutS(tqp, timeout);
 8000840:	f7ff ffde 	bl	8000800 <chThdEnqueueTimeoutS>
  osalSysLock();

  /* Waiting until there is a slot available or a timeout occurs.*/
  while (oqIsFullI(oqp)) {
    msg_t msg = osalThreadEnqueueTimeoutS(&oqp->q_waiting, timeout);
    if (msg < MSG_OK) {
 8000844:	2800      	cmp	r0, #0
 8000846:	db19      	blt.n	800087c <oqPutTimeout+0x4c>
msg_t oqPutTimeout(output_queue_t *oqp, uint8_t b, sysinterval_t timeout) {

  osalSysLock();

  /* Waiting until there is a slot available or a timeout occurs.*/
  while (oqIsFullI(oqp)) {
 8000848:	68a5      	ldr	r5, [r4, #8]
 800084a:	4631      	mov	r1, r6
 800084c:	4620      	mov	r0, r4
 800084e:	2d00      	cmp	r5, #0
 8000850:	d0f6      	beq.n	8000840 <oqPutTimeout+0x10>
    }
  }

  /* Putting the character into the queue.*/
  oqp->q_counter--;
  *oqp->q_wrptr++ = b;
 8000852:	6962      	ldr	r2, [r4, #20]
      return msg;
    }
  }

  /* Putting the character into the queue.*/
  oqp->q_counter--;
 8000854:	68a3      	ldr	r3, [r4, #8]
  *oqp->q_wrptr++ = b;
 8000856:	1c51      	adds	r1, r2, #1
      return msg;
    }
  }

  /* Putting the character into the queue.*/
  oqp->q_counter--;
 8000858:	3b01      	subs	r3, #1
  *oqp->q_wrptr++ = b;
 800085a:	6161      	str	r1, [r4, #20]
      return msg;
    }
  }

  /* Putting the character into the queue.*/
  oqp->q_counter--;
 800085c:	60a3      	str	r3, [r4, #8]
  *oqp->q_wrptr++ = b;
 800085e:	7017      	strb	r7, [r2, #0]
  if (oqp->q_wrptr >= oqp->q_top) {
 8000860:	6923      	ldr	r3, [r4, #16]
 8000862:	6962      	ldr	r2, [r4, #20]
 8000864:	429a      	cmp	r2, r3
    oqp->q_wrptr = oqp->q_buffer;
 8000866:	bf24      	itt	cs
 8000868:	68e3      	ldrcs	r3, [r4, #12]
 800086a:	6163      	strcs	r3, [r4, #20]
  }

  /* Inform the low side that the queue has at least one character available.*/
  if (oqp->q_notify != NULL) {
 800086c:	69e3      	ldr	r3, [r4, #28]
 800086e:	b10b      	cbz	r3, 8000874 <oqPutTimeout+0x44>
    oqp->q_notify(oqp);
 8000870:	4620      	mov	r0, r4
 8000872:	4798      	blx	r3
 8000874:	2000      	movs	r0, #0
 8000876:	f380 8811 	msr	BASEPRI, r0
  }

  osalSysUnlock();

  return MSG_OK;
}
 800087a:	bdf8      	pop	{r3, r4, r5, r6, r7, pc}
 800087c:	f385 8811 	msr	BASEPRI, r5
 8000880:	bdf8      	pop	{r3, r4, r5, r6, r7, pc}
 8000882:	bf00      	nop
	...

08000890 <_putt>:
  return iqGetTimeout(&((SerialDriver *)ip)->iqueue, TIME_INFINITE);
}

static msg_t _putt(void *ip, uint8_t b, sysinterval_t timeout) {

  return oqPutTimeout(&((SerialDriver *)ip)->oqueue, b, timeout);
 8000890:	3030      	adds	r0, #48	; 0x30
 8000892:	f7ff bfcd 	b.w	8000830 <oqPutTimeout>
 8000896:	bf00      	nop
	...

080008a0 <_put>:
                       n, TIME_INFINITE);
}

static msg_t _put(void *ip, uint8_t b) {

  return oqPutTimeout(&((SerialDriver *)ip)->oqueue, b, TIME_INFINITE);
 80008a0:	3030      	adds	r0, #48	; 0x30
 80008a2:	f04f 32ff 	mov.w	r2, #4294967295
 80008a6:	f7ff bfc3 	b.w	8000830 <oqPutTimeout>
 80008aa:	bf00      	nop
 80008ac:	0000      	movs	r0, r0
	...

080008b0 <iqGetTimeout>:
 * @retval MSG_TIMEOUT  if the specified time expired.
 * @retval MSG_RESET    if the queue has been reset.
 *
 * @api
 */
msg_t iqGetTimeout(input_queue_t *iqp, sysinterval_t timeout) {
 80008b0:	b570      	push	{r4, r5, r6, lr}
 80008b2:	2320      	movs	r3, #32
 80008b4:	4604      	mov	r4, r0
 80008b6:	460e      	mov	r6, r1
 80008b8:	f383 8811 	msr	BASEPRI, r3
 80008bc:	e003      	b.n	80008c6 <iqGetTimeout+0x16>
 80008be:	f7ff ff9f 	bl	8000800 <chThdEnqueueTimeoutS>
  osalSysLock();

  /* Waiting until there is a character available or a timeout occurs.*/
  while (iqIsEmptyI(iqp)) {
    msg_t msg = osalThreadEnqueueTimeoutS(&iqp->q_waiting, timeout);
    if (msg < MSG_OK) {
 80008c2:	2800      	cmp	r0, #0
 80008c4:	db1a      	blt.n	80008fc <iqGetTimeout+0x4c>
  uint8_t b;

  osalSysLock();

  /* Waiting until there is a character available or a timeout occurs.*/
  while (iqIsEmptyI(iqp)) {
 80008c6:	68a5      	ldr	r5, [r4, #8]
 80008c8:	4631      	mov	r1, r6
 80008ca:	4620      	mov	r0, r4
 80008cc:	2d00      	cmp	r5, #0
 80008ce:	d0f6      	beq.n	80008be <iqGetTimeout+0xe>
    }
  }

  /* Getting the character from the queue.*/
  iqp->q_counter--;
  b = *iqp->q_rdptr++;
 80008d0:	69a1      	ldr	r1, [r4, #24]
      return msg;
    }
  }

  /* Getting the character from the queue.*/
  iqp->q_counter--;
 80008d2:	68a3      	ldr	r3, [r4, #8]
  b = *iqp->q_rdptr++;
  if (iqp->q_rdptr >= iqp->q_top) {
 80008d4:	6920      	ldr	r0, [r4, #16]
    }
  }

  /* Getting the character from the queue.*/
  iqp->q_counter--;
  b = *iqp->q_rdptr++;
 80008d6:	1c4a      	adds	r2, r1, #1
      return msg;
    }
  }

  /* Getting the character from the queue.*/
  iqp->q_counter--;
 80008d8:	3b01      	subs	r3, #1
  b = *iqp->q_rdptr++;
  if (iqp->q_rdptr >= iqp->q_top) {
 80008da:	4282      	cmp	r2, r0
      return msg;
    }
  }

  /* Getting the character from the queue.*/
  iqp->q_counter--;
 80008dc:	60a3      	str	r3, [r4, #8]
  b = *iqp->q_rdptr++;
 80008de:	61a2      	str	r2, [r4, #24]
  if (iqp->q_rdptr >= iqp->q_top) {
    iqp->q_rdptr = iqp->q_buffer;
 80008e0:	bf28      	it	cs
 80008e2:	68e3      	ldrcs	r3, [r4, #12]
    }
  }

  /* Getting the character from the queue.*/
  iqp->q_counter--;
  b = *iqp->q_rdptr++;
 80008e4:	780d      	ldrb	r5, [r1, #0]
  if (iqp->q_rdptr >= iqp->q_top) {
    iqp->q_rdptr = iqp->q_buffer;
 80008e6:	bf28      	it	cs
 80008e8:	61a3      	strcs	r3, [r4, #24]
  }

  /* Inform the low side that the queue has at least one slot available.*/
  if (iqp->q_notify != NULL) {
 80008ea:	69e3      	ldr	r3, [r4, #28]
 80008ec:	b10b      	cbz	r3, 80008f2 <iqGetTimeout+0x42>
    iqp->q_notify(iqp);
 80008ee:	4620      	mov	r0, r4
 80008f0:	4798      	blx	r3
 80008f2:	2300      	movs	r3, #0
 80008f4:	f383 8811 	msr	BASEPRI, r3
  }

  osalSysUnlock();

  return (msg_t)b;
 80008f8:	4628      	mov	r0, r5
}
 80008fa:	bd70      	pop	{r4, r5, r6, pc}
 80008fc:	f385 8811 	msr	BASEPRI, r5
 8000900:	bd70      	pop	{r4, r5, r6, pc}
 8000902:	bf00      	nop
	...

08000910 <_gett>:
  return oqPutTimeout(&((SerialDriver *)ip)->oqueue, b, timeout);
}

static msg_t _gett(void *ip, sysinterval_t timeout) {

  return iqGetTimeout(&((SerialDriver *)ip)->iqueue, timeout);
 8000910:	300c      	adds	r0, #12
 8000912:	f7ff bfcd 	b.w	80008b0 <iqGetTimeout>
 8000916:	bf00      	nop
	...

08000920 <_get>:
  return oqPutTimeout(&((SerialDriver *)ip)->oqueue, b, TIME_INFINITE);
}

static msg_t _get(void *ip) {

  return iqGetTimeout(&((SerialDriver *)ip)->iqueue, TIME_INFINITE);
 8000920:	300c      	adds	r0, #12
 8000922:	f04f 31ff 	mov.w	r1, #4294967295
 8000926:	f7ff bfc3 	b.w	80008b0 <iqGetTimeout>
 800092a:	bf00      	nop
 800092c:	0000      	movs	r0, r0
	...

08000930 <oqWriteTimeout>:
 * @return              The number of bytes effectively transferred.
 *
 * @api
 */
size_t oqWriteTimeout(output_queue_t *oqp, const uint8_t *bp,
                      size_t n, sysinterval_t timeout) {
 8000930:	e92d 4ff0 	stmdb	sp!, {r4, r5, r6, r7, r8, r9, sl, fp, lr}
 8000934:	b085      	sub	sp, #20
  qnotify_t nfy = oqp->q_notify;
 8000936:	f8d0 901c 	ldr.w	r9, [r0, #28]
 * @return              The number of bytes effectively transferred.
 *
 * @api
 */
size_t oqWriteTimeout(output_queue_t *oqp, const uint8_t *bp,
                      size_t n, sysinterval_t timeout) {
 800093a:	9203      	str	r2, [sp, #12]
 800093c:	9302      	str	r3, [sp, #8]
 800093e:	f04f 0a20 	mov.w	sl, #32
 8000942:	f38a 8811 	msr	BASEPRI, sl

  osalDbgCheck(n > 0U);

  osalSysLock();

  while (n > 0U) {
 8000946:	b35a      	cbz	r2, 80009a0 <oqWriteTimeout+0x70>
 8000948:	f8cd a004 	str.w	sl, [sp, #4]
 800094c:	4604      	mov	r4, r0
 800094e:	460f      	mov	r7, r1
 8000950:	4692      	mov	sl, r2
 8000952:	f04f 0b00 	mov.w	fp, #0
  size_t s1, s2;

  osalDbgCheck(n > 0U);

  /* Number of bytes that can be written in a single atomic operation.*/
  if (n > oqGetEmptyI(oqp)) {
 8000956:	68a3      	ldr	r3, [r4, #8]
    n = oqGetEmptyI(oqp);
  }

  /* Number of bytes before buffer limit.*/
  /*lint -save -e9033 [10.8] Checked to be safe.*/
  s1 = (size_t)(oqp->q_top - oqp->q_wrptr);
 8000958:	6960      	ldr	r0, [r4, #20]
 800095a:	6926      	ldr	r6, [r4, #16]
  size_t s1, s2;

  osalDbgCheck(n > 0U);

  /* Number of bytes that can be written in a single atomic operation.*/
  if (n > oqGetEmptyI(oqp)) {
 800095c:	4553      	cmp	r3, sl
    n = oqGetEmptyI(oqp);
 800095e:	bf34      	ite	cc
 8000960:	68a5      	ldrcc	r5, [r4, #8]
  size_t s1, s2;

  osalDbgCheck(n > 0U);

  /* Number of bytes that can be written in a single atomic operation.*/
  if (n > oqGetEmptyI(oqp)) {
 8000962:	4655      	movcs	r5, sl
    n = oqGetEmptyI(oqp);
  }

  /* Number of bytes before buffer limit.*/
  /*lint -save -e9033 [10.8] Checked to be safe.*/
  s1 = (size_t)(oqp->q_top - oqp->q_wrptr);
 8000964:	1a36      	subs	r6, r6, r0
  /*lint -restore*/
  if (n < s1) {
 8000966:	42ae      	cmp	r6, r5
 8000968:	d83f      	bhi.n	80009ea <oqWriteTimeout+0xba>
    memcpy((void *)oqp->q_wrptr, (const void *)bp, n);
    oqp->q_wrptr += n;
  }
  else if (n > s1) {
 800096a:	d324      	bcc.n	80009b6 <oqWriteTimeout+0x86>
    s2 = n - s1;
    memcpy((void *)oqp->q_buffer, (const void *)bp, s2);
    oqp->q_wrptr = oqp->q_buffer + s2;
  }
  else { /* n == s1 */
    memcpy((void *)oqp->q_wrptr, (const void *)bp, n);
 800096c:	462a      	mov	r2, r5
 800096e:	4639      	mov	r1, r7
 8000970:	f7ff fcba 	bl	80002e8 <memcpy>
    oqp->q_wrptr = oqp->q_buffer;
 8000974:	68e3      	ldr	r3, [r4, #12]
 8000976:	6163      	str	r3, [r4, #20]
  }

  oqp->q_counter -= n;
 8000978:	68a3      	ldr	r3, [r4, #8]
 800097a:	1b5b      	subs	r3, r3, r5
 800097c:	60a3      	str	r3, [r4, #8]

  while (n > 0U) {
    size_t done;

    done = oq_write(oqp, bp, n);
    if (done == (size_t)0) {
 800097e:	b36d      	cbz	r5, 80009dc <oqWriteTimeout+0xac>
      }
    }
    else {
      /* Inform the low side that the queue has at least one character
         available.*/
      if (nfy != NULL) {
 8000980:	f1b9 0f00 	cmp.w	r9, #0
 8000984:	d001      	beq.n	800098a <oqWriteTimeout+0x5a>
        nfy(oqp);
 8000986:	4620      	mov	r0, r4
 8000988:	47c8      	blx	r9
 800098a:	f38b 8811 	msr	BASEPRI, fp
      }

      /* Giving a preemption chance in a controlled point.*/
      osalSysUnlock();

      n  -= done;
 800098e:	ebc5 0a0a 	rsb	sl, r5, sl
      bp += done;
 8000992:	442f      	add	r7, r5
 8000994:	9b01      	ldr	r3, [sp, #4]
 8000996:	f383 8811 	msr	BASEPRI, r3

  osalDbgCheck(n > 0U);

  osalSysLock();

  while (n > 0U) {
 800099a:	f1ba 0f00 	cmp.w	sl, #0
 800099e:	d1da      	bne.n	8000956 <oqWriteTimeout+0x26>
  size_t s1, s2;

  osalDbgCheck(n > 0U);

  /* Number of bytes that can be written in a single atomic operation.*/
  if (n > oqGetEmptyI(oqp)) {
 80009a0:	f04f 0a00 	mov.w	sl, #0
 80009a4:	2200      	movs	r2, #0
 80009a6:	f382 8811 	msr	BASEPRI, r2
    }
  }

  osalSysUnlock();
  return max - n;
}
 80009aa:	9b03      	ldr	r3, [sp, #12]
 80009ac:	ebca 0003 	rsb	r0, sl, r3
 80009b0:	b005      	add	sp, #20
 80009b2:	e8bd 8ff0 	ldmia.w	sp!, {r4, r5, r6, r7, r8, r9, sl, fp, pc}
  if (n < s1) {
    memcpy((void *)oqp->q_wrptr, (const void *)bp, n);
    oqp->q_wrptr += n;
  }
  else if (n > s1) {
    memcpy((void *)oqp->q_wrptr, (const void *)bp, s1);
 80009b6:	4632      	mov	r2, r6
 80009b8:	4639      	mov	r1, r7
    bp += s1;
    s2 = n - s1;
 80009ba:	ebc6 0805 	rsb	r8, r6, r5
  if (n < s1) {
    memcpy((void *)oqp->q_wrptr, (const void *)bp, n);
    oqp->q_wrptr += n;
  }
  else if (n > s1) {
    memcpy((void *)oqp->q_wrptr, (const void *)bp, s1);
 80009be:	f7ff fc93 	bl	80002e8 <memcpy>
    bp += s1;
    s2 = n - s1;
    memcpy((void *)oqp->q_buffer, (const void *)bp, s2);
 80009c2:	19b9      	adds	r1, r7, r6
 80009c4:	4642      	mov	r2, r8
 80009c6:	68e0      	ldr	r0, [r4, #12]
 80009c8:	f7ff fc8e 	bl	80002e8 <memcpy>
    oqp->q_wrptr = oqp->q_buffer + s2;
 80009cc:	68e3      	ldr	r3, [r4, #12]
 80009ce:	4443      	add	r3, r8
 80009d0:	6163      	str	r3, [r4, #20]
  else { /* n == s1 */
    memcpy((void *)oqp->q_wrptr, (const void *)bp, n);
    oqp->q_wrptr = oqp->q_buffer;
  }

  oqp->q_counter -= n;
 80009d2:	68a3      	ldr	r3, [r4, #8]
 80009d4:	1b5b      	subs	r3, r3, r5
 80009d6:	60a3      	str	r3, [r4, #8]

  while (n > 0U) {
    size_t done;

    done = oq_write(oqp, bp, n);
    if (done == (size_t)0) {
 80009d8:	2d00      	cmp	r5, #0
 80009da:	d1d1      	bne.n	8000980 <oqWriteTimeout+0x50>
 80009dc:	9902      	ldr	r1, [sp, #8]
 80009de:	4620      	mov	r0, r4
 80009e0:	f7ff ff0e 	bl	8000800 <chThdEnqueueTimeoutS>
      msg_t msg = osalThreadEnqueueTimeoutS(&oqp->q_waiting, timeout);

      /* Anything except MSG_OK causes the operation to stop.*/
      if (msg != MSG_OK) {
 80009e4:	2800      	cmp	r0, #0
 80009e6:	d0b6      	beq.n	8000956 <oqWriteTimeout+0x26>
 80009e8:	e7dc      	b.n	80009a4 <oqWriteTimeout+0x74>
  /* Number of bytes before buffer limit.*/
  /*lint -save -e9033 [10.8] Checked to be safe.*/
  s1 = (size_t)(oqp->q_top - oqp->q_wrptr);
  /*lint -restore*/
  if (n < s1) {
    memcpy((void *)oqp->q_wrptr, (const void *)bp, n);
 80009ea:	462a      	mov	r2, r5
 80009ec:	4639      	mov	r1, r7
 80009ee:	f7ff fc7b 	bl	80002e8 <memcpy>
    oqp->q_wrptr += n;
 80009f2:	6963      	ldr	r3, [r4, #20]
 80009f4:	442b      	add	r3, r5
 80009f6:	6163      	str	r3, [r4, #20]
 80009f8:	e7be      	b.n	8000978 <oqWriteTimeout+0x48>
 80009fa:	bf00      	nop
 80009fc:	0000      	movs	r0, r0
	...

08000a00 <_writet>:
}

static size_t _writet(void *ip, const uint8_t *bp, size_t n,
                      sysinterval_t timeout) {

  return oqWriteTimeout(&((SerialDriver *)ip)->oqueue, bp, n, timeout);
 8000a00:	3030      	adds	r0, #48	; 0x30
 8000a02:	f7ff bf95 	b.w	8000930 <oqWriteTimeout>
 8000a06:	bf00      	nop
	...

08000a10 <_write>:
 * queue-level function or macro.
 */

static size_t _write(void *ip, const uint8_t *bp, size_t n) {

  return oqWriteTimeout(&((SerialDriver *)ip)->oqueue, bp,
 8000a10:	3030      	adds	r0, #48	; 0x30
 8000a12:	f04f 33ff 	mov.w	r3, #4294967295
 8000a16:	f7ff bf8b 	b.w	8000930 <oqWriteTimeout>
 8000a1a:	bf00      	nop
 8000a1c:	0000      	movs	r0, r0
	...

08000a20 <iqReadTimeout>:
 * @return              The number of bytes effectively transferred.
 *
 * @api
 */
size_t iqReadTimeout(input_queue_t *iqp, uint8_t *bp,
                     size_t n, sysinterval_t timeout) {
 8000a20:	e92d 4ff0 	stmdb	sp!, {r4, r5, r6, r7, r8, r9, sl, fp, lr}
 8000a24:	b085      	sub	sp, #20
  qnotify_t nfy = iqp->q_notify;
 8000a26:	f8d0 901c 	ldr.w	r9, [r0, #28]
 * @return              The number of bytes effectively transferred.
 *
 * @api
 */
size_t iqReadTimeout(input_queue_t *iqp, uint8_t *bp,
                     size_t n, sysinterval_t timeout) {
 8000a2a:	9203      	str	r2, [sp, #12]
 8000a2c:	9302      	str	r3, [sp, #8]
 8000a2e:	f04f 0a20 	mov.w	sl, #32
 8000a32:	f38a 8811 	msr	BASEPRI, sl

  osalDbgCheck(n > 0U);

  osalSysLock();

  while (n > 0U) {
 8000a36:	b35a      	cbz	r2, 8000a90 <iqReadTimeout+0x70>
 8000a38:	f8cd a004 	str.w	sl, [sp, #4]
 8000a3c:	4604      	mov	r4, r0
 8000a3e:	460f      	mov	r7, r1
 8000a40:	4692      	mov	sl, r2
 8000a42:	f04f 0b00 	mov.w	fp, #0
  size_t s1, s2;

  osalDbgCheck(n > 0U);

  /* Number of bytes that can be read in a single atomic operation.*/
  if (n > iqGetFullI(iqp)) {
 8000a46:	68a3      	ldr	r3, [r4, #8]
    n = iqGetFullI(iqp);
  }

  /* Number of bytes before buffer limit.*/
  /*lint -save -e9033 [10.8] Checked to be safe.*/
  s1 = (size_t)(iqp->q_top - iqp->q_rdptr);
 8000a48:	69a1      	ldr	r1, [r4, #24]
 8000a4a:	6926      	ldr	r6, [r4, #16]
  size_t s1, s2;

  osalDbgCheck(n > 0U);

  /* Number of bytes that can be read in a single atomic operation.*/
  if (n > iqGetFullI(iqp)) {
 8000a4c:	4553      	cmp	r3, sl
    n = iqGetFullI(iqp);
 8000a4e:	bf34      	ite	cc
 8000a50:	68a5      	ldrcc	r5, [r4, #8]
  size_t s1, s2;

  osalDbgCheck(n > 0U);

  /* Number of bytes that can be read in a single atomic operation.*/
  if (n > iqGetFullI(iqp)) {
 8000a52:	4655      	movcs	r5, sl
    n = iqGetFullI(iqp);
  }

  /* Number of bytes before buffer limit.*/
  /*lint -save -e9033 [10.8] Checked to be safe.*/
  s1 = (size_t)(iqp->q_top - iqp->q_rdptr);
 8000a54:	1a76      	subs	r6, r6, r1
  /*lint -restore*/
  if (n < s1) {
 8000a56:	42ae      	cmp	r6, r5
 8000a58:	d83f      	bhi.n	8000ada <iqReadTimeout+0xba>
    memcpy((void *)bp, (void *)iqp->q_rdptr, n);
    iqp->q_rdptr += n;
  }
  else if (n > s1) {
 8000a5a:	d324      	bcc.n	8000aa6 <iqReadTimeout+0x86>
    s2 = n - s1;
    memcpy((void *)bp, (void *)iqp->q_buffer, s2);
    iqp->q_rdptr = iqp->q_buffer + s2;
  }
  else { /* n == s1 */
    memcpy((void *)bp, (void *)iqp->q_rdptr, n);
 8000a5c:	462a      	mov	r2, r5
 8000a5e:	4638      	mov	r0, r7
 8000a60:	f7ff fc42 	bl	80002e8 <memcpy>
    iqp->q_rdptr = iqp->q_buffer;
 8000a64:	68e3      	ldr	r3, [r4, #12]
 8000a66:	61a3      	str	r3, [r4, #24]
  }

  iqp->q_counter -= n;
 8000a68:	68a3      	ldr	r3, [r4, #8]
 8000a6a:	1b5b      	subs	r3, r3, r5
 8000a6c:	60a3      	str	r3, [r4, #8]

  while (n > 0U) {
    size_t done;

    done = iq_read(iqp, bp, n);
    if (done == (size_t)0) {
 8000a6e:	b36d      	cbz	r5, 8000acc <iqReadTimeout+0xac>
      }
    }
    else {
      /* Inform the low side that the queue has at least one empty slot
         available.*/
      if (nfy != NULL) {
 8000a70:	f1b9 0f00 	cmp.w	r9, #0
 8000a74:	d001      	beq.n	8000a7a <iqReadTimeout+0x5a>
        nfy(iqp);
 8000a76:	4620      	mov	r0, r4
 8000a78:	47c8      	blx	r9
 8000a7a:	f38b 8811 	msr	BASEPRI, fp
      }

      /* Giving a preemption chance in a controlled point.*/
      osalSysUnlock();

      n  -= done;
 8000a7e:	ebc5 0a0a 	rsb	sl, r5, sl
      bp += done;
 8000a82:	442f      	add	r7, r5
 8000a84:	9b01      	ldr	r3, [sp, #4]
 8000a86:	f383 8811 	msr	BASEPRI, r3

  osalDbgCheck(n > 0U);

  osalSysLock();

  while (n > 0U) {
 8000a8a:	f1ba 0f00 	cmp.w	sl, #0
 8000a8e:	d1da      	bne.n	8000a46 <iqReadTimeout+0x26>
  size_t s1, s2;

  osalDbgCheck(n > 0U);

  /* Number of bytes that can be read in a single atomic operation.*/
  if (n > iqGetFullI(iqp)) {
 8000a90:	f04f 0a00 	mov.w	sl, #0
 8000a94:	2200      	movs	r2, #0
 8000a96:	f382 8811 	msr	BASEPRI, r2
    }
  }

  osalSysUnlock();
  return max - n;
}
 8000a9a:	9b03      	ldr	r3, [sp, #12]
 8000a9c:	ebca 0003 	rsb	r0, sl, r3
 8000aa0:	b005      	add	sp, #20
 8000aa2:	e8bd 8ff0 	ldmia.w	sp!, {r4, r5, r6, r7, r8, r9, sl, fp, pc}
  if (n < s1) {
    memcpy((void *)bp, (void *)iqp->q_rdptr, n);
    iqp->q_rdptr += n;
  }
  else if (n > s1) {
    memcpy((void *)bp, (void *)iqp->q_rdptr, s1);
 8000aa6:	4632      	mov	r2, r6
    bp += s1;
    s2 = n - s1;
 8000aa8:	ebc6 0805 	rsb	r8, r6, r5
  if (n < s1) {
    memcpy((void *)bp, (void *)iqp->q_rdptr, n);
    iqp->q_rdptr += n;
  }
  else if (n > s1) {
    memcpy((void *)bp, (void *)iqp->q_rdptr, s1);
 8000aac:	4638      	mov	r0, r7
 8000aae:	f7ff fc1b 	bl	80002e8 <memcpy>
    bp += s1;
    s2 = n - s1;
    memcpy((void *)bp, (void *)iqp->q_buffer, s2);
 8000ab2:	19b8      	adds	r0, r7, r6
 8000ab4:	4642      	mov	r2, r8
 8000ab6:	68e1      	ldr	r1, [r4, #12]
 8000ab8:	f7ff fc16 	bl	80002e8 <memcpy>
    iqp->q_rdptr = iqp->q_buffer + s2;
 8000abc:	68e3      	ldr	r3, [r4, #12]
 8000abe:	4443      	add	r3, r8
 8000ac0:	61a3      	str	r3, [r4, #24]
  else { /* n == s1 */
    memcpy((void *)bp, (void *)iqp->q_rdptr, n);
    iqp->q_rdptr = iqp->q_buffer;
  }

  iqp->q_counter -= n;
 8000ac2:	68a3      	ldr	r3, [r4, #8]
 8000ac4:	1b5b      	subs	r3, r3, r5
 8000ac6:	60a3      	str	r3, [r4, #8]

  while (n > 0U) {
    size_t done;

    done = iq_read(iqp, bp, n);
    if (done == (size_t)0) {
 8000ac8:	2d00      	cmp	r5, #0
 8000aca:	d1d1      	bne.n	8000a70 <iqReadTimeout+0x50>
 8000acc:	9902      	ldr	r1, [sp, #8]
 8000ace:	4620      	mov	r0, r4
 8000ad0:	f7ff fe96 	bl	8000800 <chThdEnqueueTimeoutS>
      msg_t msg = osalThreadEnqueueTimeoutS(&iqp->q_waiting, timeout);

      /* Anything except MSG_OK causes the operation to stop.*/
      if (msg != MSG_OK) {
 8000ad4:	2800      	cmp	r0, #0
 8000ad6:	d0b6      	beq.n	8000a46 <iqReadTimeout+0x26>
 8000ad8:	e7dc      	b.n	8000a94 <iqReadTimeout+0x74>
  /* Number of bytes before buffer limit.*/
  /*lint -save -e9033 [10.8] Checked to be safe.*/
  s1 = (size_t)(iqp->q_top - iqp->q_rdptr);
  /*lint -restore*/
  if (n < s1) {
    memcpy((void *)bp, (void *)iqp->q_rdptr, n);
 8000ada:	462a      	mov	r2, r5
 8000adc:	4638      	mov	r0, r7
 8000ade:	f7ff fc03 	bl	80002e8 <memcpy>
    iqp->q_rdptr += n;
 8000ae2:	69a3      	ldr	r3, [r4, #24]
 8000ae4:	442b      	add	r3, r5
 8000ae6:	61a3      	str	r3, [r4, #24]
 8000ae8:	e7be      	b.n	8000a68 <iqReadTimeout+0x48>
 8000aea:	bf00      	nop
 8000aec:	0000      	movs	r0, r0
	...

08000af0 <_readt>:
}

static size_t _readt(void *ip, uint8_t *bp, size_t n,
                     sysinterval_t timeout) {

  return iqReadTimeout(&((SerialDriver *)ip)->iqueue, bp, n, timeout);
 8000af0:	300c      	adds	r0, #12
 8000af2:	f7ff bf95 	b.w	8000a20 <iqReadTimeout>
 8000af6:	bf00      	nop
	...

08000b00 <_read>:
                        n, TIME_INFINITE);
}

static size_t _read(void *ip, uint8_t *bp, size_t n) {

  return iqReadTimeout(&((SerialDriver *)ip)->iqueue, bp,
 8000b00:	300c      	adds	r0, #12
 8000b02:	f04f 33ff 	mov.w	r3, #4294967295
 8000b06:	f7ff bf8b 	b.w	8000a20 <iqReadTimeout>
 8000b0a:	bf00      	nop
 8000b0c:	0000      	movs	r0, r0
	...

08000b10 <main>:

  /* Reset of all peripherals. AHB3 is not reseted because it could have
     been initialized in the board initialization file (board.c).
     Note, GPIOs are not reset because initialized before this point in
     board files.*/
  rccResetAHB1(~STM32_GPIO_EN_MASK);
 8000b10:	4bb2      	ldr	r3, [pc, #712]	; (8000ddc <main+0x2cc>)
 *          of the whole BKP domain.
 */
static void hal_lld_backup_domain_init(void) {

  /* Backup domain access enabled and left open.*/
  PWR->CR |= PWR_CR_DBP;
 8000b12:	48b3      	ldr	r0, [pc, #716]	; (8000de0 <main+0x2d0>)

  /* Reset of all peripherals. AHB3 is not reseted because it could have
     been initialized in the board initialization file (board.c).
     Note, GPIOs are not reset because initialized before this point in
     board files.*/
  rccResetAHB1(~STM32_GPIO_EN_MASK);
 8000b14:	691a      	ldr	r2, [r3, #16]
 8000b16:	f062 02ff 	orn	r2, r2, #255	; 0xff
}

/*
 * Application entry point.
 */
int main(void) {
 8000b1a:	b580      	push	{r7, lr}
 8000b1c:	611a      	str	r2, [r3, #16]
 8000b1e:	691a      	ldr	r2, [r3, #16]
 8000b20:	b2d2      	uxtb	r2, r2
 8000b22:	611a      	str	r2, [r3, #16]
#if !defined(STM32F410xx)
  rccResetAHB2(~0);
 8000b24:	f04f 34ff 	mov.w	r4, #4294967295

  /* Reset of all peripherals. AHB3 is not reseted because it could have
     been initialized in the board initialization file (board.c).
     Note, GPIOs are not reset because initialized before this point in
     board files.*/
  rccResetAHB1(~STM32_GPIO_EN_MASK);
 8000b28:	691a      	ldr	r2, [r3, #16]
#if !defined(STM32F410xx)
  rccResetAHB2(~0);
 8000b2a:	695a      	ldr	r2, [r3, #20]
 8000b2c:	615c      	str	r4, [r3, #20]
 8000b2e:	2200      	movs	r2, #0
 8000b30:	6959      	ldr	r1, [r3, #20]
 8000b32:	615a      	str	r2, [r3, #20]
 8000b34:	6959      	ldr	r1, [r3, #20]
#endif
  rccResetAPB1(~RCC_APB1RSTR_PWRRST);
 8000b36:	6a19      	ldr	r1, [r3, #32]
 8000b38:	f061 5180 	orn	r1, r1, #268435456	; 0x10000000
 8000b3c:	6219      	str	r1, [r3, #32]
 8000b3e:	6a19      	ldr	r1, [r3, #32]
 8000b40:	f001 5180 	and.w	r1, r1, #268435456	; 0x10000000
 8000b44:	6219      	str	r1, [r3, #32]
 8000b46:	6a19      	ldr	r1, [r3, #32]
  rccResetAPB2(~0);
 8000b48:	6a59      	ldr	r1, [r3, #36]	; 0x24
 8000b4a:	625c      	str	r4, [r3, #36]	; 0x24
 8000b4c:	6a59      	ldr	r1, [r3, #36]	; 0x24
 8000b4e:	625a      	str	r2, [r3, #36]	; 0x24
 8000b50:	6a59      	ldr	r1, [r3, #36]	; 0x24

  /* PWR clock enabled.*/
  rccEnablePWRInterface(true);
 8000b52:	6c19      	ldr	r1, [r3, #64]	; 0x40
 8000b54:	f041 5180 	orr.w	r1, r1, #268435456	; 0x10000000
 8000b58:	6419      	str	r1, [r3, #64]	; 0x40
 8000b5a:	6e19      	ldr	r1, [r3, #96]	; 0x60
 8000b5c:	f041 5180 	orr.w	r1, r1, #268435456	; 0x10000000
 8000b60:	6619      	str	r1, [r3, #96]	; 0x60
 8000b62:	6e19      	ldr	r1, [r3, #96]	; 0x60
 *          of the whole BKP domain.
 */
static void hal_lld_backup_domain_init(void) {

  /* Backup domain access enabled and left open.*/
  PWR->CR |= PWR_CR_DBP;
 8000b64:	6801      	ldr	r1, [r0, #0]
 8000b66:	f441 7180 	orr.w	r1, r1, #256	; 0x100
 8000b6a:	6001      	str	r1, [r0, #0]

  /* Reset BKP domain if different clock source selected.*/
  if ((RCC->BDCR & STM32_RTCSEL_MASK) != STM32_RTCSEL) {
 8000b6c:	6f19      	ldr	r1, [r3, #112]	; 0x70
 8000b6e:	f401 7140 	and.w	r1, r1, #768	; 0x300
 8000b72:	f5b1 7f00 	cmp.w	r1, #512	; 0x200
 8000b76:	b086      	sub	sp, #24
 8000b78:	d003      	beq.n	8000b82 <main+0x72>
    /* Backup domain reset.*/
    RCC->BDCR = RCC_BDCR_BDRST;
 8000b7a:	f44f 3180 	mov.w	r1, #65536	; 0x10000
 8000b7e:	6719      	str	r1, [r3, #112]	; 0x70
    RCC->BDCR = 0;
 8000b80:	671a      	str	r2, [r3, #112]	; 0x70

  PWR->CSR |= PWR_CSR_BRE;
  while ((PWR->CSR & PWR_CSR_BRR) == 0)
    ;                                /* Waits until the regulator is stable */
#else
  PWR->CSR &= ~PWR_CSR_BRE;
 8000b82:	4d97      	ldr	r5, [pc, #604]	; (8000de0 <main+0x2d0>)

#if defined(__CORE_CM0_H_GENERIC)
  NVIC->IP[_IP_IDX(n)] = (NVIC->IP[_IP_IDX(n)] & ~(0xFFU << _BIT_SHIFT(n))) |
                         (NVIC_PRIORITY_MASK(prio) << _BIT_SHIFT(n));
#else
  NVIC->IP[n] = NVIC_PRIORITY_MASK(prio);
 8000b84:	4a97      	ldr	r2, [pc, #604]	; (8000de4 <main+0x2d4>)
 8000b86:	6868      	ldr	r0, [r5, #4]
#if !defined(SERIAL_ADVANCED_BUFFERING_SUPPORT) ||                          \
    (SERIAL_ADVANCED_BUFFERING_SUPPORT == FALSE) ||                         \
    defined(__DOXYGEN__)
void sdObjectInit(SerialDriver *sdp, qnotify_t inotify, qnotify_t onotify) {

  sdp->vmt = &vmt;
 8000b88:	4b97      	ldr	r3, [pc, #604]	; (8000de8 <main+0x2d8>)
 8000b8a:	f8df 829c 	ldr.w	r8, [pc, #668]	; 8000e28 <main+0x318>

#if OSAL_ST_MODE == OSAL_ST_MODE_FREERUNNING
  /* Free running counter mode.*/

  /* Enabling timer clock.*/
  ST_ENABLE_CLOCK();
 8000b8e:	f8df e24c 	ldr.w	lr, [pc, #588]	; 8000ddc <main+0x2cc>

  /* Enabling the stop mode during debug for this timer.*/
  ST_ENABLE_STOP();
 8000b92:	f8df c298 	ldr.w	ip, [pc, #664]	; 8000e2c <main+0x31c>
 *
 * @notapi
 */
static inline void queue_init(threads_queue_t *tqp) {

  tqp->next = (thread_t *)tqp;
 8000b96:	4c95      	ldr	r4, [pc, #596]	; (8000dec <main+0x2dc>)
 8000b98:	2160      	movs	r1, #96	; 0x60
#endif
  NVIC->ICPR[n >> 5U] = 1U << (n & 0x1FU);
 8000b9a:	2640      	movs	r6, #64	; 0x40
 8000b9c:	f420 7000 	bic.w	r0, r0, #512	; 0x200
 8000ba0:	6068      	str	r0, [r5, #4]
 8000ba2:	2780      	movs	r7, #128	; 0x80

#if defined(__CORE_CM0_H_GENERIC)
  NVIC->IP[_IP_IDX(n)] = (NVIC->IP[_IP_IDX(n)] & ~(0xFFU << _BIT_SHIFT(n))) |
                         (NVIC_PRIORITY_MASK(prio) << _BIT_SHIFT(n));
#else
  NVIC->IP[n] = NVIC_PRIORITY_MASK(prio);
 8000ba4:	f882 1306 	strb.w	r1, [r2, #774]	; 0x306
#endif
  NVIC->ICPR[n >> 5U] = 1U << (n & 0x1FU);
 8000ba8:	f44f 7080 	mov.w	r0, #256	; 0x100
 8000bac:	f8c2 6180 	str.w	r6, [r2, #384]	; 0x180
  NVIC->ISER[n >> 5U] = 1U << (n & 0x1FU);
 8000bb0:	6016      	str	r6, [r2, #0]
  NVIC->IP[_IP_IDX(n)] = (NVIC->IP[_IP_IDX(n)] & ~(0xFFU << _BIT_SHIFT(n))) |
                         (NVIC_PRIORITY_MASK(prio) << _BIT_SHIFT(n));
#else
  NVIC->IP[n] = NVIC_PRIORITY_MASK(prio);
#endif
  NVIC->ICPR[n >> 5U] = 1U << (n & 0x1FU);
 8000bb2:	f44f 7600 	mov.w	r6, #512	; 0x200

#if defined(__CORE_CM0_H_GENERIC)
  NVIC->IP[_IP_IDX(n)] = (NVIC->IP[_IP_IDX(n)] & ~(0xFFU << _BIT_SHIFT(n))) |
                         (NVIC_PRIORITY_MASK(prio) << _BIT_SHIFT(n));
#else
  NVIC->IP[n] = NVIC_PRIORITY_MASK(prio);
 8000bb6:	f882 1307 	strb.w	r1, [r2, #775]	; 0x307
 8000bba:	461d      	mov	r5, r3
#endif
  NVIC->ICPR[n >> 5U] = 1U << (n & 0x1FU);
 8000bbc:	f8c2 7180 	str.w	r7, [r2, #384]	; 0x180
  NVIC->ISER[n >> 5U] = 1U << (n & 0x1FU);
 8000bc0:	6017      	str	r7, [r2, #0]

#if defined(__CORE_CM0_H_GENERIC)
  NVIC->IP[_IP_IDX(n)] = (NVIC->IP[_IP_IDX(n)] & ~(0xFFU << _BIT_SHIFT(n))) |
                         (NVIC_PRIORITY_MASK(prio) << _BIT_SHIFT(n));
#else
  NVIC->IP[n] = NVIC_PRIORITY_MASK(prio);
 8000bc2:	f882 1308 	strb.w	r1, [r2, #776]	; 0x308
#endif
  NVIC->ICPR[n >> 5U] = 1U << (n & 0x1FU);
 8000bc6:	f8c2 0180 	str.w	r0, [r2, #384]	; 0x180
  NVIC->ISER[n >> 5U] = 1U << (n & 0x1FU);
 8000bca:	6010      	str	r0, [r2, #0]

#if defined(__CORE_CM0_H_GENERIC)
  NVIC->IP[_IP_IDX(n)] = (NVIC->IP[_IP_IDX(n)] & ~(0xFFU << _BIT_SHIFT(n))) |
                         (NVIC_PRIORITY_MASK(prio) << _BIT_SHIFT(n));
#else
  NVIC->IP[n] = NVIC_PRIORITY_MASK(prio);
 8000bcc:	f882 1309 	strb.w	r1, [r2, #777]	; 0x309
#endif
  NVIC->ICPR[n >> 5U] = 1U << (n & 0x1FU);
 8000bd0:	f8c2 6180 	str.w	r6, [r2, #384]	; 0x180
  NVIC->ISER[n >> 5U] = 1U << (n & 0x1FU);
 8000bd4:	6016      	str	r6, [r2, #0]
  NVIC->IP[_IP_IDX(n)] = (NVIC->IP[_IP_IDX(n)] & ~(0xFFU << _BIT_SHIFT(n))) |
                         (NVIC_PRIORITY_MASK(prio) << _BIT_SHIFT(n));
#else
  NVIC->IP[n] = NVIC_PRIORITY_MASK(prio);
#endif
  NVIC->ICPR[n >> 5U] = 1U << (n & 0x1FU);
 8000bd6:	f44f 6680 	mov.w	r6, #1024	; 0x400

#if defined(__CORE_CM0_H_GENERIC)
  NVIC->IP[_IP_IDX(n)] = (NVIC->IP[_IP_IDX(n)] & ~(0xFFU << _BIT_SHIFT(n))) |
                         (NVIC_PRIORITY_MASK(prio) << _BIT_SHIFT(n));
#else
  NVIC->IP[n] = NVIC_PRIORITY_MASK(prio);
 8000bda:	f882 130a 	strb.w	r1, [r2, #778]	; 0x30a
#endif
  NVIC->ICPR[n >> 5U] = 1U << (n & 0x1FU);
 8000bde:	f8c2 6180 	str.w	r6, [r2, #384]	; 0x180
  NVIC->ISER[n >> 5U] = 1U << (n & 0x1FU);
 8000be2:	6016      	str	r6, [r2, #0]
  NVIC->IP[_IP_IDX(n)] = (NVIC->IP[_IP_IDX(n)] & ~(0xFFU << _BIT_SHIFT(n))) |
                         (NVIC_PRIORITY_MASK(prio) << _BIT_SHIFT(n));
#else
  NVIC->IP[n] = NVIC_PRIORITY_MASK(prio);
#endif
  NVIC->ICPR[n >> 5U] = 1U << (n & 0x1FU);
 8000be4:	f44f 0600 	mov.w	r6, #8388608	; 0x800000

#if defined(__CORE_CM0_H_GENERIC)
  NVIC->IP[_IP_IDX(n)] = (NVIC->IP[_IP_IDX(n)] & ~(0xFFU << _BIT_SHIFT(n))) |
                         (NVIC_PRIORITY_MASK(prio) << _BIT_SHIFT(n));
#else
  NVIC->IP[n] = NVIC_PRIORITY_MASK(prio);
 8000be8:	f882 1317 	strb.w	r1, [r2, #791]	; 0x317
#endif
  NVIC->ICPR[n >> 5U] = 1U << (n & 0x1FU);
 8000bec:	f8c2 6180 	str.w	r6, [r2, #384]	; 0x180
  NVIC->ISER[n >> 5U] = 1U << (n & 0x1FU);
 8000bf0:	6016      	str	r6, [r2, #0]

#if defined(__CORE_CM0_H_GENERIC)
  NVIC->IP[_IP_IDX(n)] = (NVIC->IP[_IP_IDX(n)] & ~(0xFFU << _BIT_SHIFT(n))) |
                         (NVIC_PRIORITY_MASK(prio) << _BIT_SHIFT(n));
#else
  NVIC->IP[n] = NVIC_PRIORITY_MASK(prio);
 8000bf2:	f882 1328 	strb.w	r1, [r2, #808]	; 0x328
#endif
  NVIC->ICPR[n >> 5U] = 1U << (n & 0x1FU);
 8000bf6:	f8c2 0184 	str.w	r0, [r2, #388]	; 0x184
  NVIC->ISER[n >> 5U] = 1U << (n & 0x1FU);
 8000bfa:	6050      	str	r0, [r2, #4]
 8000bfc:	f845 8b04 	str.w	r8, [r5], #4
 8000c00:	f103 000c 	add.w	r0, r3, #12
  osalEventObjectInit(&sdp->event);
  sdp->state = SD_STOP;
 8000c04:	2601      	movs	r6, #1
  osalThreadQueueObjectInit(&iqp->q_waiting);
  iqp->q_counter = 0;
  iqp->q_buffer  = bp;
  iqp->q_rdptr   = bp;
  iqp->q_wrptr   = bp;
  iqp->q_top     = bp + size;
 8000c06:	f103 0164 	add.w	r1, r3, #100	; 0x64
 */
void oqObjectInit(output_queue_t *oqp, uint8_t *bp, size_t size,
                  qnotify_t onfy, void *link) {

  osalThreadQueueObjectInit(&oqp->q_waiting);
  oqp->q_counter = size;
 8000c0a:	f04f 0810 	mov.w	r8, #16
 *
 * @init
 */
static inline void chEvtObjectInit(event_source_t *esp) {

  esp->next = (event_listener_t *)esp;
 8000c0e:	605d      	str	r5, [r3, #4]
 8000c10:	60d8      	str	r0, [r3, #12]
 */
void iqObjectInit(input_queue_t *iqp, uint8_t *bp, size_t size,
                  qnotify_t infy, void *link) {

  osalThreadQueueObjectInit(&iqp->q_waiting);
  iqp->q_counter = 0;
 8000c12:	2500      	movs	r5, #0
  tqp->prev = (thread_t *)tqp;
 8000c14:	6118      	str	r0, [r3, #16]
  iqp->q_buffer  = bp;
 8000c16:	f103 0054 	add.w	r0, r3, #84	; 0x54
 8000c1a:	721e      	strb	r6, [r3, #8]
 */
void iqObjectInit(input_queue_t *iqp, uint8_t *bp, size_t size,
                  qnotify_t infy, void *link) {

  osalThreadQueueObjectInit(&iqp->q_waiting);
  iqp->q_counter = 0;
 8000c1c:	615d      	str	r5, [r3, #20]
  iqp->q_buffer  = bp;
 8000c1e:	6198      	str	r0, [r3, #24]
  iqp->q_rdptr   = bp;
 8000c20:	6258      	str	r0, [r3, #36]	; 0x24
  iqp->q_wrptr   = bp;
 8000c22:	6218      	str	r0, [r3, #32]
  iqp->q_top     = bp + size;
 8000c24:	61d9      	str	r1, [r3, #28]
 */
void oqObjectInit(output_queue_t *oqp, uint8_t *bp, size_t size,
                  qnotify_t onfy, void *link) {

  osalThreadQueueObjectInit(&oqp->q_waiting);
  oqp->q_counter = size;
 8000c26:	f8c3 8038 	str.w	r8, [r3, #56]	; 0x38

#if OSAL_ST_MODE == OSAL_ST_MODE_FREERUNNING
  /* Free running counter mode.*/

  /* Enabling timer clock.*/
  ST_ENABLE_CLOCK();
 8000c2a:	f8de 0040 	ldr.w	r0, [lr, #64]	; 0x40
  oqp->q_buffer  = bp;
 8000c2e:	63d9      	str	r1, [r3, #60]	; 0x3c
 8000c30:	4330      	orrs	r0, r6
 8000c32:	f8ce 0040 	str.w	r0, [lr, #64]	; 0x40
 8000c36:	f8de 0060 	ldr.w	r0, [lr, #96]	; 0x60
  oqp->q_rdptr   = bp;
 8000c3a:	6499      	str	r1, [r3, #72]	; 0x48
 8000c3c:	4330      	orrs	r0, r6
 8000c3e:	f8ce 0060 	str.w	r0, [lr, #96]	; 0x60
 8000c42:	f8de 0060 	ldr.w	r0, [lr, #96]	; 0x60

  /* Enabling the stop mode during debug for this timer.*/
  ST_ENABLE_STOP();
 8000c46:	f8dc 0008 	ldr.w	r0, [ip, #8]
  oqp->q_wrptr   = bp;
 8000c4a:	6459      	str	r1, [r3, #68]	; 0x44
  oqp->q_top     = bp + size;
 8000c4c:	f103 0174 	add.w	r1, r3, #116	; 0x74
 8000c50:	6419      	str	r1, [r3, #64]	; 0x40
  oqp->q_notify  = onfy;
 8000c52:	4967      	ldr	r1, [pc, #412]	; (8000df0 <main+0x2e0>)
 8000c54:	64d9      	str	r1, [r3, #76]	; 0x4c
  SD3.usart = USART3;
#endif

#if STM32_SERIAL_USE_UART4
  sdObjectInit(&SD4, NULL, notify4);
  SD4.usart = UART4;
 8000c56:	4967      	ldr	r1, [pc, #412]	; (8000df4 <main+0x2e4>)
 8000c58:	6759      	str	r1, [r3, #116]	; 0x74
 8000c5a:	4330      	orrs	r0, r6

  /* Initializing the counter in free running mode.*/
  STM32_ST_TIM->PSC    = (ST_CLOCK_SRC / OSAL_ST_FREQUENCY) - 1;
 8000c5c:	f04f 4180 	mov.w	r1, #1073741824	; 0x40000000
  iqp->q_counter = 0;
  iqp->q_buffer  = bp;
  iqp->q_rdptr   = bp;
  iqp->q_wrptr   = bp;
  iqp->q_top     = bp + size;
  iqp->q_notify  = infy;
 8000c60:	629d      	str	r5, [r3, #40]	; 0x28
  iqp->q_link    = link;
 8000c62:	62db      	str	r3, [r3, #44]	; 0x2c
  oqp->q_buffer  = bp;
  oqp->q_rdptr   = bp;
  oqp->q_wrptr   = bp;
  oqp->q_top     = bp + size;
  oqp->q_notify  = onfy;
  oqp->q_link    = link;
 8000c64:	651b      	str	r3, [r3, #80]	; 0x50
  STM32_ST_TIM->ARR    = ST_ARR_INIT;
 8000c66:	f04f 3eff 	mov.w	lr, #4294967295

  /* Enabling timer clock.*/
  ST_ENABLE_CLOCK();

  /* Enabling the stop mode during debug for this timer.*/
  ST_ENABLE_STOP();
 8000c6a:	f8cc 0008 	str.w	r0, [ip, #8]

  /* Initializing the counter in free running mode.*/
  STM32_ST_TIM->PSC    = (ST_CLOCK_SRC / OSAL_ST_FREQUENCY) - 1;
 8000c6e:	f242 3027 	movw	r0, #8999	; 0x2327
 8000c72:	6288      	str	r0, [r1, #40]	; 0x28
  STM32_ST_TIM->ARR    = ST_ARR_INIT;
 8000c74:	f8c1 e02c 	str.w	lr, [r1, #44]	; 0x2c
 8000c78:	6064      	str	r4, [r4, #4]
  STM32_ST_TIM->CCMR1  = 0;
 8000c7a:	618d      	str	r5, [r1, #24]
  STM32_ST_TIM->CCR[0] = 0;
 8000c7c:	634d      	str	r5, [r1, #52]	; 0x34
  STM32_ST_TIM->DIER   = 0;
 8000c7e:	60cd      	str	r5, [r1, #12]
  STM32_ST_TIM->CR2    = 0;
 8000c80:	604d      	str	r5, [r1, #4]
  STM32_ST_TIM->EGR    = TIM_EGR_UG;
 8000c82:	614e      	str	r6, [r1, #20]
  STM32_ST_TIM->CR1    = TIM_CR1_CEN;
 8000c84:	600e      	str	r6, [r1, #0]
  NVIC->IP[_IP_IDX(n)] = (NVIC->IP[_IP_IDX(n)] & ~(0xFFU << _BIT_SHIFT(n))) |
                         (NVIC_PRIORITY_MASK(prio) << _BIT_SHIFT(n));
#else
  NVIC->IP[n] = NVIC_PRIORITY_MASK(prio);
#endif
  NVIC->ICPR[n >> 5U] = 1U << (n & 0x1FU);
 8000c86:	f04f 5180 	mov.w	r1, #268435456	; 0x10000000

#if defined(__CORE_CM0_H_GENERIC)
  NVIC->IP[_IP_IDX(n)] = (NVIC->IP[_IP_IDX(n)] & ~(0xFFU << _BIT_SHIFT(n))) |
                         (NVIC_PRIORITY_MASK(prio) << _BIT_SHIFT(n));
#else
  NVIC->IP[n] = NVIC_PRIORITY_MASK(prio);
 8000c8a:	f882 731c 	strb.w	r7, [r2, #796]	; 0x31c
#endif
  NVIC->ICPR[n >> 5U] = 1U << (n & 0x1FU);
 8000c8e:	f8c2 1180 	str.w	r1, [r2, #384]	; 0x180
  NVIC->ISER[n >> 5U] = 1U << (n & 0x1FU);
 8000c92:	6011      	str	r1, [r2, #0]
 *
 * @notapi
 */
static inline void queue_init(threads_queue_t *tqp) {

  tqp->next = (thread_t *)tqp;
 8000c94:	f103 0230 	add.w	r2, r3, #48	; 0x30
 *
 * @notapi
 */
void _vt_init(void) {

  ch.vtlist.next = (virtual_timer_t *)&ch.vtlist;
 8000c98:	f104 011c 	add.w	r1, r4, #28
 8000c9c:	631a      	str	r2, [r3, #48]	; 0x30
  tqp->prev = (thread_t *)tqp;
 8000c9e:	635a      	str	r2, [r3, #52]	; 0x34
  /* Time Measurement subsystem calibration, it does a null measurement
     and calculates the call overhead which is subtracted to real
     measurements.*/
  ch.tm.offset = (rtcnt_t)0;
  chTMObjectInit(&tm);
  chTMStartMeasurementX(&tm);
 8000ca0:	4668      	mov	r0, sp

  tmp->best       = (rtcnt_t)-1;
  tmp->worst      = (rtcnt_t)0;
  tmp->last       = (rtcnt_t)0;
  tmp->n          = (ucnt_t)0;
  tmp->cumulative = (rttime_t)0;
 8000ca2:	2200      	movs	r2, #0
 8000ca4:	2300      	movs	r3, #0
 *
 * @notapi
 */
static inline void queue_init(threads_queue_t *tqp) {

  tqp->next = (thread_t *)tqp;
 8000ca6:	6024      	str	r4, [r4, #0]
 * @notapi
 */
void _scheduler_init(void) {

  queue_init(&ch.rlist.queue);
  ch.rlist.prio = NOPRIO;
 8000ca8:	60a5      	str	r5, [r4, #8]
 8000caa:	e9cd 2304 	strd	r2, r3, [sp, #16]
  ch.vtlist.prev = (virtual_timer_t *)&ch.vtlist;
  ch.vtlist.delta = (sysinterval_t)-1;
 8000cae:	f8c4 e024 	str.w	lr, [r4, #36]	; 0x24
 *
 * @init
 */
void chTMObjectInit(time_measurement_t *tmp) {

  tmp->best       = (rtcnt_t)-1;
 8000cb2:	f8cd e000 	str.w	lr, [sp]
 *
 * @notapi
 */
void _vt_init(void) {

  ch.vtlist.next = (virtual_timer_t *)&ch.vtlist;
 8000cb6:	61e1      	str	r1, [r4, #28]
  ch.vtlist.prev = (virtual_timer_t *)&ch.vtlist;
 8000cb8:	6221      	str	r1, [r4, #32]
#if CH_CFG_USE_REGISTRY == TRUE
  ch.rlist.newer = (thread_t *)&ch.rlist;
 8000cba:	6124      	str	r4, [r4, #16]
  ch.rlist.older = (thread_t *)&ch.rlist;
 8000cbc:	6164      	str	r4, [r4, #20]
  ch.vtlist.delta = (sysinterval_t)-1;
#if CH_CFG_ST_TIMEDELTA == 0
  ch.vtlist.systime = (systime_t)0;
#else /* CH_CFG_ST_TIMEDELTA > 0 */
  ch.vtlist.lasttime = (systime_t)0;
 8000cbe:	62a5      	str	r5, [r4, #40]	; 0x28
  time_measurement_t tm;

  /* Time Measurement subsystem calibration, it does a null measurement
     and calculates the call overhead which is subtracted to real
     measurements.*/
  ch.tm.offset = (rtcnt_t)0;
 8000cc0:	6765      	str	r5, [r4, #116]	; 0x74
 * @init
 */
void chTMObjectInit(time_measurement_t *tmp) {

  tmp->best       = (rtcnt_t)-1;
  tmp->worst      = (rtcnt_t)0;
 8000cc2:	9501      	str	r5, [sp, #4]
  tmp->last       = (rtcnt_t)0;
 8000cc4:	9502      	str	r5, [sp, #8]
  tmp->n          = (ucnt_t)0;
 8000cc6:	9503      	str	r5, [sp, #12]
  /* Time Measurement subsystem calibration, it does a null measurement
     and calculates the call overhead which is subtracted to real
     measurements.*/
  ch.tm.offset = (rtcnt_t)0;
  chTMObjectInit(&tm);
  chTMStartMeasurementX(&tm);
 8000cc8:	f7ff fbaa 	bl	8000420 <chTMStartMeasurementX.constprop.2>
  chTMStopMeasurementX(&tm);
 8000ccc:	4668      	mov	r0, sp
 8000cce:	f7ff fc2f 	bl	8000530 <chTMStopMeasurementX>
 *
 * @notapi
 */
void _heap_init(void) {

  default_heap.provider = chCoreAllocAlignedWithOffset;
 8000cd2:	4a49      	ldr	r2, [pc, #292]	; (8000df8 <main+0x2e8>)
 8000cd4:	4b49      	ldr	r3, [pc, #292]	; (8000dfc <main+0x2ec>)
  ch.tm.offset = tm.last;
 8000cd6:	9902      	ldr	r1, [sp, #8]
 *
 * @notapi
 */
thread_t *_thread_init(thread_t *tp, const char *name, tprio_t prio) {

  tp->prio      = prio;
 8000cd8:	63a7      	str	r7, [r4, #56]	; 0x38
  tp->flags     = CH_FLAG_MODE_STATIC;
#if CH_CFG_TIME_QUANTUM > 0
  tp->ticks     = (tslices_t)CH_CFG_TIME_QUANTUM;
#endif
#if CH_CFG_USE_MUTEXES == TRUE
  tp->realprio  = prio;
 8000cda:	66e7      	str	r7, [r4, #108]	; 0x6c
 8000cdc:	6761      	str	r1, [r4, #116]	; 0x74
 8000cde:	4f48      	ldr	r7, [pc, #288]	; (8000e00 <main+0x2f0>)
 8000ce0:	6017      	str	r7, [r2, #0]
 8000ce2:	f102 010c 	add.w	r1, r2, #12
 8000ce6:	60d1      	str	r1, [r2, #12]
  tqp->prev = (thread_t *)tqp;
 8000ce8:	6111      	str	r1, [r2, #16]
             (size >= sizeof(void *)) &&
             (align >= PORT_NATURAL_ALIGN) &&
             MEM_IS_VALID_ALIGNMENT(align));

  mp->next = NULL;
  mp->object_size = size;
 8000cea:	2714      	movs	r7, #20
/* Module local functions.                                                   */
/*===========================================================================*/

static inline void dyn_list_init(dyn_list_t *dlp) {

  dlp->next = (dyn_element_t *)dlp;
 8000cec:	f103 0124 	add.w	r1, r3, #36	; 0x24
  H_NEXT(&default_heap.header) = NULL;
 8000cf0:	6055      	str	r5, [r2, #4]
  H_PAGES(&default_heap.header) = 0;
 8000cf2:	6095      	str	r5, [r2, #8]
void chMtxObjectInit(mutex_t *mp) {

  chDbgCheck(mp != NULL);

  queue_init(&mp->queue);
  mp->owner = NULL;
 8000cf4:	6155      	str	r5, [r2, #20]
 8000cf6:	619f      	str	r7, [r3, #24]
 8000cf8:	f103 0228 	add.w	r2, r3, #40	; 0x28
 8000cfc:	6259      	str	r1, [r3, #36]	; 0x24
 8000cfe:	271c      	movs	r7, #28
 8000d00:	f103 013c 	add.w	r1, r3, #60	; 0x3c
__STATIC_INLINE void __NVIC_SetPriorityGrouping(uint32_t PriorityGroup)
{
  uint32_t reg_value;
  uint32_t PriorityGroupTmp = (PriorityGroup & (uint32_t)0x07UL);             /* only values 0..7 are used          */

  reg_value  =  SCB->AIRCR;                                                   /* read old register configuration    */
 8000d04:	483f      	ldr	r0, [pc, #252]	; (8000e04 <main+0x2f4>)
#if CH_CFG_MEMCORE_SIZE == 0
  extern uint8_t __heap_base__[];
  extern uint8_t __heap_end__[];

  /*lint -save -e9033 [10.8] Required cast operations.*/
  ch_memcore.nextmem = __heap_base__;
 8000d06:	f8df e128 	ldr.w	lr, [pc, #296]	; 8000e30 <main+0x320>
 8000d0a:	629a      	str	r2, [r3, #40]	; 0x28
 8000d0c:	631f      	str	r7, [r3, #48]	; 0x30
 8000d0e:	f103 0240 	add.w	r2, r3, #64	; 0x40
 8000d12:	f103 0744 	add.w	r7, r3, #68	; 0x44
 8000d16:	63d9      	str	r1, [r3, #60]	; 0x3c
  mp->align = align;
 8000d18:	2104      	movs	r1, #4
 8000d1a:	eb03 0c08 	add.w	ip, r3, r8
 8000d1e:	641a      	str	r2, [r3, #64]	; 0x40
 8000d20:	645f      	str	r7, [r3, #68]	; 0x44
  mp->provider = provider;
 8000d22:	4a39      	ldr	r2, [pc, #228]	; (8000e08 <main+0x2f8>)
             (align >= PORT_NATURAL_ALIGN) &&
             MEM_IS_VALID_ALIGNMENT(align));

  mp->next = NULL;
  mp->object_size = size;
  mp->align = align;
 8000d24:	61d9      	str	r1, [r3, #28]
 8000d26:	6359      	str	r1, [r3, #52]	; 0x34
 8000d28:	4f38      	ldr	r7, [pc, #224]	; (8000e0c <main+0x2fc>)
  ch_memcore.endmem  = __heap_end__;
 8000d2a:	4939      	ldr	r1, [pc, #228]	; (8000e10 <main+0x300>)
 8000d2c:	609d      	str	r5, [r3, #8]
  chDbgCheck((mp != NULL) &&
             (size >= sizeof(void *)) &&
             (align >= PORT_NATURAL_ALIGN) &&
             MEM_IS_VALID_ALIGNMENT(align));

  mp->next = NULL;
 8000d2e:	615d      	str	r5, [r3, #20]
 8000d30:	62dd      	str	r5, [r3, #44]	; 0x2c
 8000d32:	f8c3 c010 	str.w	ip, [r3, #16]
  mp->object_size = size;
  mp->align = align;
  mp->provider = provider;
 8000d36:	621a      	str	r2, [r3, #32]
 8000d38:	639a      	str	r2, [r3, #56]	; 0x38
#if CH_CFG_MEMCORE_SIZE == 0
  extern uint8_t __heap_base__[];
  extern uint8_t __heap_end__[];

  /*lint -save -e9033 [10.8] Required cast operations.*/
  ch_memcore.nextmem = __heap_base__;
 8000d3a:	f8ce 7000 	str.w	r7, [lr]
  ch_memcore.endmem  = __heap_end__;
 8000d3e:	f8ce 1004 	str.w	r1, [lr, #4]
 */
thread_t *_thread_init(thread_t *tp, const char *name, tprio_t prio) {

  tp->prio      = prio;
  tp->state     = CH_STATE_WTSTART;
  tp->flags     = CH_FLAG_MODE_STATIC;
 8000d42:	f884 5051 	strb.w	r5, [r4, #81]	; 0x51
#if CH_CFG_TIME_QUANTUM > 0
  tp->ticks     = (tslices_t)CH_CFG_TIME_QUANTUM;
#endif
#if CH_CFG_USE_MUTEXES == TRUE
  tp->realprio  = prio;
  tp->mtxlist   = NULL;
 8000d46:	66a5      	str	r5, [r4, #104]	; 0x68
#endif
#if CH_CFG_USE_EVENTS == TRUE
  tp->epending  = (eventmask_t)0;
 8000d48:	6665      	str	r5, [r4, #100]	; 0x64
 *
 * @notapi
 */
static inline void queue_init(threads_queue_t *tqp) {

  tqp->next = (thread_t *)tqp;
 8000d4a:	601b      	str	r3, [r3, #0]
  tqp->prev = (thread_t *)tqp;
 8000d4c:	605b      	str	r3, [r3, #4]
#endif
#if CH_DBG_THREADS_PROFILING == TRUE
  tp->time      = (systime_t)0;
#endif
#if CH_CFG_USE_REGISTRY == TRUE
  tp->refs      = (trefs_t)1;
 8000d4e:	f884 6052 	strb.w	r6, [r4, #82]	; 0x52
 8000d52:	f8d0 c00c 	ldr.w	ip, [r0, #12]
  reg_value &= ~((uint32_t)(SCB_AIRCR_VECTKEY_Msk | SCB_AIRCR_PRIGROUP_Msk)); /* clear bits to change               */
  reg_value  =  (reg_value                                   |
 8000d56:	4b2f      	ldr	r3, [pc, #188]	; (8000e14 <main+0x304>)
  tp->name      = name;
  REG_INSERT(tp);
 8000d58:	6967      	ldr	r7, [r4, #20]

  /* Initializing priority grouping.*/
  NVIC_SetPriorityGrouping(CORTEX_PRIGROUP_INIT);

  /* DWT cycle counter enable, note, the M7 requires DWT unlocking.*/
  CoreDebug->DEMCR |= CoreDebug_DEMCR_TRCENA_Msk;
 8000d5a:	492f      	ldr	r1, [pc, #188]	; (8000e18 <main+0x308>)
#if CH_DBG_THREADS_PROFILING == TRUE
  tp->time      = (systime_t)0;
#endif
#if CH_CFG_USE_REGISTRY == TRUE
  tp->refs      = (trefs_t)1;
  tp->name      = name;
 8000d5c:	f8df e0d4 	ldr.w	lr, [pc, #212]	; 8000e34 <main+0x324>
 8000d60:	f8c4 e048 	str.w	lr, [r4, #72]	; 0x48
{
  uint32_t reg_value;
  uint32_t PriorityGroupTmp = (PriorityGroup & (uint32_t)0x07UL);             /* only values 0..7 are used          */

  reg_value  =  SCB->AIRCR;                                                   /* read old register configuration    */
  reg_value &= ~((uint32_t)(SCB_AIRCR_VECTKEY_Msk | SCB_AIRCR_PRIGROUP_Msk)); /* clear bits to change               */
 8000d64:	f64f 02ff 	movw	r2, #63743	; 0xf8ff
 8000d68:	ea0c 0202 	and.w	r2, ip, r2
  reg_value  =  (reg_value                                   |
 8000d6c:	4313      	orrs	r3, r2
  REG_INSERT(tp);
 8000d6e:	f104 0230 	add.w	r2, r4, #48	; 0x30
 8000d72:	6467      	str	r7, [r4, #68]	; 0x44
 8000d74:	6424      	str	r4, [r4, #64]	; 0x40
 8000d76:	613a      	str	r2, [r7, #16]
                ((uint32_t)0x5FAUL << SCB_AIRCR_VECTKEY_Pos) |
                (PriorityGroupTmp << SCB_AIRCR_PRIGROUP_Pos)  );              /* Insert write key and priority group */
  SCB->AIRCR =  reg_value;
 8000d78:	60c3      	str	r3, [r0, #12]
 8000d7a:	68cb      	ldr	r3, [r1, #12]
#if CORTEX_MODEL == 7
  DWT->LAR = 0xC5ACCE55U;
#endif
  DWT->CTRL |= DWT_CTRL_CYCCNTENA_Msk;
 8000d7c:	4f27      	ldr	r7, [pc, #156]	; (8000e1c <main+0x30c>)
 8000d7e:	6162      	str	r2, [r4, #20]

  /* Initializing priority grouping.*/
  NVIC_SetPriorityGrouping(CORTEX_PRIGROUP_INIT);

  /* DWT cycle counter enable, note, the M7 requires DWT unlocking.*/
  CoreDebug->DEMCR |= CoreDebug_DEMCR_TRCENA_Msk;
 8000d80:	f043 7380 	orr.w	r3, r3, #16777216	; 0x1000000
 8000d84:	60cb      	str	r3, [r1, #12]
#if CORTEX_MODEL == 7
  DWT->LAR = 0xC5ACCE55U;
#endif
  DWT->CTRL |= DWT_CTRL_CYCCNTENA_Msk;
 8000d86:	683b      	ldr	r3, [r7, #0]
#endif

#if CH_CFG_NO_IDLE_THREAD == FALSE
  /* Now this instructions flow becomes the main thread.*/
#if CH_CFG_USE_REGISTRY == TRUE
  currp = _thread_init(&ch.mainthread, (const char *)&ch_debug, NORMALPRIO);
 8000d88:	61a2      	str	r2, [r4, #24]
 *
 * @notapi
 */
static inline void queue_init(threads_queue_t *tqp) {

  tqp->next = (thread_t *)tqp;
 8000d8a:	f104 015c 	add.w	r1, r4, #92	; 0x5c
 8000d8e:	4333      	orrs	r3, r6
 *
 * @notapi
 */
static inline void list_init(threads_list_t *tlp) {

  tlp->next = (thread_t *)tlp;
 8000d90:	f104 0e58 	add.w	lr, r4, #88	; 0x58
  {
    NVIC->IP[((uint32_t)IRQn)]               = (uint8_t)((priority << (8U - __NVIC_PRIO_BITS)) & (uint32_t)0xFFUL);
  }
  else
  {
    SCB->SHP[(((uint32_t)IRQn) & 0xFUL)-4UL] = (uint8_t)((priority << (8U - __NVIC_PRIO_BITS)) & (uint32_t)0xFFUL);
 8000d94:	2220      	movs	r2, #32
       symbol must be provided externally.*/
    extern stkalign_t __main_thread_stack_base__;
    currp->wabase = &__main_thread_stack_base__;
  }
#elif CH_CFG_USE_DYNAMIC == TRUE
  currp->wabase = NULL;
 8000d96:	64e5      	str	r5, [r4, #76]	; 0x4c
#endif

  /* Setting up the caller as current thread.*/
  currp->state = CH_STATE_CURRENT;
 8000d98:	f884 6050 	strb.w	r6, [r4, #80]	; 0x50
 8000d9c:	603b      	str	r3, [r7, #0]
 8000d9e:	f8c4 e058 	str.w	lr, [r4, #88]	; 0x58
 8000da2:	f880 801f 	strb.w	r8, [r0, #31]
 *
 * @notapi
 */
static inline void queue_init(threads_queue_t *tqp) {

  tqp->next = (thread_t *)tqp;
 8000da6:	65e1      	str	r1, [r4, #92]	; 0x5c
 8000da8:	f880 2022 	strb.w	r2, [r0, #34]	; 0x22
  tqp->prev = (thread_t *)tqp;
 8000dac:	6621      	str	r1, [r4, #96]	; 0x60
 8000dae:	f385 8811 	msr	BASEPRI, r5
  \details Enables IRQ interrupts by clearing the I-bit in the CPSR.
           Can only be executed in Privileged modes.
 */
__STATIC_FORCEINLINE void __enable_irq(void)
{
  __ASM volatile ("cpsie i" : : : "memory");
 8000db2:	b662      	cpsie	i
  \details Assigns the given value to the Base Priority register.
  \param [in]    basePri  Base Priority value to set
 */
__STATIC_FORCEINLINE void __set_BASEPRI(uint32_t basePri)
{
  __ASM volatile ("MSR basepri, %0" : : "r" (basePri) : "memory");
 8000db4:	f382 8811 	msr	BASEPRI, r2
  tp = (thread_t *)((uint8_t *)tdp->wend -
                    MEM_ALIGN_NEXT(sizeof (thread_t), PORT_STACK_ALIGN));

#if (CH_DBG_ENABLE_STACK_CHECK == TRUE) || (CH_CFG_USE_DYNAMIC == TRUE)
  /* Stack boundary.*/
  tp->wabase = tdp->wbase;
 8000db8:	4b19      	ldr	r3, [pc, #100]	; (8000e20 <main+0x310>)
  tp->time      = (systime_t)0;
#endif
#if CH_CFG_USE_REGISTRY == TRUE
  tp->refs      = (trefs_t)1;
  tp->name      = name;
  REG_INSERT(tp);
 8000dba:	6960      	ldr	r0, [r4, #20]
 *
 * @notapi
 */
thread_t *_thread_init(thread_t *tp, const char *name, tprio_t prio) {

  tp->prio      = prio;
 8000dbc:	f8c3 6098 	str.w	r6, [r3, #152]	; 0x98
  /* Stack boundary.*/
  tp->wabase = tdp->wbase;
#endif

  /* Setting up the port-dependent part of the working area.*/
  PORT_SETUP_CONTEXT(tp, tdp->wbase, tp, tdp->funcp, tdp->arg);
 8000dc0:	f103 016c 	add.w	r1, r3, #108	; 0x6c
  tp->flags     = CH_FLAG_MODE_STATIC;
#if CH_CFG_TIME_QUANTUM > 0
  tp->ticks     = (tslices_t)CH_CFG_TIME_QUANTUM;
#endif
#if CH_CFG_USE_MUTEXES == TRUE
  tp->realprio  = prio;
 8000dc4:	f8c3 60cc 	str.w	r6, [r3, #204]	; 0xcc
#endif
#if CH_DBG_THREADS_PROFILING == TRUE
  tp->time      = (systime_t)0;
#endif
#if CH_CFG_USE_REGISTRY == TRUE
  tp->refs      = (trefs_t)1;
 8000dc8:	f883 60b2 	strb.w	r6, [r3, #178]	; 0xb2
  tp->name      = name;
 8000dcc:	4f15      	ldr	r7, [pc, #84]	; (8000e24 <main+0x314>)
 * @param[in] msg       the wakeup message
 *
 * @sclass
 */
void chSchWakeupS(thread_t *ntp, msg_t msg) {
  thread_t *otp = currp;
 8000dce:	69a2      	ldr	r2, [r4, #24]
  /* Stack boundary.*/
  tp->wabase = tdp->wbase;
#endif

  /* Setting up the port-dependent part of the working area.*/
  PORT_SETUP_CONTEXT(tp, tdp->wbase, tp, tdp->funcp, tdp->arg);
 8000dd0:	f8c3 109c 	str.w	r1, [r3, #156]	; 0x9c
 * @notapi
 */
thread_t *_thread_init(thread_t *tp, const char *name, tprio_t prio) {

  tp->prio      = prio;
  tp->state     = CH_STATE_WTSTART;
 8000dd4:	2602      	movs	r6, #2
  tp->time      = (systime_t)0;
#endif
#if CH_CFG_USE_REGISTRY == TRUE
  tp->refs      = (trefs_t)1;
  tp->name      = name;
  REG_INSERT(tp);
 8000dd6:	f103 0190 	add.w	r1, r3, #144	; 0x90
 8000dda:	e02d      	b.n	8000e38 <main+0x328>
 8000ddc:	40023800 	.word	0x40023800
 8000de0:	40007000 	.word	0x40007000
 8000de4:	e000e100 	.word	0xe000e100
 8000de8:	20000800 	.word	0x20000800
 8000dec:	2000087c 	.word	0x2000087c
 8000df0:	08000481 	.word	0x08000481
 8000df4:	40004c00 	.word	0x40004c00
 8000df8:	20000a20 	.word	0x20000a20
 8000dfc:	200008fc 	.word	0x200008fc
 8000e00:	08000431 	.word	0x08000431
 8000e04:	e000ed00 	.word	0xe000ed00
 8000e08:	080004f1 	.word	0x080004f1
 8000e0c:	20000a40 	.word	0x20000a40
 8000e10:	20020000 	.word	0x20020000
 8000e14:	05fa0300 	.word	0x05fa0300
 8000e18:	e000edf0 	.word	0xe000edf0
 8000e1c:	e0001000 	.word	0xe0001000
 8000e20:	20000948 	.word	0x20000948
 8000e24:	080016c4 	.word	0x080016c4
 8000e28:	0800169c 	.word	0x0800169c
 8000e2c:	e0042000 	.word	0xe0042000
 8000e30:	200008f4 	.word	0x200008f4
 8000e34:	08001604 	.word	0x08001604
  /* Stack boundary.*/
  tp->wabase = tdp->wbase;
#endif

  /* Setting up the port-dependent part of the working area.*/
  PORT_SETUP_CONTEXT(tp, tdp->wbase, tp, tdp->funcp, tdp->arg);
 8000e38:	f8df c110 	ldr.w	ip, [pc, #272]	; 8000f4c <main+0x43c>
 8000e3c:	f8df e110 	ldr.w	lr, [pc, #272]	; 8000f50 <main+0x440>
 * @notapi
 */
thread_t *_thread_init(thread_t *tp, const char *name, tprio_t prio) {

  tp->prio      = prio;
  tp->state     = CH_STATE_WTSTART;
 8000e40:	f883 60b0 	strb.w	r6, [r3, #176]	; 0xb0
  tp->time      = (systime_t)0;
#endif
#if CH_CFG_USE_REGISTRY == TRUE
  tp->refs      = (trefs_t)1;
  tp->name      = name;
  REG_INSERT(tp);
 8000e44:	f8c3 00a4 	str.w	r0, [r3, #164]	; 0xa4
 */
thread_t *_thread_init(thread_t *tp, const char *name, tprio_t prio) {

  tp->prio      = prio;
  tp->state     = CH_STATE_WTSTART;
  tp->flags     = CH_FLAG_MODE_STATIC;
 8000e48:	f883 50b1 	strb.w	r5, [r3, #177]	; 0xb1
#if CH_CFG_USE_MUTEXES == TRUE
  tp->realprio  = prio;
  tp->mtxlist   = NULL;
#endif
#if CH_CFG_USE_EVENTS == TRUE
  tp->epending  = (eventmask_t)0;
 8000e4c:	f8c3 50c4 	str.w	r5, [r3, #196]	; 0xc4
#if CH_DBG_THREADS_PROFILING == TRUE
  tp->time      = (systime_t)0;
#endif
#if CH_CFG_USE_REGISTRY == TRUE
  tp->refs      = (trefs_t)1;
  tp->name      = name;
 8000e50:	f8c3 70a8 	str.w	r7, [r3, #168]	; 0xa8
  /* Stack boundary.*/
  tp->wabase = tdp->wbase;
#endif

  /* Setting up the port-dependent part of the working area.*/
  PORT_SETUP_CONTEXT(tp, tdp->wbase, tp, tdp->funcp, tdp->arg);
 8000e54:	671d      	str	r5, [r3, #112]	; 0x70
#if CH_CFG_TIME_QUANTUM > 0
  tp->ticks     = (tslices_t)CH_CFG_TIME_QUANTUM;
#endif
#if CH_CFG_USE_MUTEXES == TRUE
  tp->realprio  = prio;
  tp->mtxlist   = NULL;
 8000e56:	f8c3 50c8 	str.w	r5, [r3, #200]	; 0xc8
  tp->time      = (systime_t)0;
#endif
#if CH_CFG_USE_REGISTRY == TRUE
  tp->refs      = (trefs_t)1;
  tp->name      = name;
  REG_INSERT(tp);
 8000e5a:	f8c3 40a0 	str.w	r4, [r3, #160]	; 0xa0
  tp = (thread_t *)((uint8_t *)tdp->wend -
                    MEM_ALIGN_NEXT(sizeof (thread_t), PORT_STACK_ALIGN));

#if (CH_DBG_ENABLE_STACK_CHECK == TRUE) || (CH_CFG_USE_DYNAMIC == TRUE)
  /* Stack boundary.*/
  tp->wabase = tdp->wbase;
 8000e5e:	f8c3 30ac 	str.w	r3, [r3, #172]	; 0xac
#endif

  /* Setting up the port-dependent part of the working area.*/
  PORT_SETUP_CONTEXT(tp, tdp->wbase, tp, tdp->funcp, tdp->arg);
 8000e62:	f8c3 c06c 	str.w	ip, [r3, #108]	; 0x6c
 8000e66:	f8c3 e08c 	str.w	lr, [r3, #140]	; 0x8c
  tp->time      = (systime_t)0;
#endif
#if CH_CFG_USE_REGISTRY == TRUE
  tp->refs      = (trefs_t)1;
  tp->name      = name;
  REG_INSERT(tp);
 8000e6a:	6101      	str	r1, [r0, #16]
              (ch.rlist.current->prio >= ch.rlist.queue.next->prio),
              "priority order violation");

  /* Storing the message to be retrieved by the target thread when it will
     restart execution.*/
  ntp->u.rdymsg = msg;
 8000e6c:	f8c3 50b4 	str.w	r5, [r3, #180]	; 0xb4

  /* If the waken thread has a not-greater priority than the current
     one then it is just inserted in the ready list else it made
     running immediately and the invoking thread goes in the ready
     list instead.*/
  if (ntp->prio <= otp->prio) {
 8000e70:	6890      	ldr	r0, [r2, #8]
 8000e72:	6161      	str	r1, [r4, #20]
 *
 * @notapi
 */
static inline void queue_init(threads_queue_t *tqp) {

  tqp->next = (thread_t *)tqp;
 8000e74:	f103 06bc 	add.w	r6, r3, #188	; 0xbc
 *
 * @notapi
 */
static inline void list_init(threads_list_t *tlp) {

  tlp->next = (thread_t *)tlp;
 8000e78:	f103 07b8 	add.w	r7, r3, #184	; 0xb8
 8000e7c:	f8c3 70b8 	str.w	r7, [r3, #184]	; 0xb8
 *
 * @notapi
 */
static inline void queue_init(threads_queue_t *tqp) {

  tqp->next = (thread_t *)tqp;
 8000e80:	f8c3 60bc 	str.w	r6, [r3, #188]	; 0xbc
  tqp->prev = (thread_t *)tqp;
 8000e84:	f8c3 60c0 	str.w	r6, [r3, #192]	; 0xc0
 8000e88:	2800      	cmp	r0, #0
 8000e8a:	d059      	beq.n	8000f40 <main+0x430>
  chDbgCheck(tp != NULL);
  chDbgAssert((tp->state != CH_STATE_READY) &&
              (tp->state != CH_STATE_FINAL),
              "invalid state");

  tp->state = CH_STATE_READY;
 8000e8c:	f883 50b0 	strb.w	r5, [r3, #176]	; 0xb0
  cp = (thread_t *)&ch.rlist.queue;
  do {
    cp = cp->queue.next;
 8000e90:	6824      	ldr	r4, [r4, #0]
  } while (cp->prio >= tp->prio);
 8000e92:	68a2      	ldr	r2, [r4, #8]
 8000e94:	2a00      	cmp	r2, #0
 8000e96:	d1fb      	bne.n	8000e90 <main+0x380>
  /* Insertion on prev.*/
  tp->queue.next             = cp;
 8000e98:	f8c3 4090 	str.w	r4, [r3, #144]	; 0x90
  tp->queue.prev             = cp->queue.prev;
 8000e9c:	6860      	ldr	r0, [r4, #4]
 8000e9e:	f8c3 0094 	str.w	r0, [r3, #148]	; 0x94
  tp->queue.prev->queue.next = tp;
 8000ea2:	6001      	str	r1, [r0, #0]
  cp->queue.prev             = tp;
 8000ea4:	6061      	str	r1, [r4, #4]
 8000ea6:	f382 8811 	msr	BASEPRI, r2
 */
void _pal_lld_setgroupmode(ioportid_t port,
                           ioportmask_t mask,
                           iomode_t mode) {

  uint32_t moder   = (mode & PAL_STM32_MODE_MASK) >> 0;
 8000eaa:	2401      	movs	r4, #1

      altrmask = altr << ((bit & 7) * 4);
      m1 = 1 << bit;
      m2 = 3 << (bit * 2);
      m4 = 15 << ((bit & 7) * 4);
      port->OTYPER  = (port->OTYPER & ~m1) | otyper;
 8000eac:	4b26      	ldr	r3, [pc, #152]	; (8000f48 <main+0x438>)
 8000eae:	46a4      	mov	ip, r4
 8000eb0:	2504      	movs	r5, #4
      port->OSPEEDR = (port->OSPEEDR & ~m2) | ospeedr;
 8000eb2:	f04f 0e03 	mov.w	lr, #3
      else {
        /* If going into a non-alternate mode then the mode is switched
           before setting the alternate mode in order to avoid glitches.*/
        port->MODER   = (port->MODER & ~m2) | moder;
        if (bit < 8)
          port->AFRL = (port->AFRL & ~m4) | altrmask;
 8000eb6:	270f      	movs	r7, #15
        else
          port->AFRH = (port->AFRH & ~m4) | altrmask;
      }
    }
    mask >>= 1;
    if (!mask)
 8000eb8:	2a02      	cmp	r2, #2
      return;
    otyper <<= 1;
    ospeedr <<= 2;
    pupdr <<= 2;
    moder <<= 2;
    bit++;
 8000eba:	f102 0201 	add.w	r2, r2, #1
      altrmask = altr << ((bit & 7) * 4);
      m1 = 1 << bit;
      m2 = 3 << (bit * 2);
      m4 = 15 << ((bit & 7) * 4);
      port->OTYPER  = (port->OTYPER & ~m1) | otyper;
      port->OSPEEDR = (port->OSPEEDR & ~m2) | ospeedr;
 8000ebe:	ea4f 0142 	mov.w	r1, r2, lsl #1
 8000ec2:	fa0e f101 	lsl.w	r1, lr, r1
          port->AFRL = (port->AFRL & ~m4) | altrmask;
        else
          port->AFRH = (port->AFRH & ~m4) | altrmask;
      }
    }
    mask >>= 1;
 8000ec6:	ea4f 0555 	mov.w	r5, r5, lsr #1
    if (!mask)
      return;
    otyper <<= 1;
    ospeedr <<= 2;
    pupdr <<= 2;
    moder <<= 2;
 8000eca:	ea4f 0484 	mov.w	r4, r4, lsl #2

      altrmask = altr << ((bit & 7) * 4);
      m1 = 1 << bit;
      m2 = 3 << (bit * 2);
      m4 = 15 << ((bit & 7) * 4);
      port->OTYPER  = (port->OTYPER & ~m1) | otyper;
 8000ece:	fa0c f802 	lsl.w	r8, ip, r2
      port->OSPEEDR = (port->OSPEEDR & ~m2) | ospeedr;
 8000ed2:	ea6f 0101 	mvn.w	r1, r1
      else {
        /* If going into a non-alternate mode then the mode is switched
           before setting the alternate mode in order to avoid glitches.*/
        port->MODER   = (port->MODER & ~m2) | moder;
        if (bit < 8)
          port->AFRL = (port->AFRL & ~m4) | altrmask;
 8000ed6:	ea4f 0682 	mov.w	r6, r2, lsl #2
        else
          port->AFRH = (port->AFRH & ~m4) | altrmask;
      }
    }
    mask >>= 1;
    if (!mask)
 8000eda:	d016      	beq.n	8000f0a <main+0x3fa>
  uint32_t ospeedr = (mode & PAL_STM32_OSPEED_MASK) >> 3;
  uint32_t pupdr   = (mode & PAL_STM32_PUPDR_MASK) >> 5;
  uint32_t altr    = (mode & PAL_STM32_ALTERNATE_MASK) >> 7;
  uint32_t bit     = 0;
  while (true) {
    if ((mask & 1) != 0) {
 8000edc:	07e8      	lsls	r0, r5, #31
 8000ede:	d5eb      	bpl.n	8000eb8 <main+0x3a8>

      altrmask = altr << ((bit & 7) * 4);
      m1 = 1 << bit;
      m2 = 3 << (bit * 2);
      m4 = 15 << ((bit & 7) * 4);
      port->OTYPER  = (port->OTYPER & ~m1) | otyper;
 8000ee0:	6858      	ldr	r0, [r3, #4]
 8000ee2:	ea20 0008 	bic.w	r0, r0, r8
 8000ee6:	6058      	str	r0, [r3, #4]
      port->OSPEEDR = (port->OSPEEDR & ~m2) | ospeedr;
 8000ee8:	6898      	ldr	r0, [r3, #8]
 8000eea:	4008      	ands	r0, r1
 8000eec:	6098      	str	r0, [r3, #8]
      port->PUPDR   = (port->PUPDR & ~m2) | pupdr;
 8000eee:	68d8      	ldr	r0, [r3, #12]
 8000ef0:	4008      	ands	r0, r1
 8000ef2:	60d8      	str	r0, [r3, #12]
        port->MODER   = (port->MODER & ~m2) | moder;
      }
      else {
        /* If going into a non-alternate mode then the mode is switched
           before setting the alternate mode in order to avoid glitches.*/
        port->MODER   = (port->MODER & ~m2) | moder;
 8000ef4:	6818      	ldr	r0, [r3, #0]
 8000ef6:	4001      	ands	r1, r0
 8000ef8:	4321      	orrs	r1, r4
 8000efa:	6019      	str	r1, [r3, #0]
        if (bit < 8)
          port->AFRL = (port->AFRL & ~m4) | altrmask;
 8000efc:	6a19      	ldr	r1, [r3, #32]
 8000efe:	fa07 f606 	lsl.w	r6, r7, r6
 8000f02:	ea21 0106 	bic.w	r1, r1, r6
 8000f06:	6219      	str	r1, [r3, #32]
 8000f08:	e7d6      	b.n	8000eb8 <main+0x3a8>
   * Normal main() thread activity
   */
   palSetPadMode(GPIOD, 2, PAL_MODE_OUTPUT_PUSHPULL);
//   chprintf((BaseSequentialStream *) &SD4,"Reading started \r\n ");
   while (true) {
    palSetPad(GPIOD, 2);
 8000f0a:	2704      	movs	r7, #4
 8000f0c:	4e0e      	ldr	r6, [pc, #56]	; (8000f48 <main+0x438>)
 8000f0e:	46b8      	mov	r8, r7
 8000f10:	f8a6 8018 	strh.w	r8, [r6, #24]
 8000f14:	2520      	movs	r5, #32
 8000f16:	f385 8811 	msr	BASEPRI, r5
 */
static inline void chThdSleepS(sysinterval_t ticks) {

  chDbgCheck(ticks != TIME_IMMEDIATE);

  (void) chSchGoSleepTimeoutS(CH_STATE_SLEEPING, ticks);
 8000f1a:	f44f 717a 	mov.w	r1, #1000	; 0x3e8
 8000f1e:	2008      	movs	r0, #8
 8000f20:	f7ff fbde 	bl	80006e0 <chSchGoSleepTimeoutS>
 8000f24:	2400      	movs	r4, #0
 8000f26:	f384 8811 	msr	BASEPRI, r4
    chThdSleepMilliseconds(100);
    palClearPad(GPIOD, 2);
 8000f2a:	8377      	strh	r7, [r6, #26]
 8000f2c:	f385 8811 	msr	BASEPRI, r5
 8000f30:	f44f 717a 	mov.w	r1, #1000	; 0x3e8
 8000f34:	2008      	movs	r0, #8
 8000f36:	f7ff fbd3 	bl	80006e0 <chSchGoSleepTimeoutS>
 8000f3a:	f384 8811 	msr	BASEPRI, r4
 8000f3e:	e7e7      	b.n	8000f10 <main+0x400>
  chDbgCheck(tp != NULL);
  chDbgAssert((tp->state != CH_STATE_READY) &&
              (tp->state != CH_STATE_FINAL),
              "invalid state");

  tp->state = CH_STATE_READY;
 8000f40:	f882 0020 	strb.w	r0, [r2, #32]
 8000f44:	e7fe      	b.n	8000f44 <main+0x434>
 8000f46:	bf00      	nop
 8000f48:	40020c00 	.word	0x40020c00
 8000f4c:	08000691 	.word	0x08000691
 8000f50:	080002d1 	.word	0x080002d1
	...

08000f60 <SVC_Handler>:
 */
__STATIC_FORCEINLINE uint32_t __get_PSP(void)
{
  uint32_t result;

  __ASM volatile ("MRS %0, psp"  : "=r" (result) );
 8000f60:	f3ef 8309 	mrs	r3, PSP
  \details Assigns the given value to the Process Stack Pointer (PSP).
  \param [in]    topOfProcStack  Process Stack Pointer value to set
 */
__STATIC_FORCEINLINE void __set_PSP(uint32_t topOfProcStack)
{
  __ASM volatile ("MSR psp, %0" : : "r" (topOfProcStack) : );
 8000f64:	3320      	adds	r3, #32
 8000f66:	f383 8809 	msr	PSP, r3
  \details Assigns the given value to the Base Priority register.
  \param [in]    basePri  Base Priority value to set
 */
__STATIC_FORCEINLINE void __set_BASEPRI(uint32_t basePri)
{
  __ASM volatile ("MSR basepri, %0" : : "r" (basePri) : "memory");
 8000f6a:	2300      	movs	r3, #0
 8000f6c:	f383 8811 	msr	BASEPRI, r3
 8000f70:	4770      	bx	lr
 8000f72:	bf00      	nop
	...

08000f80 <chThdExit>:
 *
 * @param[in] msg       thread exit code
 *
 * @api
 */
void chThdExit(msg_t msg) {
 8000f80:	b538      	push	{r3, r4, r5, lr}
 8000f82:	2220      	movs	r2, #32
 8000f84:	4603      	mov	r3, r0
 8000f86:	f382 8811 	msr	BASEPRI, r2
 * @param[in] msg       thread exit code
 *
 * @sclass
 */
void chThdExitS(msg_t msg) {
  thread_t *tp = currp;
 8000f8a:	4a10      	ldr	r2, [pc, #64]	; (8000fcc <chThdExit+0x4c>)
 8000f8c:	6994      	ldr	r4, [r2, #24]
 *
 * @notapi
 */
static inline bool list_notempty(threads_list_t *tlp) {

  return (bool)(tlp->next != (thread_t *)tlp);
 8000f8e:	6aa0      	ldr	r0, [r4, #40]	; 0x28

  /* Storing exit message.*/
  tp->u.exitcode = msg;
 8000f90:	6263      	str	r3, [r4, #36]	; 0x24
  /* Exit handler hook.*/
  CH_CFG_THREAD_EXIT_HOOK(tp);

#if CH_CFG_USE_WAITEXIT == TRUE
  /* Waking up any waiting thread.*/
  while (list_notempty(&tp->waiting)) {
 8000f92:	f104 0528 	add.w	r5, r4, #40	; 0x28
 8000f96:	4285      	cmp	r5, r0
 8000f98:	d006      	beq.n	8000fa8 <chThdExit+0x28>
}

static inline thread_t *list_remove(threads_list_t *tlp) {

  thread_t *tp = tlp->next;
  tlp->next = tp->queue.next;
 8000f9a:	6803      	ldr	r3, [r0, #0]
 8000f9c:	62a3      	str	r3, [r4, #40]	; 0x28
    (void) chSchReadyI(list_remove(&tp->waiting));
 8000f9e:	f7ff fb27 	bl	80005f0 <chSchReadyI>
 *
 * @notapi
 */
static inline bool list_notempty(threads_list_t *tlp) {

  return (bool)(tlp->next != (thread_t *)tlp);
 8000fa2:	6aa0      	ldr	r0, [r4, #40]	; 0x28
  /* Exit handler hook.*/
  CH_CFG_THREAD_EXIT_HOOK(tp);

#if CH_CFG_USE_WAITEXIT == TRUE
  /* Waking up any waiting thread.*/
  while (list_notempty(&tp->waiting)) {
 8000fa4:	42a8      	cmp	r0, r5
 8000fa6:	d1f8      	bne.n	8000f9a <chThdExit+0x1a>

#if CH_CFG_USE_REGISTRY == TRUE
  /* Static threads with no references are immediately removed from the
     registry because there is no memory to recover.*/
#if CH_CFG_USE_DYNAMIC == TRUE
  if ((tp->refs == (trefs_t)0) &&
 8000fa8:	f894 3022 	ldrb.w	r3, [r4, #34]	; 0x22
 8000fac:	b943      	cbnz	r3, 8000fc0 <chThdExit+0x40>
 8000fae:	f894 3021 	ldrb.w	r3, [r4, #33]	; 0x21
 8000fb2:	079b      	lsls	r3, r3, #30
 8000fb4:	d104      	bne.n	8000fc0 <chThdExit+0x40>
      ((tp->flags & CH_FLAG_MODE_MASK) == CH_FLAG_MODE_STATIC)) {
    REG_REMOVE(tp);
 8000fb6:	6963      	ldr	r3, [r4, #20]
 8000fb8:	6922      	ldr	r2, [r4, #16]
 8000fba:	611a      	str	r2, [r3, #16]
 8000fbc:	6922      	ldr	r2, [r4, #16]
 8000fbe:	6153      	str	r3, [r2, #20]
  }
#endif
#endif

  /* Going into final state.*/
  chSchGoSleepS(CH_STATE_FINAL);
 8000fc0:	200f      	movs	r0, #15
void chThdExit(msg_t msg) {

  chSysLock();
  chThdExitS(msg);
  /* The thread never returns here.*/
}
 8000fc2:	e8bd 4038 	ldmia.w	sp!, {r3, r4, r5, lr}
  }
#endif
#endif

  /* Going into final state.*/
  chSchGoSleepS(CH_STATE_FINAL);
 8000fc6:	f7ff bb73 	b.w	80006b0 <chSchGoSleepS>
 8000fca:	bf00      	nop
 8000fcc:	2000087c 	.word	0x2000087c

08000fd0 <chSchDoReschedule>:
 *          itself or from within the port layer.
 *
 * @special
 */
void chSchDoReschedule(void) {
  thread_t *otp = currp;
 8000fd0:	4a0e      	ldr	r2, [pc, #56]	; (800100c <chSchDoReschedule+0x3c>)
  tp->queue.prev->queue.next = tp;
  tqp->prev                  = tp;
}

static inline thread_t *queue_fifo_remove(threads_queue_t *tqp) {
  thread_t *tp = tqp->next;
 8000fd2:	6810      	ldr	r0, [r2, #0]

  tqp->next             = tp->queue.next;
 8000fd4:	6803      	ldr	r3, [r0, #0]
 * @note    Not a user function, it is meant to be invoked by the scheduler
 *          itself or from within the port layer.
 *
 * @special
 */
void chSchDoReschedule(void) {
 8000fd6:	b430      	push	{r4, r5}
  thread_t *otp = currp;

  /* Picks the first thread from the ready queue and makes it current.*/
  currp = queue_fifo_remove(&ch.rlist.queue);
  currp->state = CH_STATE_CURRENT;
 8000fd8:	2101      	movs	r1, #1
 *          itself or from within the port layer.
 *
 * @special
 */
void chSchDoReschedule(void) {
  thread_t *otp = currp;
 8000fda:	6994      	ldr	r4, [r2, #24]
  tqp->next->queue.prev = (thread_t *)tqp;
 8000fdc:	605a      	str	r2, [r3, #4]
  chDbgCheck(tp != NULL);
  chDbgAssert((tp->state != CH_STATE_READY) &&
              (tp->state != CH_STATE_FINAL),
              "invalid state");

  tp->state = CH_STATE_READY;
 8000fde:	2500      	movs	r5, #0
void chSchDoReschedule(void) {
  thread_t *otp = currp;

  /* Picks the first thread from the ready queue and makes it current.*/
  currp = queue_fifo_remove(&ch.rlist.queue);
  currp->state = CH_STATE_CURRENT;
 8000fe0:	f880 1020 	strb.w	r1, [r0, #32]
 8000fe4:	68a1      	ldr	r1, [r4, #8]
}

static inline thread_t *queue_fifo_remove(threads_queue_t *tqp) {
  thread_t *tp = tqp->next;

  tqp->next             = tp->queue.next;
 8000fe6:	6013      	str	r3, [r2, #0]
 */
void chSchDoReschedule(void) {
  thread_t *otp = currp;

  /* Picks the first thread from the ready queue and makes it current.*/
  currp = queue_fifo_remove(&ch.rlist.queue);
 8000fe8:	6190      	str	r0, [r2, #24]
  chDbgCheck(tp != NULL);
  chDbgAssert((tp->state != CH_STATE_READY) &&
              (tp->state != CH_STATE_FINAL),
              "invalid state");

  tp->state = CH_STATE_READY;
 8000fea:	f884 5020 	strb.w	r5, [r4, #32]
 8000fee:	e000      	b.n	8000ff2 <chSchDoReschedule+0x22>
 8000ff0:	681b      	ldr	r3, [r3, #0]
  cp = (thread_t *)&ch.rlist.queue;
  do {
    cp = cp->queue.next;
  } while (cp->prio > tp->prio);
 8000ff2:	689a      	ldr	r2, [r3, #8]
 8000ff4:	428a      	cmp	r2, r1
 8000ff6:	d8fb      	bhi.n	8000ff0 <chSchDoReschedule+0x20>
  /* Insertion on prev.*/
  tp->queue.next             = cp;
  tp->queue.prev             = cp->queue.prev;
 8000ff8:	685a      	ldr	r2, [r3, #4]
 8000ffa:	6062      	str	r2, [r4, #4]
  cp = (thread_t *)&ch.rlist.queue;
  do {
    cp = cp->queue.next;
  } while (cp->prio > tp->prio);
  /* Insertion on prev.*/
  tp->queue.next             = cp;
 8000ffc:	6023      	str	r3, [r4, #0]
     ahead of its peers.*/
  otp = chSchReadyAheadI(otp);
#endif /* !(CH_CFG_TIME_QUANTUM > 0) */

  /* Swap operation as tail call.*/
  chSysSwitch(currp, otp);
 8000ffe:	4621      	mov	r1, r4
    cp = cp->queue.next;
  } while (cp->prio > tp->prio);
  /* Insertion on prev.*/
  tp->queue.next             = cp;
  tp->queue.prev             = cp->queue.prev;
  tp->queue.prev->queue.next = tp;
 8001000:	6014      	str	r4, [r2, #0]
  cp->queue.prev             = tp;
 8001002:	605c      	str	r4, [r3, #4]
  otp = chSchReadyAheadI(otp);
#endif /* !(CH_CFG_TIME_QUANTUM > 0) */

  /* Swap operation as tail call.*/
  chSysSwitch(currp, otp);
}
 8001004:	bc30      	pop	{r4, r5}
     ahead of its peers.*/
  otp = chSchReadyAheadI(otp);
#endif /* !(CH_CFG_TIME_QUANTUM > 0) */

  /* Swap operation as tail call.*/
  chSysSwitch(currp, otp);
 8001006:	f7ff b95b 	b.w	80002c0 <_port_switch>
 800100a:	bf00      	nop
 800100c:	2000087c 	.word	0x2000087c

08001010 <__early_init>:

static void stm32_gpio_init(void) {

  /* Enabling GPIO-related clocks, the mask comes from the
     registry header file.*/
  rccResetAHB1(STM32_GPIO_EN_MASK);
 8001010:	4b97      	ldr	r3, [pc, #604]	; (8001270 <__early_init+0x260>)
/* Driver local functions.                                                   */
/*===========================================================================*/

static void gpio_init(stm32_gpio_t *gpiop, const gpio_setup_t *config) {

  gpiop->OTYPER  = config->otyper;
 8001012:	4898      	ldr	r0, [pc, #608]	; (8001274 <__early_init+0x264>)

static void stm32_gpio_init(void) {

  /* Enabling GPIO-related clocks, the mask comes from the
     registry header file.*/
  rccResetAHB1(STM32_GPIO_EN_MASK);
 8001014:	691a      	ldr	r2, [r3, #16]
/* Driver local functions.                                                   */
/*===========================================================================*/

static void gpio_init(stm32_gpio_t *gpiop, const gpio_setup_t *config) {

  gpiop->OTYPER  = config->otyper;
 8001016:	4998      	ldr	r1, [pc, #608]	; (8001278 <__early_init+0x268>)

static void stm32_gpio_init(void) {

  /* Enabling GPIO-related clocks, the mask comes from the
     registry header file.*/
  rccResetAHB1(STM32_GPIO_EN_MASK);
 8001018:	f042 02ff 	orr.w	r2, r2, #255	; 0xff
/**
 * @brief   Early initialization code.
 * @details GPIO ports and system clocks are initialized before everything
 *          else.
 */
void __early_init(void) {
 800101c:	b5f0      	push	{r4, r5, r6, r7, lr}

static void stm32_gpio_init(void) {

  /* Enabling GPIO-related clocks, the mask comes from the
     registry header file.*/
  rccResetAHB1(STM32_GPIO_EN_MASK);
 800101e:	611a      	str	r2, [r3, #16]
 8001020:	691a      	ldr	r2, [r3, #16]
/*===========================================================================*/

static void gpio_init(stm32_gpio_t *gpiop, const gpio_setup_t *config) {

  gpiop->OTYPER  = config->otyper;
  gpiop->OSPEEDR = config->ospeedr;
 8001022:	f8df e2b8 	ldr.w	lr, [pc, #696]	; 80012dc <__early_init+0x2cc>
/* Driver local functions.                                                   */
/*===========================================================================*/

static void gpio_init(stm32_gpio_t *gpiop, const gpio_setup_t *config) {

  gpiop->OTYPER  = config->otyper;
 8001026:	4f95      	ldr	r7, [pc, #596]	; (800127c <__early_init+0x26c>)
 8001028:	4e95      	ldr	r6, [pc, #596]	; (8001280 <__early_init+0x270>)
 800102a:	4d96      	ldr	r5, [pc, #600]	; (8001284 <__early_init+0x274>)
 800102c:	4c96      	ldr	r4, [pc, #600]	; (8001288 <__early_init+0x278>)

static void stm32_gpio_init(void) {

  /* Enabling GPIO-related clocks, the mask comes from the
     registry header file.*/
  rccResetAHB1(STM32_GPIO_EN_MASK);
 800102e:	f022 02ff 	bic.w	r2, r2, #255	; 0xff
 8001032:	611a      	str	r2, [r3, #16]
 8001034:	691a      	ldr	r2, [r3, #16]
  rccEnableAHB1(STM32_GPIO_EN_MASK, true);
 8001036:	6b1a      	ldr	r2, [r3, #48]	; 0x30
 8001038:	f042 02ff 	orr.w	r2, r2, #255	; 0xff
 800103c:	631a      	str	r2, [r3, #48]	; 0x30
 800103e:	6d1a      	ldr	r2, [r3, #80]	; 0x50
 8001040:	f042 02ff 	orr.w	r2, r2, #255	; 0xff
 8001044:	651a      	str	r2, [r3, #80]	; 0x50
/* Driver local functions.                                                   */
/*===========================================================================*/

static void gpio_init(stm32_gpio_t *gpiop, const gpio_setup_t *config) {

  gpiop->OTYPER  = config->otyper;
 8001046:	2200      	movs	r2, #0
static void stm32_gpio_init(void) {

  /* Enabling GPIO-related clocks, the mask comes from the
     registry header file.*/
  rccResetAHB1(STM32_GPIO_EN_MASK);
  rccEnableAHB1(STM32_GPIO_EN_MASK, true);
 8001048:	f8d3 c050 	ldr.w	ip, [r3, #80]	; 0x50
/* Driver local functions.                                                   */
/*===========================================================================*/

static void gpio_init(stm32_gpio_t *gpiop, const gpio_setup_t *config) {

  gpiop->OTYPER  = config->otyper;
 800104c:	6042      	str	r2, [r0, #4]
  gpiop->OSPEEDR = config->ospeedr;
 800104e:	f8c0 e008 	str.w	lr, [r0, #8]
  gpiop->PUPDR   = config->pupdr;
 8001052:	f8df e28c 	ldr.w	lr, [pc, #652]	; 80012e0 <__early_init+0x2d0>
 8001056:	f8c0 e00c 	str.w	lr, [r0, #12]
  gpiop->ODR     = config->odr;
 800105a:	f64f 6e03 	movw	lr, #65027	; 0xfe03
 800105e:	f8c0 e014 	str.w	lr, [r0, #20]
  gpiop->AFRL    = config->afrl;
  gpiop->AFRH    = config->afrh;
  gpiop->MODER   = config->moder;
 8001062:	f8df e280 	ldr.w	lr, [pc, #640]	; 80012e4 <__early_init+0x2d4>

  gpiop->OTYPER  = config->otyper;
  gpiop->OSPEEDR = config->ospeedr;
  gpiop->PUPDR   = config->pupdr;
  gpiop->ODR     = config->odr;
  gpiop->AFRL    = config->afrl;
 8001066:	6202      	str	r2, [r0, #32]
  gpiop->AFRH    = config->afrh;
 8001068:	6242      	str	r2, [r0, #36]	; 0x24
  gpiop->MODER   = config->moder;
 800106a:	f8c0 e000 	str.w	lr, [r0]
/*===========================================================================*/

static void gpio_init(stm32_gpio_t *gpiop, const gpio_setup_t *config) {

  gpiop->OTYPER  = config->otyper;
  gpiop->OSPEEDR = config->ospeedr;
 800106e:	f8df e278 	ldr.w	lr, [pc, #632]	; 80012e8 <__early_init+0x2d8>
/* Driver local functions.                                                   */
/*===========================================================================*/

static void gpio_init(stm32_gpio_t *gpiop, const gpio_setup_t *config) {

  gpiop->OTYPER  = config->otyper;
 8001072:	607a      	str	r2, [r7, #4]
  gpiop->OSPEEDR = config->ospeedr;
 8001074:	f8c7 e008 	str.w	lr, [r7, #8]
  gpiop->PUPDR   = config->pupdr;
 8001078:	f8df e270 	ldr.w	lr, [pc, #624]	; 80012ec <__early_init+0x2dc>
 800107c:	f8c7 e00c 	str.w	lr, [r7, #12]
  gpiop->ODR     = config->odr;
 8001080:	f646 7e7e 	movw	lr, #28542	; 0x6f7e
 8001084:	f8c7 e014 	str.w	lr, [r7, #20]
  gpiop->AFRL    = config->afrl;
 8001088:	f04f 4e20 	mov.w	lr, #2684354560	; 0xa0000000
 800108c:	f8c7 e020 	str.w	lr, [r7, #32]
  gpiop->AFRH    = config->afrh;
  gpiop->MODER   = config->moder;
 8001090:	f8df e25c 	ldr.w	lr, [pc, #604]	; 80012f0 <__early_init+0x2e0>
  gpiop->OTYPER  = config->otyper;
  gpiop->OSPEEDR = config->ospeedr;
  gpiop->PUPDR   = config->pupdr;
  gpiop->ODR     = config->odr;
  gpiop->AFRL    = config->afrl;
  gpiop->AFRH    = config->afrh;
 8001094:	627a      	str	r2, [r7, #36]	; 0x24
  gpiop->MODER   = config->moder;
 8001096:	f8c7 e000 	str.w	lr, [r7]
/*===========================================================================*/

static void gpio_init(stm32_gpio_t *gpiop, const gpio_setup_t *config) {

  gpiop->OTYPER  = config->otyper;
  gpiop->OSPEEDR = config->ospeedr;
 800109a:	4f7c      	ldr	r7, [pc, #496]	; (800128c <__early_init+0x27c>)
  gpiop->PUPDR   = config->pupdr;
 800109c:	f8df e254 	ldr.w	lr, [pc, #596]	; 80012f4 <__early_init+0x2e4>
/* Driver local functions.                                                   */
/*===========================================================================*/

static void gpio_init(stm32_gpio_t *gpiop, const gpio_setup_t *config) {

  gpiop->OTYPER  = config->otyper;
 80010a0:	6072      	str	r2, [r6, #4]
  gpiop->OSPEEDR = config->ospeedr;
 80010a2:	60b7      	str	r7, [r6, #8]
  gpiop->PUPDR   = config->pupdr;
 80010a4:	f8c6 e00c 	str.w	lr, [r6, #12]
  gpiop->ODR     = config->odr;
 80010a8:	f64f 77ff 	movw	r7, #65535	; 0xffff
  gpiop->AFRL    = config->afrl;
  gpiop->AFRH    = config->afrh;
 80010ac:	f44f 4eee 	mov.w	lr, #30464	; 0x7700
static void gpio_init(stm32_gpio_t *gpiop, const gpio_setup_t *config) {

  gpiop->OTYPER  = config->otyper;
  gpiop->OSPEEDR = config->ospeedr;
  gpiop->PUPDR   = config->pupdr;
  gpiop->ODR     = config->odr;
 80010b0:	6177      	str	r7, [r6, #20]
  gpiop->AFRL    = config->afrl;
 80010b2:	6232      	str	r2, [r6, #32]
  gpiop->AFRH    = config->afrh;
 80010b4:	f8c6 e024 	str.w	lr, [r6, #36]	; 0x24
  gpiop->MODER   = config->moder;
 80010b8:	f8df e23c 	ldr.w	lr, [pc, #572]	; 80012f8 <__early_init+0x2e8>
 80010bc:	f8c6 e000 	str.w	lr, [r6]
/*===========================================================================*/

static void gpio_init(stm32_gpio_t *gpiop, const gpio_setup_t *config) {

  gpiop->OTYPER  = config->otyper;
  gpiop->OSPEEDR = config->ospeedr;
 80010c0:	f46f 4640 	mvn.w	r6, #49152	; 0xc000
  gpiop->PUPDR   = config->pupdr;
 80010c4:	f44f 4e80 	mov.w	lr, #16384	; 0x4000
/* Driver local functions.                                                   */
/*===========================================================================*/

static void gpio_init(stm32_gpio_t *gpiop, const gpio_setup_t *config) {

  gpiop->OTYPER  = config->otyper;
 80010c8:	604a      	str	r2, [r1, #4]
  gpiop->OSPEEDR = config->ospeedr;
 80010ca:	608e      	str	r6, [r1, #8]
  gpiop->PUPDR   = config->pupdr;
 80010cc:	f8c1 e00c 	str.w	lr, [r1, #12]
  gpiop->ODR     = config->odr;
  gpiop->AFRL    = config->afrl;
 80010d0:	f8df e228 	ldr.w	lr, [pc, #552]	; 80012fc <__early_init+0x2ec>
static void gpio_init(stm32_gpio_t *gpiop, const gpio_setup_t *config) {

  gpiop->OTYPER  = config->otyper;
  gpiop->OSPEEDR = config->ospeedr;
  gpiop->PUPDR   = config->pupdr;
  gpiop->ODR     = config->odr;
 80010d4:	2684      	movs	r6, #132	; 0x84
 80010d6:	614e      	str	r6, [r1, #20]
  gpiop->AFRL    = config->afrl;
 80010d8:	f8c1 e020 	str.w	lr, [r1, #32]
  gpiop->AFRH    = config->afrh;
  gpiop->MODER   = config->moder;
 80010dc:	f10e 4e20 	add.w	lr, lr, #2684354560	; 0xa0000000
  gpiop->OTYPER  = config->otyper;
  gpiop->OSPEEDR = config->ospeedr;
  gpiop->PUPDR   = config->pupdr;
  gpiop->ODR     = config->odr;
  gpiop->AFRL    = config->afrl;
  gpiop->AFRH    = config->afrh;
 80010e0:	f04f 36aa 	mov.w	r6, #2863311530	; 0xaaaaaaaa
  gpiop->MODER   = config->moder;
 80010e4:	f5ae 4e00 	sub.w	lr, lr, #32768	; 0x8000
  gpiop->OTYPER  = config->otyper;
  gpiop->OSPEEDR = config->ospeedr;
  gpiop->PUPDR   = config->pupdr;
  gpiop->ODR     = config->odr;
  gpiop->AFRL    = config->afrl;
  gpiop->AFRH    = config->afrh;
 80010e8:	624e      	str	r6, [r1, #36]	; 0x24
  gpiop->MODER   = config->moder;
 80010ea:	f8c1 e000 	str.w	lr, [r1]
/*===========================================================================*/

static void gpio_init(stm32_gpio_t *gpiop, const gpio_setup_t *config) {

  gpiop->OTYPER  = config->otyper;
  gpiop->OSPEEDR = config->ospeedr;
 80010ee:	f04f 3eff 	mov.w	lr, #4294967295
/* Driver local functions.                                                   */
/*===========================================================================*/

static void gpio_init(stm32_gpio_t *gpiop, const gpio_setup_t *config) {

  gpiop->OTYPER  = config->otyper;
 80010f2:	606a      	str	r2, [r5, #4]
  gpiop->OSPEEDR = config->ospeedr;
 80010f4:	f8c5 e008 	str.w	lr, [r5, #8]
  gpiop->PUPDR   = config->pupdr;
 80010f8:	60ea      	str	r2, [r5, #12]
  gpiop->ODR     = config->odr;
 80010fa:	616a      	str	r2, [r5, #20]
  gpiop->AFRL    = config->afrl;
 80010fc:	622e      	str	r6, [r5, #32]
  gpiop->AFRH    = config->afrh;
 80010fe:	626e      	str	r6, [r5, #36]	; 0x24
  gpiop->MODER   = config->moder;
 8001100:	602e      	str	r6, [r5, #0]
/*===========================================================================*/

static void gpio_init(stm32_gpio_t *gpiop, const gpio_setup_t *config) {

  gpiop->OTYPER  = config->otyper;
  gpiop->OSPEEDR = config->ospeedr;
 8001102:	4d63      	ldr	r5, [pc, #396]	; (8001290 <__early_init+0x280>)
/* Driver local functions.                                                   */
/*===========================================================================*/

static void gpio_init(stm32_gpio_t *gpiop, const gpio_setup_t *config) {

  gpiop->OTYPER  = config->otyper;
 8001104:	6062      	str	r2, [r4, #4]
  gpiop->OSPEEDR = config->ospeedr;
 8001106:	60a5      	str	r5, [r4, #8]
  gpiop->PUPDR   = config->pupdr;
 8001108:	4d62      	ldr	r5, [pc, #392]	; (8001294 <__early_init+0x284>)
 800110a:	60e5      	str	r5, [r4, #12]
  gpiop->ODR     = config->odr;
 800110c:	f64f 75bf 	movw	r5, #65471	; 0xffbf
 8001110:	6165      	str	r5, [r4, #20]
/* Driver local functions.                                                   */
/*===========================================================================*/

static void gpio_init(stm32_gpio_t *gpiop, const gpio_setup_t *config) {

  gpiop->OTYPER  = config->otyper;
 8001112:	f500 50c0 	add.w	r0, r0, #6144	; 0x1800
  gpiop->OSPEEDR = config->ospeedr;
  gpiop->PUPDR   = config->pupdr;
  gpiop->ODR     = config->odr;
  gpiop->AFRL    = config->afrl;
  gpiop->AFRH    = config->afrh;
  gpiop->MODER   = config->moder;
 8001116:	4d60      	ldr	r5, [pc, #384]	; (8001298 <__early_init+0x288>)

  gpiop->OTYPER  = config->otyper;
  gpiop->OSPEEDR = config->ospeedr;
  gpiop->PUPDR   = config->pupdr;
  gpiop->ODR     = config->odr;
  gpiop->AFRL    = config->afrl;
 8001118:	6222      	str	r2, [r4, #32]
  gpiop->AFRH    = config->afrh;
 800111a:	6262      	str	r2, [r4, #36]	; 0x24
  gpiop->MODER   = config->moder;
 800111c:	6025      	str	r5, [r4, #0]
/*===========================================================================*/

static void gpio_init(stm32_gpio_t *gpiop, const gpio_setup_t *config) {

  gpiop->OTYPER  = config->otyper;
  gpiop->OSPEEDR = config->ospeedr;
 800111e:	4c5f      	ldr	r4, [pc, #380]	; (800129c <__early_init+0x28c>)
/* Driver local functions.                                                   */
/*===========================================================================*/

static void gpio_init(stm32_gpio_t *gpiop, const gpio_setup_t *config) {

  gpiop->OTYPER  = config->otyper;
 8001120:	6042      	str	r2, [r0, #4]
  gpiop->OSPEEDR = config->ospeedr;
  gpiop->PUPDR   = config->pupdr;
 8001122:	4d5f      	ldr	r5, [pc, #380]	; (80012a0 <__early_init+0x290>)
/*===========================================================================*/

static void gpio_init(stm32_gpio_t *gpiop, const gpio_setup_t *config) {

  gpiop->OTYPER  = config->otyper;
  gpiop->OSPEEDR = config->ospeedr;
 8001124:	6084      	str	r4, [r0, #8]
  gpiop->PUPDR   = config->pupdr;
  gpiop->ODR     = config->odr;
 8001126:	f649 54ef 	movw	r4, #40431	; 0x9def

static void gpio_init(stm32_gpio_t *gpiop, const gpio_setup_t *config) {

  gpiop->OTYPER  = config->otyper;
  gpiop->OSPEEDR = config->ospeedr;
  gpiop->PUPDR   = config->pupdr;
 800112a:	60c5      	str	r5, [r0, #12]
/* Driver local functions.                                                   */
/*===========================================================================*/

static void gpio_init(stm32_gpio_t *gpiop, const gpio_setup_t *config) {

  gpiop->OTYPER  = config->otyper;
 800112c:	f501 5180 	add.w	r1, r1, #4096	; 0x1000
  gpiop->OSPEEDR = config->ospeedr;
  gpiop->PUPDR   = config->pupdr;
  gpiop->ODR     = config->odr;
 8001130:	6144      	str	r4, [r0, #20]
  gpiop->AFRL    = config->afrl;
  gpiop->AFRH    = config->afrh;
 8001132:	4d5c      	ldr	r5, [pc, #368]	; (80012a4 <__early_init+0x294>)
  gpiop->MODER   = config->moder;
 8001134:	4c5c      	ldr	r4, [pc, #368]	; (80012a8 <__early_init+0x298>)
  RCC->APB1ENR = RCC_APB1ENR_PWREN;
#endif

  /* PWR initialization.*/
#if defined(STM32F4XX) || defined(__DOXYGEN__)
  PWR->CR = STM32_VOS;
 8001136:	f8df e17c 	ldr.w	lr, [pc, #380]	; 80012b4 <__early_init+0x2a4>

  gpiop->OTYPER  = config->otyper;
  gpiop->OSPEEDR = config->ospeedr;
  gpiop->PUPDR   = config->pupdr;
  gpiop->ODR     = config->odr;
  gpiop->AFRL    = config->afrl;
 800113a:	6202      	str	r2, [r0, #32]
/*===========================================================================*/

static void gpio_init(stm32_gpio_t *gpiop, const gpio_setup_t *config) {

  gpiop->OTYPER  = config->otyper;
  gpiop->OSPEEDR = config->ospeedr;
 800113c:	260f      	movs	r6, #15
  gpiop->PUPDR   = config->pupdr;
  gpiop->ODR     = config->odr;
  gpiop->AFRL    = config->afrl;
  gpiop->AFRH    = config->afrh;
 800113e:	6245      	str	r5, [r0, #36]	; 0x24
  gpiop->MODER   = config->moder;
 8001140:	6004      	str	r4, [r0, #0]

static void gpio_init(stm32_gpio_t *gpiop, const gpio_setup_t *config) {

  gpiop->OTYPER  = config->otyper;
  gpiop->OSPEEDR = config->ospeedr;
  gpiop->PUPDR   = config->pupdr;
 8001142:	4d5a      	ldr	r5, [pc, #360]	; (80012ac <__early_init+0x29c>)
/* Driver local functions.                                                   */
/*===========================================================================*/

static void gpio_init(stm32_gpio_t *gpiop, const gpio_setup_t *config) {

  gpiop->OTYPER  = config->otyper;
 8001144:	604a      	str	r2, [r1, #4]
#if !STM32_NO_INIT
  /* PWR clock enable.*/
#if defined(HAL_USE_RTC) && defined(RCC_APB1ENR_RTCAPBEN)
  RCC->APB1ENR = RCC_APB1ENR_PWREN | RCC_APB1ENR_RTCAPBEN;
#else
  RCC->APB1ENR = RCC_APB1ENR_PWREN;
 8001146:	f04f 5480 	mov.w	r4, #268435456	; 0x10000000
#endif

  /* PWR initialization.*/
#if defined(STM32F4XX) || defined(__DOXYGEN__)
  PWR->CR = STM32_VOS;
 800114a:	f44f 4040 	mov.w	r0, #49152	; 0xc000
  gpiop->OSPEEDR = config->ospeedr;
 800114e:	608e      	str	r6, [r1, #8]
  gpiop->PUPDR   = config->pupdr;
 8001150:	60cd      	str	r5, [r1, #12]
  gpiop->ODR     = config->odr;
 8001152:	614f      	str	r7, [r1, #20]
  gpiop->AFRL    = config->afrl;
 8001154:	620a      	str	r2, [r1, #32]
  gpiop->AFRH    = config->afrh;
 8001156:	624a      	str	r2, [r1, #36]	; 0x24
  gpiop->MODER   = config->moder;
 8001158:	600a      	str	r2, [r1, #0]
#if !STM32_NO_INIT
  /* PWR clock enable.*/
#if defined(HAL_USE_RTC) && defined(RCC_APB1ENR_RTCAPBEN)
  RCC->APB1ENR = RCC_APB1ENR_PWREN | RCC_APB1ENR_RTCAPBEN;
#else
  RCC->APB1ENR = RCC_APB1ENR_PWREN;
 800115a:	641c      	str	r4, [r3, #64]	; 0x40
#endif

  /* PWR initialization.*/
#if defined(STM32F4XX) || defined(__DOXYGEN__)
  PWR->CR = STM32_VOS;
 800115c:	f8ce 0000 	str.w	r0, [lr]
  PWR->CR = 0;
#endif

  /* HSI setup, it enforces the reset situation in order to handle possible
     problems with JTAG probes and re-initializations.*/
  RCC->CR |= RCC_CR_HSION;                  /* Make sure HSI is ON.         */
 8001160:	681a      	ldr	r2, [r3, #0]
 8001162:	f042 0201 	orr.w	r2, r2, #1
 8001166:	601a      	str	r2, [r3, #0]
  while (!(RCC->CR & RCC_CR_HSIRDY))
 8001168:	6819      	ldr	r1, [r3, #0]
 800116a:	4a41      	ldr	r2, [pc, #260]	; (8001270 <__early_init+0x260>)
 800116c:	0789      	lsls	r1, r1, #30
 800116e:	d5fb      	bpl.n	8001168 <__early_init+0x158>
    ;                                       /* Wait until HSI is stable.    */

  /* HSI is selected as new source without touching the other fields in
     CFGR. Clearing the register has to be postponed after HSI is the
     new source.*/
  RCC->CFGR &= ~RCC_CFGR_SW;                /* Reset SW, selecting HSI.     */
 8001170:	6893      	ldr	r3, [r2, #8]
 8001172:	f023 0303 	bic.w	r3, r3, #3
 8001176:	6093      	str	r3, [r2, #8]
  while ((RCC->CFGR & RCC_CFGR_SWS) != RCC_CFGR_SWS_HSI)
 8001178:	4611      	mov	r1, r2
 800117a:	688b      	ldr	r3, [r1, #8]
 800117c:	4a3c      	ldr	r2, [pc, #240]	; (8001270 <__early_init+0x260>)
 800117e:	f013 030c 	ands.w	r3, r3, #12
 8001182:	d1fa      	bne.n	800117a <__early_init+0x16a>
    ;                                       /* Wait until HSI is selected.  */

  /* Registers finally cleared to reset values.*/
  RCC->CR &= RCC_CR_HSITRIM | RCC_CR_HSION; /* CR Reset value.              */
 8001184:	6811      	ldr	r1, [r2, #0]
 8001186:	f001 01f9 	and.w	r1, r1, #249	; 0xf9
 800118a:	6011      	str	r1, [r2, #0]
  RCC->CFGR = 0;                            /* CFGR reset value.            */
 800118c:	6093      	str	r3, [r2, #8]
    ;                           /* Waits until HSE is stable.               */
#endif

#if STM32_LSI_ENABLED
  /* LSI activation.*/
  RCC->CSR |= RCC_CSR_LSION;
 800118e:	6f53      	ldr	r3, [r2, #116]	; 0x74
 8001190:	f043 0301 	orr.w	r3, r3, #1
 8001194:	6753      	str	r3, [r2, #116]	; 0x74
  while ((RCC->CSR & RCC_CSR_LSIRDY) == 0)
 8001196:	6f53      	ldr	r3, [r2, #116]	; 0x74
 8001198:	4935      	ldr	r1, [pc, #212]	; (8001270 <__early_init+0x260>)
 800119a:	079f      	lsls	r7, r3, #30
 800119c:	d5fb      	bpl.n	8001196 <__early_init+0x186>
    ;                           /* Waits until LSI is stable.               */
#endif

#if STM32_ACTIVATE_PLL
  /* PLL activation.*/
  RCC->PLLCFGR = STM32_PLLQ | STM32_PLLSRC | STM32_PLLP | STM32_PLLN |
 800119e:	4b44      	ldr	r3, [pc, #272]	; (80012b0 <__early_init+0x2a0>)
 80011a0:	604b      	str	r3, [r1, #4]
                 STM32_PLLM;
  RCC->CR |= RCC_CR_PLLON;
 80011a2:	680b      	ldr	r3, [r1, #0]

  /* Synchronization with voltage regulator stabilization.*/
#if defined(STM32F4XX)
  while ((PWR->CSR & PWR_CSR_VOSRDY) == 0)
 80011a4:	4843      	ldr	r0, [pc, #268]	; (80012b4 <__early_init+0x2a4>)

#if STM32_ACTIVATE_PLL
  /* PLL activation.*/
  RCC->PLLCFGR = STM32_PLLQ | STM32_PLLSRC | STM32_PLLP | STM32_PLLN |
                 STM32_PLLM;
  RCC->CR |= RCC_CR_PLLON;
 80011a6:	f043 7380 	orr.w	r3, r3, #16777216	; 0x1000000
 80011aa:	600b      	str	r3, [r1, #0]

  /* Synchronization with voltage regulator stabilization.*/
#if defined(STM32F4XX)
  while ((PWR->CSR & PWR_CSR_VOSRDY) == 0)
 80011ac:	6842      	ldr	r2, [r0, #4]
 80011ae:	4b41      	ldr	r3, [pc, #260]	; (80012b4 <__early_init+0x2a4>)
 80011b0:	0456      	lsls	r6, r2, #17
 80011b2:	d5fb      	bpl.n	80011ac <__early_init+0x19c>
    ;                           /* Waits until power regulator is stable.   */

#if STM32_OVERDRIVE_REQUIRED
  /* Overdrive activation performed after activating the PLL in order to save
     time as recommended in RM in "Entering Over-drive mode" paragraph.*/
  PWR->CR |= PWR_CR_ODEN;
 80011b4:	681a      	ldr	r2, [r3, #0]
 80011b6:	f442 3280 	orr.w	r2, r2, #65536	; 0x10000
 80011ba:	601a      	str	r2, [r3, #0]
  while (!(PWR->CSR & PWR_CSR_ODRDY))
 80011bc:	461a      	mov	r2, r3
 80011be:	6851      	ldr	r1, [r2, #4]
 80011c0:	4b3c      	ldr	r3, [pc, #240]	; (80012b4 <__early_init+0x2a4>)
 80011c2:	03cd      	lsls	r5, r1, #15
 80011c4:	d5fb      	bpl.n	80011be <__early_init+0x1ae>
      ;
  PWR->CR |= PWR_CR_ODSWEN;
 80011c6:	681a      	ldr	r2, [r3, #0]
 80011c8:	f442 3200 	orr.w	r2, r2, #131072	; 0x20000
 80011cc:	601a      	str	r2, [r3, #0]
  while (!(PWR->CSR & PWR_CSR_ODSWRDY))
 80011ce:	685a      	ldr	r2, [r3, #4]
 80011d0:	0394      	lsls	r4, r2, #14
 80011d2:	d5fc      	bpl.n	80011ce <__early_init+0x1be>
      ;
#endif /* STM32_OVERDRIVE_REQUIRED */
#endif /* defined(STM32F4XX) */

  /* Waiting for PLL lock.*/
  while (!(RCC->CR & RCC_CR_PLLRDY))
 80011d4:	4926      	ldr	r1, [pc, #152]	; (8001270 <__early_init+0x260>)
 80011d6:	680a      	ldr	r2, [r1, #0]
 80011d8:	4b25      	ldr	r3, [pc, #148]	; (8001270 <__early_init+0x260>)
 80011da:	0190      	lsls	r0, r2, #6
 80011dc:	d5fb      	bpl.n	80011d6 <__early_init+0x1c6>
    ;
#endif /* STM32_ACTIVATE_PLL */

#if STM32_ACTIVATE_PLLI2S
  /* PLLI2S activation.*/
  RCC->PLLI2SCFGR = STM32_PLLI2SR | STM32_PLLI2SN | STM32_PLLI2SP |
 80011de:	4a36      	ldr	r2, [pc, #216]	; (80012b8 <__early_init+0x2a8>)
 80011e0:	f8c3 2084 	str.w	r2, [r3, #132]	; 0x84
                    STM32_PLLI2SSRC | STM32_PLLI2SQ | STM32_PLLI2SM;
  RCC->CR |= RCC_CR_PLLI2SON;
 80011e4:	681a      	ldr	r2, [r3, #0]
 80011e6:	f042 6280 	orr.w	r2, r2, #67108864	; 0x4000000
 80011ea:	601a      	str	r2, [r3, #0]

  /* Waiting for PLL lock.*/
  while (!(RCC->CR & RCC_CR_PLLI2SRDY))
 80011ec:	461a      	mov	r2, r3
 80011ee:	6811      	ldr	r1, [r2, #0]
 80011f0:	4b1f      	ldr	r3, [pc, #124]	; (8001270 <__early_init+0x260>)
 80011f2:	0109      	lsls	r1, r1, #4
 80011f4:	d5fb      	bpl.n	80011ee <__early_init+0x1de>
    ;
#endif /* STM32_ACTIVATE_PLLI2S */

#if STM32_ACTIVATE_PLLSAI
  /* PLLSAI activation.*/
  RCC->PLLSAICFGR = STM32_PLLSAIR | STM32_PLLSAIN | STM32_PLLSAIP |
 80011f6:	4a31      	ldr	r2, [pc, #196]	; (80012bc <__early_init+0x2ac>)
 80011f8:	f8c3 2088 	str.w	r2, [r3, #136]	; 0x88
                    STM32_PLLSAIQ | STM32_PLLSAIM;
  RCC->CR |= RCC_CR_PLLSAION;
 80011fc:	681a      	ldr	r2, [r3, #0]
 80011fe:	f042 5280 	orr.w	r2, r2, #268435456	; 0x10000000
 8001202:	601a      	str	r2, [r3, #0]

  /* Waiting for PLL lock.*/
  while (!(RCC->CR & RCC_CR_PLLSAIRDY))
 8001204:	681a      	ldr	r2, [r3, #0]
 8001206:	491a      	ldr	r1, [pc, #104]	; (8001270 <__early_init+0x260>)
 8001208:	0092      	lsls	r2, r2, #2
 800120a:	d5fb      	bpl.n	8001204 <__early_init+0x1f4>
    ;
#endif /* STM32_ACTIVATE_PLLSAI */

  /* Other clock-related settings (dividers, MCO etc).*/
#if !defined(STM32F413xx)
  RCC->CFGR = STM32_MCO2PRE | STM32_MCO2SEL | STM32_MCO1PRE | STM32_MCO1SEL |
 800120c:	4a2c      	ldr	r2, [pc, #176]	; (80012c0 <__early_init+0x2b0>)
 800120e:	608a      	str	r2, [r1, #8]

  /* Flash setup.*/
#if !defined(STM32_REMOVE_REVISION_A_FIX)
  /* Some old revisions of F4x MCUs randomly crashes with compiler
     optimizations enabled AND flash caches enabled. */
  if ((DBGMCU->IDCODE == 0x20006411) && (SCB->CPUID == 0x410FC241))
 8001210:	4b2c      	ldr	r3, [pc, #176]	; (80012c4 <__early_init+0x2b4>)
  /* Special case, in those devices STM32_CK48MSEL is located in the
     DCKCFGR register.*/
    dckcfgr |= STM32_CK48MSEL;
#endif
#if !defined(STM32F413xx)
    RCC->DCKCFGR = dckcfgr |
 8001212:	482d      	ldr	r0, [pc, #180]	; (80012c8 <__early_init+0x2b8>)
 8001214:	f8c1 008c 	str.w	r0, [r1, #140]	; 0x8c
  }
#endif

#if STM32_HAS_RCC_DCKCFGR2
  /* DCKCFGR2 register initialization.*/
  RCC->DCKCFGR2 = STM32_CK48MSEL;
 8001218:	f04f 6200 	mov.w	r2, #134217728	; 0x8000000
 800121c:	f8c1 2094 	str.w	r2, [r1, #148]	; 0x94

  /* Flash setup.*/
#if !defined(STM32_REMOVE_REVISION_A_FIX)
  /* Some old revisions of F4x MCUs randomly crashes with compiler
     optimizations enabled AND flash caches enabled. */
  if ((DBGMCU->IDCODE == 0x20006411) && (SCB->CPUID == 0x410FC241))
 8001220:	681a      	ldr	r2, [r3, #0]
 8001222:	4b2a      	ldr	r3, [pc, #168]	; (80012cc <__early_init+0x2bc>)
 8001224:	429a      	cmp	r2, r3
 8001226:	d018      	beq.n	800125a <__early_init+0x24a>
    FLASH->ACR = FLASH_ACR_PRFTEN | STM32_FLASHBITS;
  else
    FLASH->ACR = FLASH_ACR_PRFTEN | FLASH_ACR_ICEN |
 8001228:	4b29      	ldr	r3, [pc, #164]	; (80012d0 <__early_init+0x2c0>)
 800122a:	f240 7205 	movw	r2, #1797	; 0x705
 800122e:	601a      	str	r2, [r3, #0]
               FLASH_ACR_DCEN | STM32_FLASHBITS;
#endif

  /* Switching to the configured clock source if it is different from HSI.*/
#if (STM32_SW != STM32_SW_HSI)
  RCC->CFGR |= STM32_SW;        /* Switches on the selected clock source.   */
 8001230:	490f      	ldr	r1, [pc, #60]	; (8001270 <__early_init+0x260>)
 8001232:	688b      	ldr	r3, [r1, #8]
 8001234:	f043 0302 	orr.w	r3, r3, #2
 8001238:	608b      	str	r3, [r1, #8]
  while ((RCC->CFGR & RCC_CFGR_SWS) != (STM32_SW << 2))
 800123a:	688b      	ldr	r3, [r1, #8]
 800123c:	4a0c      	ldr	r2, [pc, #48]	; (8001270 <__early_init+0x260>)
 800123e:	f003 030c 	and.w	r3, r3, #12
 8001242:	2b08      	cmp	r3, #8
 8001244:	d1f9      	bne.n	800123a <__early_init+0x22a>
#endif
#endif /* STM32_NO_INIT */

  /* SYSCFG clock enabled here because it is a multi-functional unit shared
     among multiple drivers.*/
  rccEnableAPB2(RCC_APB2ENR_SYSCFGEN, true);
 8001246:	6c53      	ldr	r3, [r2, #68]	; 0x44
 8001248:	f443 4380 	orr.w	r3, r3, #16384	; 0x4000
 800124c:	6453      	str	r3, [r2, #68]	; 0x44
 800124e:	6e53      	ldr	r3, [r2, #100]	; 0x64
 8001250:	f443 4380 	orr.w	r3, r3, #16384	; 0x4000
 8001254:	6653      	str	r3, [r2, #100]	; 0x64
 8001256:	6e53      	ldr	r3, [r2, #100]	; 0x64
 8001258:	bdf0      	pop	{r4, r5, r6, r7, pc}

  /* Flash setup.*/
#if !defined(STM32_REMOVE_REVISION_A_FIX)
  /* Some old revisions of F4x MCUs randomly crashes with compiler
     optimizations enabled AND flash caches enabled. */
  if ((DBGMCU->IDCODE == 0x20006411) && (SCB->CPUID == 0x410FC241))
 800125a:	4a1e      	ldr	r2, [pc, #120]	; (80012d4 <__early_init+0x2c4>)
 800125c:	4b1e      	ldr	r3, [pc, #120]	; (80012d8 <__early_init+0x2c8>)
 800125e:	6812      	ldr	r2, [r2, #0]
 8001260:	429a      	cmp	r2, r3
 8001262:	d1e1      	bne.n	8001228 <__early_init+0x218>
    FLASH->ACR = FLASH_ACR_PRFTEN | STM32_FLASHBITS;
 8001264:	4b1a      	ldr	r3, [pc, #104]	; (80012d0 <__early_init+0x2c0>)
 8001266:	f240 1205 	movw	r2, #261	; 0x105
 800126a:	601a      	str	r2, [r3, #0]
 800126c:	e7e0      	b.n	8001230 <__early_init+0x220>
 800126e:	bf00      	nop
 8001270:	40023800 	.word	0x40023800
 8001274:	40020000 	.word	0x40020000
 8001278:	40020c00 	.word	0x40020c00
 800127c:	40020400 	.word	0x40020400
 8001280:	40020800 	.word	0x40020800
 8001284:	40021000 	.word	0x40021000
 8001288:	40021400 	.word	0x40021400
 800128c:	f0f00ff0 	.word	0xf0f00ff0
 8001290:	003ffc0f 	.word	0x003ffc0f
 8001294:	55554555 	.word	0x55554555
 8001298:	000fdc0a 	.word	0x000fdc0a
 800129c:	3c0c0300 	.word	0x3c0c0300
 80012a0:	41515455 	.word	0x41515455
 80012a4:	0aa000a0 	.word	0x0aa000a0
 80012a8:	28080100 	.word	0x28080100
 80012ac:	55555550 	.word	0x55555550
 80012b0:	07005a10 	.word	0x07005a10
 80012b4:	40007000 	.word	0x40007000
 80012b8:	44413004 	.word	0x44413004
 80012bc:	44033008 	.word	0x44033008
 80012c0:	40089400 	.word	0x40089400
 80012c4:	e0042000 	.word	0xe0042000
 80012c8:	00800003 	.word	0x00800003
 80012cc:	20006411 	.word	0x20006411
 80012d0:	40023c00 	.word	0x40023c00
 80012d4:	e000ed00 	.word	0xe000ed00
 80012d8:	410fc241 	.word	0x410fc241
 80012dc:	000ffff0 	.word	0x000ffff0
 80012e0:	55540005 	.word	0x55540005
 80012e4:	00015550 	.word	0x00015550
 80012e8:	c300c003 	.word	0xc300c003
 80012ec:	14551554 	.word	0x14551554
 80012f0:	41004001 	.word	0x41004001
 80012f4:	05055055 	.word	0x05055055
 80012f8:	00a005f0 	.word	0x00a005f0
 80012fc:	0aaaaaaa 	.word	0x0aaaaaaa

08001300 <Vector110>:
/**
 * @brief   UART4 interrupt handler.
 *
 * @isr
 */
OSAL_IRQ_HANDLER(STM32_UART4_HANDLER) {
 8001300:	e92d 47f0 	stmdb	sp!, {r4, r5, r6, r7, r8, r9, sl, lr}
 * @brief   Common IRQ handler.
 *
 * @param[in] sdp       communication channel associated to the USART
 */
static void serve_interrupt(SerialDriver *sdp) {
  USART_TypeDef *u = sdp->usart;
 8001304:	4d6b      	ldr	r5, [pc, #428]	; (80014b4 <Vector110+0x1b4>)
 8001306:	6f6e      	ldr	r6, [r5, #116]	; 0x74
  uint16_t cr1 = u->CR1;
 8001308:	f8d6 900c 	ldr.w	r9, [r6, #12]
  uint16_t sr = u->SR;
 800130c:	6833      	ldr	r3, [r6, #0]

  /* Special case, LIN break detection.*/
  if (sr & USART_SR_LBD) {
 800130e:	05da      	lsls	r2, r3, #23
/**
 * @brief   UART4 interrupt handler.
 *
 * @isr
 */
OSAL_IRQ_HANDLER(STM32_UART4_HANDLER) {
 8001310:	b082      	sub	sp, #8
 * @param[in] sdp       communication channel associated to the USART
 */
static void serve_interrupt(SerialDriver *sdp) {
  USART_TypeDef *u = sdp->usart;
  uint16_t cr1 = u->CR1;
  uint16_t sr = u->SR;
 8001312:	b29c      	uxth	r4, r3

  /* Special case, LIN break detection.*/
  if (sr & USART_SR_LBD) {
 8001314:	f100 8081 	bmi.w	800141a <Vector110+0x11a>
 8001318:	2320      	movs	r3, #32
 800131a:	f383 8811 	msr	BASEPRI, r3
    osalSysUnlockFromISR();
  }

  /* Data available.*/
  osalSysLockFromISR();
  while (sr & (USART_SR_RXNE | USART_SR_ORE | USART_SR_NE | USART_SR_FE |
 800131e:	f014 0f2f 	tst.w	r4, #47	; 0x2f
 8001322:	d04c      	beq.n	80013be <Vector110+0xbe>
msg_t iqPutI(input_queue_t *iqp, uint8_t b) {

  osalDbgCheckClassI();

  /* Queue space check.*/
  if (!iqIsFullI(iqp)) {
 8001324:	4f63      	ldr	r7, [pc, #396]	; (80014b4 <Vector110+0x1b4>)

  tp = queue_fifo_remove(tqp);

  chDbgAssert(tp->state == CH_STATE_QUEUED, "invalid state");

  tp->u.rdymsg = msg;
 8001326:	f04f 0a00 	mov.w	sl, #0
 *
 * @iclass
 */
void chThdDequeueNextI(threads_queue_t *tqp, msg_t msg) {

  if (queue_notempty(tqp)) {
 800132a:	f107 080c 	add.w	r8, r7, #12
 800132e:	e007      	b.n	8001340 <Vector110+0x40>

    /* Error condition detection.*/
    if (sr & (USART_SR_ORE | USART_SR_NE | USART_SR_FE  | USART_SR_PE))
      set_error(sdp, sr);
    b = (uint8_t)u->DR & sdp->rxmask;
    if (sr & USART_SR_RXNE)
 8001330:	06a1      	lsls	r1, r4, #26
    uint8_t b;

    /* Error condition detection.*/
    if (sr & (USART_SR_ORE | USART_SR_NE | USART_SR_FE  | USART_SR_PE))
      set_error(sdp, sr);
    b = (uint8_t)u->DR & sdp->rxmask;
 8001332:	6873      	ldr	r3, [r6, #4]
    if (sr & USART_SR_RXNE)
 8001334:	d41c      	bmi.n	8001370 <Vector110+0x70>
      sdIncomingDataI(sdp, b);
    sr = u->SR;
 8001336:	6834      	ldr	r4, [r6, #0]
 8001338:	b2a4      	uxth	r4, r4
    osalSysUnlockFromISR();
  }

  /* Data available.*/
  osalSysLockFromISR();
  while (sr & (USART_SR_RXNE | USART_SR_ORE | USART_SR_NE | USART_SR_FE |
 800133a:	f014 0f2f 	tst.w	r4, #47	; 0x2f
 800133e:	d03e      	beq.n	80013be <Vector110+0xbe>
               USART_SR_PE)) {
    uint8_t b;

    /* Error condition detection.*/
    if (sr & (USART_SR_ORE | USART_SR_NE | USART_SR_FE  | USART_SR_PE))
 8001340:	0723      	lsls	r3, r4, #28
 8001342:	d0f5      	beq.n	8001330 <Vector110+0x30>
 */
static void set_error(SerialDriver *sdp, uint16_t sr) {
  eventflags_t sts = 0;

  if (sr & USART_SR_ORE)
    sts |= SD_OVERRUN_ERROR;
 8001344:	f014 0f08 	tst.w	r4, #8
 8001348:	bf0c      	ite	eq
 800134a:	2000      	moveq	r0, #0
 800134c:	2080      	movne	r0, #128	; 0x80
  if (sr & USART_SR_PE)
 800134e:	07e1      	lsls	r1, r4, #31
    sts |= SD_PARITY_ERROR;
 8001350:	bf48      	it	mi
 8001352:	f040 0020 	orrmi.w	r0, r0, #32
  if (sr & USART_SR_FE)
 8001356:	07a2      	lsls	r2, r4, #30
    sts |= SD_FRAMING_ERROR;
 8001358:	bf48      	it	mi
 800135a:	f040 0040 	orrmi.w	r0, r0, #64	; 0x40
  if (sr & USART_SR_NE)
 800135e:	0763      	lsls	r3, r4, #29
    sts |= SD_NOISE_ERROR;
 8001360:	bf48      	it	mi
 8001362:	f440 7080 	orrmi.w	r0, r0, #256	; 0x100
 * @iclass
 */
static inline void osalEventBroadcastFlagsI(event_source_t *esp,
                                            eventflags_t flags) {

  chEvtBroadcastFlagsI(esp, flags);
 8001366:	f7ff f95b 	bl	8000620 <chEvtBroadcastFlagsI.constprop.12>

    /* Error condition detection.*/
    if (sr & (USART_SR_ORE | USART_SR_NE | USART_SR_FE  | USART_SR_PE))
      set_error(sdp, sr);
    b = (uint8_t)u->DR & sdp->rxmask;
    if (sr & USART_SR_RXNE)
 800136a:	06a1      	lsls	r1, r4, #26
    uint8_t b;

    /* Error condition detection.*/
    if (sr & (USART_SR_ORE | USART_SR_NE | USART_SR_FE  | USART_SR_PE))
      set_error(sdp, sr);
    b = (uint8_t)u->DR & sdp->rxmask;
 800136c:	6873      	ldr	r3, [r6, #4]
    if (sr & USART_SR_RXNE)
 800136e:	d5e2      	bpl.n	8001336 <Vector110+0x36>
void sdIncomingDataI(SerialDriver *sdp, uint8_t b) {

  osalDbgCheckClassI();
  osalDbgCheck(sdp != NULL);

  if (iqIsEmptyI(&sdp->iqueue))
 8001370:	696a      	ldr	r2, [r5, #20]
    uint8_t b;

    /* Error condition detection.*/
    if (sr & (USART_SR_ORE | USART_SR_NE | USART_SR_FE  | USART_SR_PE))
      set_error(sdp, sr);
    b = (uint8_t)u->DR & sdp->rxmask;
 8001372:	f895 4078 	ldrb.w	r4, [r5, #120]	; 0x78
 8001376:	2a00      	cmp	r2, #0
 8001378:	d03e      	beq.n	80013f8 <Vector110+0xf8>
 800137a:	6a29      	ldr	r1, [r5, #32]
 800137c:	6a6a      	ldr	r2, [r5, #36]	; 0x24
 800137e:	4291      	cmp	r1, r2
 8001380:	d043      	beq.n	800140a <Vector110+0x10a>
    iqp->q_counter++;
 8001382:	696a      	ldr	r2, [r5, #20]
    *iqp->q_wrptr++ = b;
 8001384:	4023      	ands	r3, r4

  osalDbgCheckClassI();

  /* Queue space check.*/
  if (!iqIsFullI(iqp)) {
    iqp->q_counter++;
 8001386:	3201      	adds	r2, #1
    *iqp->q_wrptr++ = b;
 8001388:	1c48      	adds	r0, r1, #1

  osalDbgCheckClassI();

  /* Queue space check.*/
  if (!iqIsFullI(iqp)) {
    iqp->q_counter++;
 800138a:	616a      	str	r2, [r5, #20]
    *iqp->q_wrptr++ = b;
 800138c:	6228      	str	r0, [r5, #32]
 800138e:	700b      	strb	r3, [r1, #0]
    if (iqp->q_wrptr >= iqp->q_top) {
 8001390:	6a2a      	ldr	r2, [r5, #32]
 8001392:	69eb      	ldr	r3, [r5, #28]
 8001394:	429a      	cmp	r2, r3
 8001396:	d301      	bcc.n	800139c <Vector110+0x9c>
      iqp->q_wrptr = iqp->q_buffer;
 8001398:	69bb      	ldr	r3, [r7, #24]
 800139a:	623b      	str	r3, [r7, #32]
 *
 * @notapi
 */
static inline bool queue_notempty(const threads_queue_t *tqp) {

  return (bool)(tqp->next != (const thread_t *)tqp);
 800139c:	68eb      	ldr	r3, [r5, #12]
 800139e:	4543      	cmp	r3, r8
 80013a0:	d0c9      	beq.n	8001336 <Vector110+0x36>
}

static inline thread_t *queue_fifo_remove(threads_queue_t *tqp) {
  thread_t *tp = tqp->next;

  tqp->next             = tp->queue.next;
 80013a2:	681a      	ldr	r2, [r3, #0]
 80013a4:	60fa      	str	r2, [r7, #12]
  (void) chSchReadyI(tp);
 80013a6:	4618      	mov	r0, r3
  tqp->next->queue.prev = (thread_t *)tqp;
 80013a8:	f8c2 8004 	str.w	r8, [r2, #4]

  tp = queue_fifo_remove(tqp);

  chDbgAssert(tp->state == CH_STATE_QUEUED, "invalid state");

  tp->u.rdymsg = msg;
 80013ac:	f8c3 a024 	str.w	sl, [r3, #36]	; 0x24
  (void) chSchReadyI(tp);
 80013b0:	f7ff f91e 	bl	80005f0 <chSchReadyI>
    if (sr & USART_SR_RXNE)
      sdIncomingDataI(sdp, b);
    sr = u->SR;
 80013b4:	6834      	ldr	r4, [r6, #0]
 80013b6:	b2a4      	uxth	r4, r4
    osalSysUnlockFromISR();
  }

  /* Data available.*/
  osalSysLockFromISR();
  while (sr & (USART_SR_RXNE | USART_SR_ORE | USART_SR_NE | USART_SR_FE |
 80013b8:	f014 0f2f 	tst.w	r4, #47	; 0x2f
 80013bc:	d1c0      	bne.n	8001340 <Vector110+0x40>
 80013be:	2300      	movs	r3, #0
 80013c0:	f383 8811 	msr	BASEPRI, r3
    sr = u->SR;
  }
  osalSysUnlockFromISR();

  /* Transmission buffer empty.*/
  if ((cr1 & USART_CR1_TXEIE) && (sr & USART_SR_TXE)) {
 80013c4:	f019 0f80 	tst.w	r9, #128	; 0x80
 80013c8:	d001      	beq.n	80013ce <Vector110+0xce>
 80013ca:	0622      	lsls	r2, r4, #24
 80013cc:	d433      	bmi.n	8001436 <Vector110+0x136>
      u->DR = b;
    osalSysUnlockFromISR();
  }

  /* Physical transmission end.*/
  if ((cr1 & USART_CR1_TCIE) && (sr & USART_SR_TC)) {
 80013ce:	f019 0f40 	tst.w	r9, #64	; 0x40
 80013d2:	d00c      	beq.n	80013ee <Vector110+0xee>
 80013d4:	0663      	lsls	r3, r4, #25
 80013d6:	d50a      	bpl.n	80013ee <Vector110+0xee>
 80013d8:	2320      	movs	r3, #32
 80013da:	f383 8811 	msr	BASEPRI, r3
    osalSysLockFromISR();
    if (oqIsEmptyI(&sdp->oqueue)) {
 80013de:	6c6a      	ldr	r2, [r5, #68]	; 0x44
 80013e0:	6cab      	ldr	r3, [r5, #72]	; 0x48
 80013e2:	4934      	ldr	r1, [pc, #208]	; (80014b4 <Vector110+0x1b4>)
 80013e4:	429a      	cmp	r2, r3
 80013e6:	d04d      	beq.n	8001484 <Vector110+0x184>
 80013e8:	2300      	movs	r3, #0
 80013ea:	f383 8811 	msr	BASEPRI, r3
  OSAL_IRQ_PROLOGUE();

  serve_interrupt(&SD4);

  OSAL_IRQ_EPILOGUE();
}
 80013ee:	b002      	add	sp, #8
 80013f0:	e8bd 47f0 	ldmia.w	sp!, {r4, r5, r6, r7, r8, r9, sl, lr}

  OSAL_IRQ_PROLOGUE();

  serve_interrupt(&SD4);

  OSAL_IRQ_EPILOGUE();
 80013f4:	f7ff b84c 	b.w	8000490 <_port_irq_epilogue>
 80013f8:	2004      	movs	r0, #4
 80013fa:	9301      	str	r3, [sp, #4]
 80013fc:	f7ff f910 	bl	8000620 <chEvtBroadcastFlagsI.constprop.12>
msg_t iqPutI(input_queue_t *iqp, uint8_t b) {

  osalDbgCheckClassI();

  /* Queue space check.*/
  if (!iqIsFullI(iqp)) {
 8001400:	6a29      	ldr	r1, [r5, #32]
 8001402:	6a6a      	ldr	r2, [r5, #36]	; 0x24
 8001404:	9b01      	ldr	r3, [sp, #4]
 8001406:	4291      	cmp	r1, r2
 8001408:	d1bb      	bne.n	8001382 <Vector110+0x82>
 800140a:	697a      	ldr	r2, [r7, #20]
 800140c:	2a00      	cmp	r2, #0
 800140e:	d0b8      	beq.n	8001382 <Vector110+0x82>
 8001410:	f44f 6080 	mov.w	r0, #1024	; 0x400
 8001414:	f7ff f904 	bl	8000620 <chEvtBroadcastFlagsI.constprop.12>
 8001418:	e78d      	b.n	8001336 <Vector110+0x36>
 800141a:	2320      	movs	r3, #32
 800141c:	f383 8811 	msr	BASEPRI, r3
 8001420:	f44f 7000 	mov.w	r0, #512	; 0x200
 8001424:	f7ff f8fc 	bl	8000620 <chEvtBroadcastFlagsI.constprop.12>

  /* Special case, LIN break detection.*/
  if (sr & USART_SR_LBD) {
    osalSysLockFromISR();
    chnAddFlagsI(sdp, SD_BREAK_DETECTED);
    u->SR = ~USART_SR_LBD;
 8001428:	f46f 7380 	mvn.w	r3, #256	; 0x100
 800142c:	6033      	str	r3, [r6, #0]
 800142e:	2300      	movs	r3, #0
 8001430:	f383 8811 	msr	BASEPRI, r3
 8001434:	e770      	b.n	8001318 <Vector110+0x18>
 8001436:	2320      	movs	r3, #32
 8001438:	f383 8811 	msr	BASEPRI, r3
msg_t oqGetI(output_queue_t *oqp) {

  osalDbgCheckClassI();

  /* Queue data check.*/
  if (!oqIsEmptyI(oqp)) {
 800143c:	6cab      	ldr	r3, [r5, #72]	; 0x48
 800143e:	6c6a      	ldr	r2, [r5, #68]	; 0x44
 8001440:	491c      	ldr	r1, [pc, #112]	; (80014b4 <Vector110+0x1b4>)
 8001442:	429a      	cmp	r2, r3
 8001444:	d02a      	beq.n	800149c <Vector110+0x19c>
    uint8_t b;

    oqp->q_counter++;
 8001446:	6baa      	ldr	r2, [r5, #56]	; 0x38
 8001448:	491a      	ldr	r1, [pc, #104]	; (80014b4 <Vector110+0x1b4>)
    b = *oqp->q_rdptr++;
 800144a:	1c58      	adds	r0, r3, #1

  /* Queue data check.*/
  if (!oqIsEmptyI(oqp)) {
    uint8_t b;

    oqp->q_counter++;
 800144c:	3201      	adds	r2, #1
 800144e:	63aa      	str	r2, [r5, #56]	; 0x38
    b = *oqp->q_rdptr++;
 8001450:	64a8      	str	r0, [r5, #72]	; 0x48
 8001452:	781f      	ldrb	r7, [r3, #0]
    if (oqp->q_rdptr >= oqp->q_top) {
 8001454:	6c2b      	ldr	r3, [r5, #64]	; 0x40
 8001456:	4298      	cmp	r0, r3
 8001458:	d301      	bcc.n	800145e <Vector110+0x15e>
      oqp->q_rdptr = oqp->q_buffer;
 800145a:	6bcb      	ldr	r3, [r1, #60]	; 0x3c
 800145c:	648b      	str	r3, [r1, #72]	; 0x48
 *
 * @notapi
 */
static inline bool queue_notempty(const threads_queue_t *tqp) {

  return (bool)(tqp->next != (const thread_t *)tqp);
 800145e:	4915      	ldr	r1, [pc, #84]	; (80014b4 <Vector110+0x1b4>)
 8001460:	6b2b      	ldr	r3, [r5, #48]	; 0x30
 8001462:	f101 0230 	add.w	r2, r1, #48	; 0x30
 8001466:	4293      	cmp	r3, r2
 8001468:	d007      	beq.n	800147a <Vector110+0x17a>
}

static inline thread_t *queue_fifo_remove(threads_queue_t *tqp) {
  thread_t *tp = tqp->next;

  tqp->next             = tp->queue.next;
 800146a:	6818      	ldr	r0, [r3, #0]
 800146c:	6308      	str	r0, [r1, #48]	; 0x30

  tp = queue_fifo_remove(tqp);

  chDbgAssert(tp->state == CH_STATE_QUEUED, "invalid state");

  tp->u.rdymsg = msg;
 800146e:	2100      	movs	r1, #0
  tqp->next->queue.prev = (thread_t *)tqp;
 8001470:	6042      	str	r2, [r0, #4]
  (void) chSchReadyI(tp);
 8001472:	4618      	mov	r0, r3

  tp = queue_fifo_remove(tqp);

  chDbgAssert(tp->state == CH_STATE_QUEUED, "invalid state");

  tp->u.rdymsg = msg;
 8001474:	6259      	str	r1, [r3, #36]	; 0x24
  (void) chSchReadyI(tp);
 8001476:	f7ff f8bb 	bl	80005f0 <chSchReadyI>
    if (b < MSG_OK) {
      chnAddFlagsI(sdp, CHN_OUTPUT_EMPTY);
      u->CR1 = cr1 & ~USART_CR1_TXEIE;
    }
    else
      u->DR = b;
 800147a:	6077      	str	r7, [r6, #4]
 800147c:	2300      	movs	r3, #0
 800147e:	f383 8811 	msr	BASEPRI, r3
 8001482:	e7a4      	b.n	80013ce <Vector110+0xce>
  }

  /* Physical transmission end.*/
  if ((cr1 & USART_CR1_TCIE) && (sr & USART_SR_TC)) {
    osalSysLockFromISR();
    if (oqIsEmptyI(&sdp->oqueue)) {
 8001484:	6b8b      	ldr	r3, [r1, #56]	; 0x38
 8001486:	2b00      	cmp	r3, #0
 8001488:	d0ae      	beq.n	80013e8 <Vector110+0xe8>
 800148a:	2010      	movs	r0, #16
 800148c:	f7ff f8c8 	bl	8000620 <chEvtBroadcastFlagsI.constprop.12>
      chnAddFlagsI(sdp, CHN_TRANSMISSION_END);
      u->CR1 = cr1 & ~USART_CR1_TCIE;
 8001490:	f64f 73bf 	movw	r3, #65471	; 0xffbf
 8001494:	ea09 0303 	and.w	r3, r9, r3
 8001498:	60f3      	str	r3, [r6, #12]
 800149a:	e7a5      	b.n	80013e8 <Vector110+0xe8>
msg_t oqGetI(output_queue_t *oqp) {

  osalDbgCheckClassI();

  /* Queue data check.*/
  if (!oqIsEmptyI(oqp)) {
 800149c:	6b8a      	ldr	r2, [r1, #56]	; 0x38
 800149e:	2a00      	cmp	r2, #0
 80014a0:	d0d1      	beq.n	8001446 <Vector110+0x146>
 80014a2:	2008      	movs	r0, #8
 80014a4:	f7ff f8bc 	bl	8000620 <chEvtBroadcastFlagsI.constprop.12>
    msg_t b;
    osalSysLockFromISR();
    b = oqGetI(&sdp->oqueue);
    if (b < MSG_OK) {
      chnAddFlagsI(sdp, CHN_OUTPUT_EMPTY);
      u->CR1 = cr1 & ~USART_CR1_TXEIE;
 80014a8:	f64f 737f 	movw	r3, #65407	; 0xff7f
 80014ac:	ea09 0303 	and.w	r3, r9, r3
 80014b0:	60f3      	str	r3, [r6, #12]
 80014b2:	e7e3      	b.n	800147c <Vector110+0x17c>
 80014b4:	20000800 	.word	0x20000800
	...

080014c0 <VectorB0>:
 * @brief   TIM2 interrupt handler.
 * @details This interrupt is used for system tick in free running mode.
 *
 * @isr
 */
OSAL_IRQ_HANDLER(ST_HANDLER) {
 80014c0:	e92d 47f0 	stmdb	sp!, {r4, r5, r6, r7, r8, r9, sl, lr}
  OSAL_IRQ_PROLOGUE();

  /* Note, under rare circumstances an interrupt can remain latched even if
     the timer SR register has been cleared, in those cases the interrupt
     is simply ignored.*/
  if ((STM32_ST_TIM->SR & TIM_SR_CC1IF) != 0U) {
 80014c4:	f04f 4780 	mov.w	r7, #1073741824	; 0x40000000
 80014c8:	693b      	ldr	r3, [r7, #16]
 80014ca:	079b      	lsls	r3, r3, #30
 80014cc:	d403      	bmi.n	80014d6 <VectorB0+0x16>
    osalOsTimerHandlerI();
    osalSysUnlockFromISR();
  }

  OSAL_IRQ_EPILOGUE();
}
 80014ce:	e8bd 47f0 	ldmia.w	sp!, {r4, r5, r6, r7, r8, r9, sl, lr}
    osalSysLockFromISR();
    osalOsTimerHandlerI();
    osalSysUnlockFromISR();
  }

  OSAL_IRQ_EPILOGUE();
 80014d2:	f7fe bfdd 	b.w	8000490 <_port_irq_epilogue>

  /* Note, under rare circumstances an interrupt can remain latched even if
     the timer SR register has been cleared, in those cases the interrupt
     is simply ignored.*/
  if ((STM32_ST_TIM->SR & TIM_SR_CC1IF) != 0U) {
    STM32_ST_TIM->SR = 0U;
 80014d6:	2300      	movs	r3, #0
 80014d8:	613b      	str	r3, [r7, #16]
 80014da:	2320      	movs	r3, #32
 80014dc:	f383 8811 	msr	BASEPRI, r3
  virtual_timer_t *vtp;
  systime_t now;
  sysinterval_t delta, nowdelta;

  /* Looping through timers.*/
  vtp = ch.vtlist.next;
 80014e0:	4d21      	ldr	r5, [pc, #132]	; (8001568 <VectorB0+0xa8>)
 80014e2:	46a9      	mov	r9, r5
 *
 * @notapi
 */
static inline systime_t st_lld_get_counter(void) {

  return (systime_t)STM32_ST_TIM->CNT;
 80014e4:	46b8      	mov	r8, r7
 80014e6:	f859 3f1c 	ldr.w	r3, [r9, #28]!
 80014ea:	689a      	ldr	r2, [r3, #8]
  while (true) {

    /* Getting the system time as reference.*/
    now = chVTGetSystemTimeX();
    nowdelta = chTimeDiffX(ch.vtlist.lasttime, now);
 80014ec:	462e      	mov	r6, r5
 80014ee:	f8d8 0024 	ldr.w	r0, [r8, #36]	; 0x24
 80014f2:	6aa9      	ldr	r1, [r5, #40]	; 0x28
 80014f4:	f8df e070 	ldr.w	lr, [pc, #112]	; 8001568 <VectorB0+0xa8>
 */
static inline sysinterval_t chTimeDiffX(systime_t start, systime_t end) {

  /*lint -save -e9033 [10.8] This cast is required by the operation, it is
    known that the destination type can be wider.*/
  return (sysinterval_t)((systime_t)(end - start));
 80014f8:	1a44      	subs	r4, r0, r1

    /* The list scan is limited by the timers header having
       "ch.vtlist.vt_delta == (sysinterval_t)-1" which is
       greater than all deltas.*/
    if (nowdelta < vtp->delta) {
 80014fa:	4294      	cmp	r4, r2
 80014fc:	d31c      	bcc.n	8001538 <VectorB0+0x78>
      nowdelta -= vtp->delta;

      vtp->next->prev = (virtual_timer_t *)&ch.vtlist;
      ch.vtlist.next = vtp->next;
      fn = vtp->func;
      vtp->func = NULL;
 80014fe:	2700      	movs	r7, #0

      /* The "last time" becomes this timer's expiration time.*/
      ch.vtlist.lasttime += vtp->delta;
      nowdelta -= vtp->delta;

      vtp->next->prev = (virtual_timer_t *)&ch.vtlist;
 8001500:	6818      	ldr	r0, [r3, #0]
      ch.vtlist.next = vtp->next;
      fn = vtp->func;
 8001502:	f8d3 a00c 	ldr.w	sl, [r3, #12]
    /* Consuming all timers between "vtp->lasttime" and now.*/
    do {
      vtfunc_t fn;

      /* The "last time" becomes this timer's expiration time.*/
      ch.vtlist.lasttime += vtp->delta;
 8001506:	4411      	add	r1, r2
      ch.vtlist.next = vtp->next;
      fn = vtp->func;
      vtp->func = NULL;

      /* if the list becomes empty then the timer is stopped.*/
      if (ch.vtlist.next == (virtual_timer_t *)&ch.vtlist) {
 8001508:	4548      	cmp	r0, r9
    /* Consuming all timers between "vtp->lasttime" and now.*/
    do {
      vtfunc_t fn;

      /* The "last time" becomes this timer's expiration time.*/
      ch.vtlist.lasttime += vtp->delta;
 800150a:	62a9      	str	r1, [r5, #40]	; 0x28
      nowdelta -= vtp->delta;
 800150c:	eba4 0402 	sub.w	r4, r4, r2

      vtp->next->prev = (virtual_timer_t *)&ch.vtlist;
 8001510:	f8c0 9004 	str.w	r9, [r0, #4]
      ch.vtlist.next = vtp->next;
 8001514:	61e8      	str	r0, [r5, #28]
      fn = vtp->func;
      vtp->func = NULL;
 8001516:	60df      	str	r7, [r3, #12]
 *
 * @notapi
 */
static inline void st_lld_stop_alarm(void) {

  STM32_ST_TIM->DIER = 0;
 8001518:	bf08      	it	eq
 800151a:	f8c8 700c 	streq.w	r7, [r8, #12]
 800151e:	f387 8811 	msr	BASEPRI, r7
        port_timer_stop_alarm();
      }

      /* The callback is invoked outside the kernel critical zone.*/
      chSysUnlockFromISR();
      fn(vtp->par);
 8001522:	6918      	ldr	r0, [r3, #16]
 8001524:	47d0      	blx	sl
 8001526:	2320      	movs	r3, #32
 8001528:	f383 8811 	msr	BASEPRI, r3
      chSysLockFromISR();

      /* Next element in the list.*/
      vtp = ch.vtlist.next;
 800152c:	69eb      	ldr	r3, [r5, #28]
    }
    while (vtp->delta <= nowdelta);
 800152e:	689a      	ldr	r2, [r3, #8]
 8001530:	4294      	cmp	r4, r2
 8001532:	d3dc      	bcc.n	80014ee <VectorB0+0x2e>
 8001534:	6ab1      	ldr	r1, [r6, #40]	; 0x28
 8001536:	e7e3      	b.n	8001500 <VectorB0+0x40>
  }

  /* if the list is empty, nothing else to do.*/
  if (ch.vtlist.next == (virtual_timer_t *)&ch.vtlist) {
 8001538:	f8de 201c 	ldr.w	r2, [lr, #28]
 800153c:	454a      	cmp	r2, r9
 800153e:	d00c      	beq.n	800155a <VectorB0+0x9a>
  }

  /* The "unprocessed nowdelta" time slice is added to "last time"
     and subtracted to next timer's delta.*/
  ch.vtlist.lasttime += nowdelta;
  ch.vtlist.next->delta -= nowdelta;
 8001540:	6891      	ldr	r1, [r2, #8]
    return;
  }

  /* The "unprocessed nowdelta" time slice is added to "last time"
     and subtracted to next timer's delta.*/
  ch.vtlist.lasttime += nowdelta;
 8001542:	f8ce 0028 	str.w	r0, [lr, #40]	; 0x28
  ch.vtlist.next->delta -= nowdelta;
 8001546:	1b0c      	subs	r4, r1, r4
 8001548:	6094      	str	r4, [r2, #8]

  /* Recalculating the next alarm time.*/
  delta = chTimeDiffX(now, chTimeAddX(ch.vtlist.lasttime, vtp->delta));
 800154a:	689b      	ldr	r3, [r3, #8]
  if (delta < (sysinterval_t)CH_CFG_ST_TIMEDELTA) {
    delta = (sysinterval_t)CH_CFG_ST_TIMEDELTA;
 800154c:	2b01      	cmp	r3, #1
 800154e:	bf98      	it	ls
 8001550:	2302      	movls	r3, #2
 *
 * @notapi
 */
static inline void st_lld_set_alarm(systime_t time) {

  STM32_ST_TIM->CCR[0] = (uint32_t)time;
 8001552:	f04f 4280 	mov.w	r2, #1073741824	; 0x40000000

#if CH_CFG_ST_RESOLUTION != CH_CFG_INTERVALS_SIZE
  chDbgCheck(interval <= (sysinterval_t)((systime_t)-1));
#endif

  return systime + (systime_t)interval;
 8001556:	4403      	add	r3, r0
 8001558:	6353      	str	r3, [r2, #52]	; 0x34
 800155a:	2300      	movs	r3, #0
 800155c:	f383 8811 	msr	BASEPRI, r3
    osalOsTimerHandlerI();
    osalSysUnlockFromISR();
  }

  OSAL_IRQ_EPILOGUE();
}
 8001560:	e8bd 47f0 	ldmia.w	sp!, {r4, r5, r6, r7, r8, r9, sl, lr}
    osalSysLockFromISR();
    osalOsTimerHandlerI();
    osalSysUnlockFromISR();
  }

  OSAL_IRQ_EPILOGUE();
 8001564:	f7fe bf94 	b.w	8000490 <_port_irq_epilogue>
 8001568:	2000087c 	.word	0x2000087c
 800156c:	00000000 	.word	0x00000000

08001570 <__init_ram_areas>:
}

/**
 * @brief   Performs the initialization of the various RAM areas.
 */
void __init_ram_areas(void) {
 8001570:	b5f0      	push	{r4, r5, r6, r7, lr}
 8001572:	4f13      	ldr	r7, [pc, #76]	; (80015c0 <__init_ram_areas+0x50>)
 8001574:	4d13      	ldr	r5, [pc, #76]	; (80015c4 <__init_ram_areas+0x54>)
 8001576:	4c14      	ldr	r4, [pc, #80]	; (80015c8 <__init_ram_areas+0x58>)
 8001578:	4b14      	ldr	r3, [pc, #80]	; (80015cc <__init_ram_areas+0x5c>)
 800157a:	4915      	ldr	r1, [pc, #84]	; (80015d0 <__init_ram_areas+0x60>)
 800157c:	f107 0e70 	add.w	lr, r7, #112	; 0x70
      tp++;
    }

    /* Zeroing clear area.*/
    while (p < rap->no_init_area) {
      *p = 0;
 8001580:	2600      	movs	r6, #0
  do {
    uint32_t *tp = rap->init_text_area;
    uint32_t *p = rap->init_area;

    /* Copying initialization data.*/
    while (p < rap->clear_area) {
 8001582:	429c      	cmp	r4, r3
 8001584:	d911      	bls.n	80015aa <__init_ram_areas+0x3a>
 8001586:	3904      	subs	r1, #4
 8001588:	461a      	mov	r2, r3
      *p = *tp;
 800158a:	f851 0f04 	ldr.w	r0, [r1, #4]!
 800158e:	f842 0b04 	str.w	r0, [r2], #4
  do {
    uint32_t *tp = rap->init_text_area;
    uint32_t *p = rap->init_area;

    /* Copying initialization data.*/
    while (p < rap->clear_area) {
 8001592:	4294      	cmp	r4, r2
 8001594:	d8f9      	bhi.n	800158a <__init_ram_areas+0x1a>
 8001596:	43da      	mvns	r2, r3
 8001598:	4414      	add	r4, r2
 800159a:	f024 0403 	bic.w	r4, r4, #3
 800159e:	3404      	adds	r4, #4
 80015a0:	4423      	add	r3, r4
      p++;
      tp++;
    }

    /* Zeroing clear area.*/
    while (p < rap->no_init_area) {
 80015a2:	429d      	cmp	r5, r3
 80015a4:	d903      	bls.n	80015ae <__init_ram_areas+0x3e>
      *p = 0;
 80015a6:	f843 6b04 	str.w	r6, [r3], #4
      p++;
      tp++;
    }

    /* Zeroing clear area.*/
    while (p < rap->no_init_area) {
 80015aa:	429d      	cmp	r5, r3
 80015ac:	d8fb      	bhi.n	80015a6 <__init_ram_areas+0x36>
      *p = 0;
      p++;
    }
    rap++;
  }
  while (rap < &ram_areas[CRT1_AREAS_NUMBER]);
 80015ae:	4577      	cmp	r7, lr
 80015b0:	d005      	beq.n	80015be <__init_ram_areas+0x4e>
 80015b2:	6939      	ldr	r1, [r7, #16]
 80015b4:	697b      	ldr	r3, [r7, #20]
 80015b6:	69bc      	ldr	r4, [r7, #24]
 80015b8:	69fd      	ldr	r5, [r7, #28]
 80015ba:	3710      	adds	r7, #16
 80015bc:	e7e1      	b.n	8001582 <__init_ram_areas+0x12>
 80015be:	bdf0      	pop	{r4, r5, r6, r7, pc}
 80015c0:	0800161c 	.word	0x0800161c
 80015c4:	20000a3c 	.word	0x20000a3c
 80015c8:	20000a3c 	.word	0x20000a3c
 80015cc:	20000a3c 	.word	0x20000a3c
 80015d0:	080016cc 	.word	0x080016cc
	...

080015e0 <__default_exit>:
 */
#if !defined(__DOXYGEN__)
__attribute__((noreturn, weak))
#endif
/*lint -save -e9075 [8.4] All symbols are invoked from asm context.*/
void __default_exit(void) {
 80015e0:	e7fe      	b.n	80015e0 <__default_exit>
 80015e2:	bf00      	nop
	...

080015f0 <__late_init>:
 80015f0:	4770      	bx	lr
 80015f2:	bf00      	nop
	...

08001600 <__core_init>:
 */
#if !defined(__DOXYGEN__)
__attribute__((weak))
#endif
/*lint -save -e9075 [8.4] All symbols are invoked from asm context.*/
void __core_init(void) {
 8001600:	4770      	bx	lr
 8001602:	bf00      	nop
